{
	"Lottery.sol": {
		"Lottery": {
			"abi": [
				{
					"inputs": [],
					"stateMutability": "nonpayable",
					"type": "constructor"
				},
				{
					"inputs": [
						{
							"internalType": "address",
							"name": "lotteryStarter",
							"type": "address"
						}
					],
					"name": "checkWinner",
					"outputs": [
						{
							"internalType": "bool",
							"name": "",
							"type": "bool"
						}
					],
					"stateMutability": "view",
					"type": "function"
				},
				{
					"inputs": [
						{
							"internalType": "address",
							"name": "lotteryStarter",
							"type": "address"
						}
					],
					"name": "end",
					"outputs": [],
					"stateMutability": "nonpayable",
					"type": "function"
				},
				{
					"inputs": [
						{
							"internalType": "address",
							"name": "",
							"type": "address"
						}
					],
					"name": "lotteryStorage",
					"outputs": [
						{
							"internalType": "uint256",
							"name": "prizePool",
							"type": "uint256"
						},
						{
							"internalType": "uint256",
							"name": "winningNumber",
							"type": "uint256"
						},
						{
							"internalType": "uint256",
							"name": "deadLine",
							"type": "uint256"
						},
						{
							"internalType": "bool",
							"name": "ended",
							"type": "bool"
						}
					],
					"stateMutability": "view",
					"type": "function"
				},
				{
					"inputs": [],
					"name": "owner",
					"outputs": [
						{
							"internalType": "address",
							"name": "",
							"type": "address"
						}
					],
					"stateMutability": "view",
					"type": "function"
				},
				{
					"inputs": [
						{
							"internalType": "address",
							"name": "",
							"type": "address"
						},
						{
							"internalType": "address",
							"name": "",
							"type": "address"
						}
					],
					"name": "participants",
					"outputs": [
						{
							"internalType": "bool",
							"name": "",
							"type": "bool"
						}
					],
					"stateMutability": "view",
					"type": "function"
				},
				{
					"inputs": [
						{
							"internalType": "address",
							"name": "lotteryStarter",
							"type": "address"
						}
					],
					"name": "participate",
					"outputs": [],
					"stateMutability": "payable",
					"type": "function"
				},
				{
					"inputs": [
						{
							"internalType": "uint256",
							"name": "_prizePool",
							"type": "uint256"
						},
						{
							"internalType": "uint256",
							"name": "_deadLine",
							"type": "uint256"
						}
					],
					"name": "start",
					"outputs": [],
					"stateMutability": "payable",
					"type": "function"
				},
				{
					"inputs": [],
					"name": "withdraw",
					"outputs": [],
					"stateMutability": "nonpayable",
					"type": "function"
				}
			],
			"devdoc": {
				"kind": "dev",
				"methods": {},
				"version": 1
			},
			"evm": {
				"assembly": "    /* \"Lottery.sol\":62:6065  contract Lottery {\r... */\n  mstore(0x40, 0x80)\n    /* \"Lottery.sol\":569:620  constructor() {\r... */\n  callvalue\n  dup1\n  iszero\n  tag_1\n  jumpi\n  0x00\n  dup1\n  revert\ntag_1:\n  pop\n    /* \"Lottery.sol\":602:612  msg.sender */\n  caller\n    /* \"Lottery.sol\":594:599  owner */\n  0x00\n  dup1\n    /* \"Lottery.sol\":594:612  owner = msg.sender */\n  0x0100\n  exp\n  dup2\n  sload\n  dup2\n  0xffffffffffffffffffffffffffffffffffffffff\n  mul\n  not\n  and\n  swap1\n  dup4\n  0xffffffffffffffffffffffffffffffffffffffff\n  and\n  mul\n  or\n  swap1\n  sstore\n  pop\n    /* \"Lottery.sol\":62:6065  contract Lottery {\r... */\n  dataSize(sub_0)\n  dup1\n  dataOffset(sub_0)\n  0x00\n  codecopy\n  0x00\n  return\nstop\n\nsub_0: assembly {\n        /* \"Lottery.sol\":62:6065  contract Lottery {\r... */\n      mstore(0x40, 0x80)\n      jumpi(tag_1, lt(calldatasize, 0x04))\n      shr(0xe0, calldataload(0x00))\n      dup1\n      0x8d546447\n      gt\n      tag_10\n      jumpi\n      dup1\n      0x8d546447\n      eq\n      tag_6\n      jumpi\n      dup1\n      0x8da5cb5b\n      eq\n      tag_7\n      jumpi\n      dup1\n      0x8fb4b573\n      eq\n      tag_8\n      jumpi\n      dup1\n      0xb91038c7\n      eq\n      tag_9\n      jumpi\n      jump(tag_1)\n    tag_10:\n      dup1\n      0x3ccfd60b\n      eq\n      tag_2\n      jumpi\n      dup1\n      0x4d722c4c\n      eq\n      tag_3\n      jumpi\n      dup1\n      0x727da1bc\n      eq\n      tag_4\n      jumpi\n      dup1\n      0x8c4dd39d\n      eq\n      tag_5\n      jumpi\n    tag_1:\n      0x00\n      dup1\n      revert\n        /* \"Lottery.sol\":5313:5567  function withdraw() public {\r... */\n    tag_2:\n      callvalue\n      dup1\n      iszero\n      tag_11\n      jumpi\n      0x00\n      dup1\n      revert\n    tag_11:\n      pop\n      tag_12\n      tag_13\n      jump\t// in\n    tag_12:\n      stop\n        /* \"Lottery.sol\":4849:5237  function checkWinner(address lotteryStarter)\r... */\n    tag_3:\n      callvalue\n      dup1\n      iszero\n      tag_14\n      jumpi\n      0x00\n      dup1\n      revert\n    tag_14:\n      pop\n      tag_15\n      0x04\n      dup1\n      calldatasize\n      sub\n      dup2\n      add\n      swap1\n      tag_16\n      swap2\n      swap1\n      tag_17\n      jump\t// in\n    tag_16:\n      tag_18\n      jump\t// in\n    tag_15:\n      mload(0x40)\n      tag_19\n      swap2\n      swap1\n      tag_20\n      jump\t// in\n    tag_19:\n      mload(0x40)\n      dup1\n      swap2\n      sub\n      swap1\n      return\n        /* \"Lottery.sol\":675:724  mapping(address => lottery) public lotteryStorage */\n    tag_4:\n      callvalue\n      dup1\n      iszero\n      tag_21\n      jumpi\n      0x00\n      dup1\n      revert\n    tag_21:\n      pop\n      tag_22\n      0x04\n      dup1\n      calldatasize\n      sub\n      dup2\n      add\n      swap1\n      tag_23\n      swap2\n      swap1\n      tag_17\n      jump\t// in\n    tag_23:\n      tag_24\n      jump\t// in\n    tag_22:\n      mload(0x40)\n      tag_25\n      swap5\n      swap4\n      swap3\n      swap2\n      swap1\n      tag_26\n      jump\t// in\n    tag_25:\n      mload(0x40)\n      dup1\n      swap2\n      sub\n      swap1\n      return\n        /* \"Lottery.sol\":3363:4792  function end(address lotteryStarter) public isEnded(lotteryStarter) {\r... */\n    tag_5:\n      callvalue\n      dup1\n      iszero\n      tag_27\n      jumpi\n      0x00\n      dup1\n      revert\n    tag_27:\n      pop\n      tag_28\n      0x04\n      dup1\n      calldatasize\n      sub\n      dup2\n      add\n      swap1\n      tag_29\n      swap2\n      swap1\n      tag_17\n      jump\t// in\n    tag_29:\n      tag_30\n      jump\t// in\n    tag_28:\n      stop\n        /* \"Lottery.sol\":778:842  mapping(address => mapping(address => bool)) public participants */\n    tag_6:\n      callvalue\n      dup1\n      iszero\n      tag_31\n      jumpi\n      0x00\n      dup1\n      revert\n    tag_31:\n      pop\n      tag_32\n      0x04\n      dup1\n      calldatasize\n      sub\n      dup2\n      add\n      swap1\n      tag_33\n      swap2\n      swap1\n      tag_34\n      jump\t// in\n    tag_33:\n      tag_35\n      jump\t// in\n    tag_32:\n      mload(0x40)\n      tag_36\n      swap2\n      swap1\n      tag_20\n      jump\t// in\n    tag_36:\n      mload(0x40)\n      dup1\n      swap2\n      sub\n      swap1\n      return\n        /* \"Lottery.sol\":488:508  address public owner */\n    tag_7:\n      callvalue\n      dup1\n      iszero\n      tag_37\n      jumpi\n      0x00\n      dup1\n      revert\n    tag_37:\n      pop\n      tag_38\n      tag_39\n      jump\t// in\n    tag_38:\n      mload(0x40)\n      tag_40\n      swap2\n      swap1\n      tag_41\n      jump\t// in\n    tag_40:\n      mload(0x40)\n      dup1\n      swap2\n      sub\n      swap1\n      return\n        /* \"Lottery.sol\":889:1985  function start(uint256 _prizePool, uint256 _deadLine) public payable {\r... */\n    tag_8:\n      tag_42\n      0x04\n      dup1\n      calldatasize\n      sub\n      dup2\n      add\n      swap1\n      tag_43\n      swap2\n      swap1\n      tag_44\n      jump\t// in\n    tag_43:\n      tag_45\n      jump\t// in\n    tag_42:\n      stop\n        /* \"Lottery.sol\":2047:3303  function participate(address lotteryStarter)\r... */\n    tag_9:\n      tag_46\n      0x04\n      dup1\n      calldatasize\n      sub\n      dup2\n      add\n      swap1\n      tag_47\n      swap2\n      swap1\n      tag_17\n      jump\t// in\n    tag_47:\n      tag_48\n      jump\t// in\n    tag_46:\n      stop\n        /* \"Lottery.sol\":5313:5567  function withdraw() public {\r... */\n    tag_13:\n        /* \"Lottery.sol\":5373:5378  owner */\n      0x00\n      dup1\n      sload\n      swap1\n      0x0100\n      exp\n      swap1\n      div\n      0xffffffffffffffffffffffffffffffffffffffff\n      and\n        /* \"Lottery.sol\":5359:5378  msg.sender == owner */\n      0xffffffffffffffffffffffffffffffffffffffff\n      and\n        /* \"Lottery.sol\":5359:5369  msg.sender */\n      caller\n        /* \"Lottery.sol\":5359:5378  msg.sender == owner */\n      0xffffffffffffffffffffffffffffffffffffffff\n      and\n      eq\n        /* \"Lottery.sol\":5351:5417  require(msg.sender == owner, \"Only the owner can withdraw funds.\") */\n      tag_50\n      jumpi\n      mload(0x40)\n      0x08c379a000000000000000000000000000000000000000000000000000000000\n      dup2\n      mstore\n      0x04\n      add\n      tag_51\n      swap1\n      tag_52\n      jump\t// in\n    tag_51:\n      mload(0x40)\n      dup1\n      swap2\n      sub\n      swap1\n      revert\n    tag_50:\n        /* \"Lottery.sol\":5460:5461  0 */\n      0x00\n        /* \"Lottery.sol\":5436:5457  address(this).balance */\n      selfbalance\n        /* \"Lottery.sol\":5436:5461  address(this).balance > 0 */\n      gt\n        /* \"Lottery.sol\":5428:5497  require(address(this).balance > 0, \"There are no funds to withdraw.\") */\n      tag_53\n      jumpi\n      mload(0x40)\n      0x08c379a000000000000000000000000000000000000000000000000000000000\n      dup2\n      mstore\n      0x04\n      add\n      tag_54\n      swap1\n      tag_55\n      jump\t// in\n    tag_54:\n      mload(0x40)\n      dup1\n      swap2\n      sub\n      swap1\n      revert\n    tag_53:\n        /* \"Lottery.sol\":5516:5526  msg.sender */\n      caller\n        /* \"Lottery.sol\":5508:5536  payable(msg.sender).transfer */\n      0xffffffffffffffffffffffffffffffffffffffff\n      and\n        /* \"Lottery.sol\":5508:5559  payable(msg.sender).transfer(address(this).balance) */\n      0x08fc\n        /* \"Lottery.sol\":5537:5558  address(this).balance */\n      selfbalance\n        /* \"Lottery.sol\":5508:5559  payable(msg.sender).transfer(address(this).balance) */\n      swap1\n      dup2\n      iszero\n      mul\n      swap1\n      mload(0x40)\n      0x00\n      mload(0x40)\n      dup1\n      dup4\n      sub\n      dup2\n      dup6\n      dup9\n      dup9\n      call\n      swap4\n      pop\n      pop\n      pop\n      pop\n      iszero\n      dup1\n      iszero\n      tag_57\n      jumpi\n      returndatasize\n      0x00\n      dup1\n      returndatacopy\n      revert(0x00, returndatasize)\n    tag_57:\n      pop\n        /* \"Lottery.sol\":5313:5567  function withdraw() public {\r... */\n      jump\t// out\n        /* \"Lottery.sol\":4849:5237  function checkWinner(address lotteryStarter)\r... */\n    tag_18:\n        /* \"Lottery.sol\":4978:4982  bool */\n      0x00\n        /* \"Lottery.sol\":4944:4958  lotteryStarter */\n      dup2\n        /* \"Lottery.sol\":5783:5787  true */\n      0x01\n        /* \"Lottery.sol\":5743:5787  lotteryStorage[lotteryStarter].ended == true */\n      iszero\n      iszero\n        /* \"Lottery.sol\":5743:5757  lotteryStorage */\n      0x01\n        /* \"Lottery.sol\":5743:5773  lotteryStorage[lotteryStarter] */\n      0x00\n        /* \"Lottery.sol\":5758:5772  lotteryStarter */\n      dup4\n        /* \"Lottery.sol\":5743:5773  lotteryStorage[lotteryStarter] */\n      0xffffffffffffffffffffffffffffffffffffffff\n      and\n      0xffffffffffffffffffffffffffffffffffffffff\n      and\n      dup2\n      mstore\n      0x20\n      add\n      swap1\n      dup2\n      mstore\n      0x20\n      add\n      0x00\n      keccak256\n        /* \"Lottery.sol\":5743:5779  lotteryStorage[lotteryStarter].ended */\n      0x04\n      add\n      0x00\n      swap1\n      sload\n      swap1\n      0x0100\n      exp\n      swap1\n      div\n      0xff\n      and\n        /* \"Lottery.sol\":5743:5787  lotteryStorage[lotteryStarter].ended == true */\n      iszero\n      iszero\n      eq\n        /* \"Lottery.sol\":5721:5845  require(\r... */\n      tag_59\n      jumpi\n      mload(0x40)\n      0x08c379a000000000000000000000000000000000000000000000000000000000\n      dup2\n      mstore\n      0x04\n      add\n      tag_60\n      swap1\n      tag_61\n      jump\t// in\n    tag_60:\n      mload(0x40)\n      dup1\n      swap2\n      sub\n      swap1\n      revert\n    tag_59:\n        /* \"Lottery.sol\":5045:5059  lotteryStorage */\n      0x01\n        /* \"Lottery.sol\":5045:5075  lotteryStorage[lotteryStarter] */\n      0x00\n        /* \"Lottery.sol\":5060:5074  lotteryStarter */\n      dup5\n        /* \"Lottery.sol\":5045:5075  lotteryStorage[lotteryStarter] */\n      0xffffffffffffffffffffffffffffffffffffffff\n      and\n      0xffffffffffffffffffffffffffffffffffffffff\n      and\n      dup2\n      mstore\n      0x20\n      add\n      swap1\n      dup2\n      mstore\n      0x20\n      add\n      0x00\n      keccak256\n        /* \"Lottery.sol\":5045:5083  lotteryStorage[lotteryStarter].players */\n      0x00\n      add\n        /* \"Lottery.sol\":5102:5116  lotteryStorage */\n      0x01\n        /* \"Lottery.sol\":5102:5132  lotteryStorage[lotteryStarter] */\n      0x00\n        /* \"Lottery.sol\":5117:5131  lotteryStarter */\n      dup6\n        /* \"Lottery.sol\":5102:5132  lotteryStorage[lotteryStarter] */\n      0xffffffffffffffffffffffffffffffffffffffff\n      and\n      0xffffffffffffffffffffffffffffffffffffffff\n      and\n      dup2\n      mstore\n      0x20\n      add\n      swap1\n      dup2\n      mstore\n      0x20\n      add\n      0x00\n      keccak256\n        /* \"Lottery.sol\":5102:5146  lotteryStorage[lotteryStarter].winningNumber */\n      0x02\n      add\n      sload\n        /* \"Lottery.sol\":5045:5161  lotteryStorage[lotteryStarter].players[\r... */\n      dup2\n      sload\n      dup2\n      lt\n      tag_63\n      jumpi\n      tag_64\n      tag_65\n      jump\t// in\n    tag_64:\n    tag_63:\n      swap1\n      0x00\n      mstore\n      keccak256(0x00, 0x20)\n      add\n      0x00\n      swap1\n      sload\n      swap1\n      0x0100\n      exp\n      swap1\n      div\n      0xffffffffffffffffffffffffffffffffffffffff\n      and\n        /* \"Lottery.sol\":5018:5161  msg.sender ==\r... */\n      0xffffffffffffffffffffffffffffffffffffffff\n      and\n        /* \"Lottery.sol\":5018:5028  msg.sender */\n      caller\n        /* \"Lottery.sol\":5018:5161  msg.sender ==\r... */\n      0xffffffffffffffffffffffffffffffffffffffff\n      and\n      eq\n        /* \"Lottery.sol\":5000:5229  if (\r... */\n      iszero\n      tag_67\n      jumpi\n        /* \"Lottery.sol\":5195:5199  true */\n      0x01\n        /* \"Lottery.sol\":5188:5199  return true */\n      swap2\n      pop\n      jump(tag_62)\n        /* \"Lottery.sol\":5000:5229  if (\r... */\n    tag_67:\n        /* \"Lottery.sol\":5224:5229  false */\n      0x00\n        /* \"Lottery.sol\":5217:5229  return false */\n      swap2\n      pop\n        /* \"Lottery.sol\":5856:5857  _ */\n    tag_62:\n        /* \"Lottery.sol\":4849:5237  function checkWinner(address lotteryStarter)\r... */\n      pop\n      swap2\n      swap1\n      pop\n      jump\t// out\n        /* \"Lottery.sol\":675:724  mapping(address => lottery) public lotteryStorage */\n    tag_24:\n      mstore(0x20, 0x01)\n      dup1\n      0x00\n      mstore\n      keccak256(0x00, 0x40)\n      0x00\n      swap2\n      pop\n      swap1\n      pop\n      dup1\n      0x01\n      add\n      sload\n      swap1\n      dup1\n      0x02\n      add\n      sload\n      swap1\n      dup1\n      0x03\n      add\n      sload\n      swap1\n      dup1\n      0x04\n      add\n      0x00\n      swap1\n      sload\n      swap1\n      0x0100\n      exp\n      swap1\n      div\n      0xff\n      and\n      swap1\n      pop\n      dup5\n      jump\t// out\n        /* \"Lottery.sol\":3363:4792  function end(address lotteryStarter) public isEnded(lotteryStarter) {\r... */\n    tag_30:\n        /* \"Lottery.sol\":3415:3429  lotteryStarter */\n      dup1\n        /* \"Lottery.sol\":5948:5962  lotteryStorage */\n      0x01\n        /* \"Lottery.sol\":5948:5978  lotteryStorage[lotteryStarter] */\n      0x00\n        /* \"Lottery.sol\":5963:5977  lotteryStarter */\n      dup3\n        /* \"Lottery.sol\":5948:5978  lotteryStorage[lotteryStarter] */\n      0xffffffffffffffffffffffffffffffffffffffff\n      and\n      0xffffffffffffffffffffffffffffffffffffffff\n      and\n      dup2\n      mstore\n      0x20\n      add\n      swap1\n      dup2\n      mstore\n      0x20\n      add\n      0x00\n      keccak256\n        /* \"Lottery.sol\":5948:5984  lotteryStorage[lotteryStarter].ended */\n      0x04\n      add\n      0x00\n      swap1\n      sload\n      swap1\n      0x0100\n      exp\n      swap1\n      div\n      0xff\n      and\n        /* \"Lottery.sol\":5947:5984  !lotteryStorage[lotteryStarter].ended */\n      iszero\n        /* \"Lottery.sol\":5925:6042  require(\r... */\n      tag_70\n      jumpi\n      mload(0x40)\n      0x08c379a000000000000000000000000000000000000000000000000000000000\n      dup2\n      mstore\n      0x04\n      add\n      tag_71\n      swap1\n      tag_72\n      jump\t// in\n    tag_71:\n      mload(0x40)\n      dup1\n      swap2\n      sub\n      swap1\n      revert\n    tag_70:\n        /* \"Lottery.sol\":3550:3560  msg.sender */\n      caller\n        /* \"Lottery.sol\":3532:3560  lotteryStarter == msg.sender */\n      0xffffffffffffffffffffffffffffffffffffffff\n      and\n        /* \"Lottery.sol\":3532:3546  lotteryStarter */\n      dup3\n        /* \"Lottery.sol\":3532:3560  lotteryStarter == msg.sender */\n      0xffffffffffffffffffffffffffffffffffffffff\n      and\n      eq\n        /* \"Lottery.sol\":3510:3633  require(\r... */\n      tag_74\n      jumpi\n      mload(0x40)\n      0x08c379a000000000000000000000000000000000000000000000000000000000\n      dup2\n      mstore\n      0x04\n      add\n      tag_75\n      swap1\n      tag_76\n      jump\t// in\n    tag_75:\n      mload(0x40)\n      dup1\n      swap2\n      sub\n      swap1\n      revert\n    tag_74:\n        /* \"Lottery.sol\":3731:3745  lotteryStorage */\n      0x01\n        /* \"Lottery.sol\":3731:3761  lotteryStorage[lotteryStarter] */\n      0x00\n        /* \"Lottery.sol\":3746:3760  lotteryStarter */\n      dup4\n        /* \"Lottery.sol\":3731:3761  lotteryStorage[lotteryStarter] */\n      0xffffffffffffffffffffffffffffffffffffffff\n      and\n      0xffffffffffffffffffffffffffffffffffffffff\n      and\n      dup2\n      mstore\n      0x20\n      add\n      swap1\n      dup2\n      mstore\n      0x20\n      add\n      0x00\n      keccak256\n        /* \"Lottery.sol\":3731:3770  lotteryStorage[lotteryStarter].deadLine */\n      0x03\n      add\n      sload\n        /* \"Lottery.sol\":3713:3728  block.timestamp */\n      timestamp\n        /* \"Lottery.sol\":3713:3770  block.timestamp > lotteryStorage[lotteryStarter].deadLine */\n      gt\n        /* \"Lottery.sol\":3691:3830  require(\r... */\n      tag_77\n      jumpi\n      mload(0x40)\n      0x08c379a000000000000000000000000000000000000000000000000000000000\n      dup2\n      mstore\n      0x04\n      add\n      tag_78\n      swap1\n      tag_79\n      jump\t// in\n    tag_78:\n      mload(0x40)\n      dup1\n      swap2\n      sub\n      swap1\n      revert\n    tag_77:\n        /* \"Lottery.sol\":3979:3980  1 */\n      0x01\n        /* \"Lottery.sol\":3931:3945  lotteryStorage */\n      dup1\n        /* \"Lottery.sol\":3931:3961  lotteryStorage[lotteryStarter] */\n      0x00\n        /* \"Lottery.sol\":3946:3960  lotteryStarter */\n      dup5\n        /* \"Lottery.sol\":3931:3961  lotteryStorage[lotteryStarter] */\n      0xffffffffffffffffffffffffffffffffffffffff\n      and\n      0xffffffffffffffffffffffffffffffffffffffff\n      and\n      dup2\n      mstore\n      0x20\n      add\n      swap1\n      dup2\n      mstore\n      0x20\n      add\n      0x00\n      keccak256\n        /* \"Lottery.sol\":3931:3969  lotteryStorage[lotteryStarter].players */\n      0x00\n      add\n        /* \"Lottery.sol\":3931:3976  lotteryStorage[lotteryStarter].players.length */\n      dup1\n      sload\n      swap1\n      pop\n        /* \"Lottery.sol\":3931:3980  lotteryStorage[lotteryStarter].players.length > 1 */\n      gt\n        /* \"Lottery.sol\":3909:4042  require(\r... */\n      tag_80\n      jumpi\n      mload(0x40)\n      0x08c379a000000000000000000000000000000000000000000000000000000000\n      dup2\n      mstore\n      0x04\n      add\n      tag_81\n      swap1\n      tag_82\n      jump\t// in\n    tag_81:\n      mload(0x40)\n      dup1\n      swap2\n      sub\n      swap1\n      revert\n    tag_80:\n        /* \"Lottery.sol\":4129:4133  true */\n      0x01\n        /* \"Lottery.sol\":4090:4104  lotteryStorage */\n      dup1\n        /* \"Lottery.sol\":4090:4120  lotteryStorage[lotteryStarter] */\n      0x00\n        /* \"Lottery.sol\":4105:4119  lotteryStarter */\n      dup5\n        /* \"Lottery.sol\":4090:4120  lotteryStorage[lotteryStarter] */\n      0xffffffffffffffffffffffffffffffffffffffff\n      and\n      0xffffffffffffffffffffffffffffffffffffffff\n      and\n      dup2\n      mstore\n      0x20\n      add\n      swap1\n      dup2\n      mstore\n      0x20\n      add\n      0x00\n      keccak256\n        /* \"Lottery.sol\":4090:4126  lotteryStorage[lotteryStarter].ended */\n      0x04\n      add\n      0x00\n        /* \"Lottery.sol\":4090:4133  lotteryStorage[lotteryStarter].ended = true */\n      0x0100\n      exp\n      dup2\n      sload\n      dup2\n      0xff\n      mul\n      not\n      and\n      swap1\n      dup4\n      iszero\n      iszero\n      mul\n      or\n      swap1\n      sstore\n      pop\n        /* \"Lottery.sol\":4211:4230  uint256 winnerIndex */\n      0x00\n        /* \"Lottery.sol\":4331:4332  6 */\n      0x06\n        /* \"Lottery.sol\":4282:4297  block.timestamp */\n      timestamp\n        /* \"Lottery.sol\":4299:4315  block.difficulty */\n      difficulty\n        /* \"Lottery.sol\":4265:4316  abi.encodePacked(block.timestamp, block.difficulty) */\n      add(0x20, mload(0x40))\n      tag_83\n      swap3\n      swap2\n      swap1\n      tag_84\n      jump\t// in\n    tag_83:\n      mload(0x40)\n      0x20\n      dup2\n      dup4\n      sub\n      sub\n      dup2\n      mstore\n      swap1\n      0x40\n      mstore\n        /* \"Lottery.sol\":4255:4317  keccak256(abi.encodePacked(block.timestamp, block.difficulty)) */\n      dup1\n      mload\n      swap1\n      0x20\n      add\n      keccak256\n        /* \"Lottery.sol\":4233:4328  uint256(\r... */\n      0x00\n      shr\n        /* \"Lottery.sol\":4233:4332  uint256(\r... */\n      tag_85\n      swap2\n      swap1\n      tag_86\n      jump\t// in\n    tag_85:\n        /* \"Lottery.sol\":4211:4332  uint256 winnerIndex = uint256(\r... */\n      swap1\n      pop\n        /* \"Lottery.sol\":4400:4414  address winner */\n      0x00\n        /* \"Lottery.sol\":4417:4431  lotteryStorage */\n      0x01\n        /* \"Lottery.sol\":4417:4447  lotteryStorage[lotteryStarter] */\n      0x00\n        /* \"Lottery.sol\":4432:4446  lotteryStarter */\n      dup6\n        /* \"Lottery.sol\":4417:4447  lotteryStorage[lotteryStarter] */\n      0xffffffffffffffffffffffffffffffffffffffff\n      and\n      0xffffffffffffffffffffffffffffffffffffffff\n      and\n      dup2\n      mstore\n      0x20\n      add\n      swap1\n      dup2\n      mstore\n      0x20\n      add\n      0x00\n      keccak256\n        /* \"Lottery.sol\":4417:4455  lotteryStorage[lotteryStarter].players */\n      0x00\n      add\n        /* \"Lottery.sol\":4456:4467  winnerIndex */\n      dup3\n        /* \"Lottery.sol\":4417:4468  lotteryStorage[lotteryStarter].players[winnerIndex] */\n      dup2\n      sload\n      dup2\n      lt\n      tag_87\n      jumpi\n      tag_88\n      tag_65\n      jump\t// in\n    tag_88:\n    tag_87:\n      swap1\n      0x00\n      mstore\n      keccak256(0x00, 0x20)\n      add\n      0x00\n      swap1\n      sload\n      swap1\n      0x0100\n      exp\n      swap1\n      div\n      0xffffffffffffffffffffffffffffffffffffffff\n      and\n        /* \"Lottery.sol\":4400:4468  address winner = lotteryStorage[lotteryStarter].players[winnerIndex] */\n      swap1\n      pop\n        /* \"Lottery.sol\":4537:4543  winner */\n      dup1\n        /* \"Lottery.sol\":4529:4553  payable(winner).transfer */\n      0xffffffffffffffffffffffffffffffffffffffff\n      and\n        /* \"Lottery.sol\":4529:4595  payable(winner).transfer(lotteryStorage[lotteryStarter].prizePool) */\n      0x08fc\n        /* \"Lottery.sol\":4554:4568  lotteryStorage */\n      0x01\n        /* \"Lottery.sol\":4554:4584  lotteryStorage[lotteryStarter] */\n      0x00\n        /* \"Lottery.sol\":4569:4583  lotteryStarter */\n      dup8\n        /* \"Lottery.sol\":4554:4584  lotteryStorage[lotteryStarter] */\n      0xffffffffffffffffffffffffffffffffffffffff\n      and\n      0xffffffffffffffffffffffffffffffffffffffff\n      and\n      dup2\n      mstore\n      0x20\n      add\n      swap1\n      dup2\n      mstore\n      0x20\n      add\n      0x00\n      keccak256\n        /* \"Lottery.sol\":4554:4594  lotteryStorage[lotteryStarter].prizePool */\n      0x01\n      add\n      sload\n        /* \"Lottery.sol\":4529:4595  payable(winner).transfer(lotteryStorage[lotteryStarter].prizePool) */\n      swap1\n      dup2\n      iszero\n      mul\n      swap1\n      mload(0x40)\n      0x00\n      mload(0x40)\n      dup1\n      dup4\n      sub\n      dup2\n      dup6\n      dup9\n      dup9\n      call\n      swap4\n      pop\n      pop\n      pop\n      pop\n      iszero\n      dup1\n      iszero\n      tag_91\n      jumpi\n      returndatasize\n      0x00\n      dup1\n      returndatacopy\n      revert(0x00, returndatasize)\n    tag_91:\n      pop\n        /* \"Lottery.sol\":4676:4680  true */\n      0x01\n        /* \"Lottery.sol\":4637:4651  lotteryStorage */\n      dup1\n        /* \"Lottery.sol\":4637:4667  lotteryStorage[lotteryStarter] */\n      0x00\n        /* \"Lottery.sol\":4652:4666  lotteryStarter */\n      dup7\n        /* \"Lottery.sol\":4637:4667  lotteryStorage[lotteryStarter] */\n      0xffffffffffffffffffffffffffffffffffffffff\n      and\n      0xffffffffffffffffffffffffffffffffffffffff\n      and\n      dup2\n      mstore\n      0x20\n      add\n      swap1\n      dup2\n      mstore\n      0x20\n      add\n      0x00\n      keccak256\n        /* \"Lottery.sol\":4637:4673  lotteryStorage[lotteryStarter].ended */\n      0x04\n      add\n      0x00\n        /* \"Lottery.sol\":4637:4680  lotteryStorage[lotteryStarter].ended = true */\n      0x0100\n      exp\n      dup2\n      sload\n      dup2\n      0xff\n      mul\n      not\n      and\n      swap1\n      dup4\n      iszero\n      iszero\n      mul\n      or\n      swap1\n      sstore\n      pop\n        /* \"Lottery.sol\":4773:4784  winnerIndex */\n      dup2\n        /* \"Lottery.sol\":4726:4740  lotteryStorage */\n      0x01\n        /* \"Lottery.sol\":4726:4756  lotteryStorage[lotteryStarter] */\n      0x00\n        /* \"Lottery.sol\":4741:4755  lotteryStarter */\n      dup7\n        /* \"Lottery.sol\":4726:4756  lotteryStorage[lotteryStarter] */\n      0xffffffffffffffffffffffffffffffffffffffff\n      and\n      0xffffffffffffffffffffffffffffffffffffffff\n      and\n      dup2\n      mstore\n      0x20\n      add\n      swap1\n      dup2\n      mstore\n      0x20\n      add\n      0x00\n      keccak256\n        /* \"Lottery.sol\":4726:4770  lotteryStorage[lotteryStarter].winningNumber */\n      0x02\n      add\n        /* \"Lottery.sol\":4726:4784  lotteryStorage[lotteryStarter].winningNumber = winnerIndex */\n      dup2\n      swap1\n      sstore\n      pop\n        /* \"Lottery.sol\":3431:4792  {\r... */\n      pop\n      pop\n        /* \"Lottery.sol\":3363:4792  function end(address lotteryStarter) public isEnded(lotteryStarter) {\r... */\n      pop\n      pop\n      jump\t// out\n        /* \"Lottery.sol\":778:842  mapping(address => mapping(address => bool)) public participants */\n    tag_35:\n      mstore(0x20, 0x02)\n      dup2\n      0x00\n      mstore\n      mstore(0x20, keccak256(0x00, 0x40))\n      dup1\n      0x00\n      mstore\n      keccak256(0x00, 0x40)\n      0x00\n      swap2\n      pop\n      swap2\n      pop\n      swap1\n      sload\n      swap1\n      0x0100\n      exp\n      swap1\n      div\n      0xff\n      and\n      dup2\n      jump\t// out\n        /* \"Lottery.sol\":488:508  address public owner */\n    tag_39:\n      0x00\n      dup1\n      sload\n      swap1\n      0x0100\n      exp\n      swap1\n      div\n      0xffffffffffffffffffffffffffffffffffffffff\n      and\n      dup2\n      jump\t// out\n        /* \"Lottery.sol\":889:1985  function start(uint256 _prizePool, uint256 _deadLine) public payable {\r... */\n    tag_45:\n        /* \"Lottery.sol\":1067:1077  _prizePool */\n      dup2\n        /* \"Lottery.sol\":1055:1064  msg.value */\n      callvalue\n        /* \"Lottery.sol\":1055:1077  msg.value > _prizePool */\n      gt\n        /* \"Lottery.sol\":1033:1155  require(\r... */\n      tag_93\n      jumpi\n      mload(0x40)\n      0x08c379a000000000000000000000000000000000000000000000000000000000\n      dup2\n      mstore\n      0x04\n      add\n      tag_94\n      swap1\n      tag_95\n      jump\t// in\n    tag_94:\n      mload(0x40)\n      dup1\n      swap2\n      sub\n      swap1\n      revert\n    tag_93:\n        /* \"Lottery.sol\":1251:1266  block.timestamp */\n      timestamp\n        /* \"Lottery.sol\":1239:1248  _deadLine */\n      dup2\n        /* \"Lottery.sol\":1239:1266  _deadLine > block.timestamp */\n      gt\n        /* \"Lottery.sol\":1217:1326  require(\r... */\n      tag_96\n      jumpi\n      mload(0x40)\n      0x08c379a000000000000000000000000000000000000000000000000000000000\n      dup2\n      mstore\n      0x04\n      add\n      tag_97\n      swap1\n      tag_98\n      jump\t// in\n    tag_97:\n      mload(0x40)\n      dup1\n      swap2\n      sub\n      swap1\n      revert\n    tag_96:\n        /* \"Lottery.sol\":1443:1444  0 */\n      0x00\n        /* \"Lottery.sol\":1435:1439  1e18 */\n      0x0de0b6b3a7640000\n        /* \"Lottery.sol\":1422:1432  _prizePool */\n      dup4\n        /* \"Lottery.sol\":1422:1439  _prizePool % 1e18 */\n      tag_99\n      swap2\n      swap1\n      tag_86\n      jump\t// in\n    tag_99:\n        /* \"Lottery.sol\":1422:1444  _prizePool % 1e18 == 0 */\n      eq\n        /* \"Lottery.sol\":1400:1517  require(\r... */\n      tag_100\n      jumpi\n      mload(0x40)\n      0x08c379a000000000000000000000000000000000000000000000000000000000\n      dup2\n      mstore\n      0x04\n      add\n      tag_101\n      swap1\n      tag_102\n      jump\t// in\n    tag_101:\n      mload(0x40)\n      dup1\n      swap2\n      sub\n      swap1\n      revert\n    tag_100:\n        /* \"Lottery.sol\":1564:1572  10 ether */\n      0x8ac7230489e80000\n        /* \"Lottery.sol\":1550:1560  _prizePool */\n      dup3\n        /* \"Lottery.sol\":1550:1572  _prizePool >= 10 ether */\n      lt\n      iszero\n        /* \"Lottery.sol\":1528:1642  require(\r... */\n      tag_103\n      jumpi\n      mload(0x40)\n      0x08c379a000000000000000000000000000000000000000000000000000000000\n      dup2\n      mstore\n      0x04\n      add\n      tag_104\n      swap1\n      tag_105\n      jump\t// in\n    tag_104:\n      mload(0x40)\n      dup1\n      swap2\n      sub\n      swap1\n      revert\n    tag_103:\n        /* \"Lottery.sol\":1744:1745  0 */\n      0x00\n        /* \"Lottery.sol\":1730:1746  new address[](0) */\n      0xffffffffffffffff\n      dup2\n      gt\n      iszero\n      tag_106\n      jumpi\n      tag_107\n      tag_108\n      jump\t// in\n    tag_107:\n    tag_106:\n      mload(0x40)\n      swap1\n      dup1\n      dup3\n      mstore\n      dup1\n      0x20\n      mul\n      0x20\n      add\n      dup3\n      add\n      0x40\n      mstore\n      dup1\n      iszero\n      tag_109\n      jumpi\n      dup2\n      0x20\n      add\n      0x20\n      dup3\n      mul\n      dup1\n      calldatasize\n      dup4\n      calldatacopy\n      dup1\n      dup3\n      add\n      swap2\n      pop\n      pop\n      swap1\n      pop\n    tag_109:\n      pop\n        /* \"Lottery.sol\":1693:1707  lotteryStorage */\n      0x01\n        /* \"Lottery.sol\":1693:1719  lotteryStorage[msg.sender] */\n      0x00\n        /* \"Lottery.sol\":1708:1718  msg.sender */\n      caller\n        /* \"Lottery.sol\":1693:1719  lotteryStorage[msg.sender] */\n      0xffffffffffffffffffffffffffffffffffffffff\n      and\n      0xffffffffffffffffffffffffffffffffffffffff\n      and\n      dup2\n      mstore\n      0x20\n      add\n      swap1\n      dup2\n      mstore\n      0x20\n      add\n      0x00\n      keccak256\n        /* \"Lottery.sol\":1693:1727  lotteryStorage[msg.sender].players */\n      0x00\n      add\n        /* \"Lottery.sol\":1693:1746  lotteryStorage[msg.sender].players = new address[](0) */\n      swap1\n      dup1\n      mload\n      swap1\n      0x20\n      add\n      swap1\n      tag_110\n      swap3\n      swap2\n      swap1\n      tag_111\n      jump\t// in\n    tag_110:\n      pop\n        /* \"Lottery.sol\":1796:1806  _prizePool */\n      dup2\n        /* \"Lottery.sol\":1757:1771  lotteryStorage */\n      0x01\n        /* \"Lottery.sol\":1757:1783  lotteryStorage[msg.sender] */\n      0x00\n        /* \"Lottery.sol\":1772:1782  msg.sender */\n      caller\n        /* \"Lottery.sol\":1757:1783  lotteryStorage[msg.sender] */\n      0xffffffffffffffffffffffffffffffffffffffff\n      and\n      0xffffffffffffffffffffffffffffffffffffffff\n      and\n      dup2\n      mstore\n      0x20\n      add\n      swap1\n      dup2\n      mstore\n      0x20\n      add\n      0x00\n      keccak256\n        /* \"Lottery.sol\":1757:1793  lotteryStorage[msg.sender].prizePool */\n      0x01\n      add\n        /* \"Lottery.sol\":1757:1806  lotteryStorage[msg.sender].prizePool = _prizePool */\n      dup2\n      swap1\n      sstore\n      pop\n        /* \"Lottery.sol\":1855:1864  _deadLine */\n      dup1\n        /* \"Lottery.sol\":1817:1831  lotteryStorage */\n      0x01\n        /* \"Lottery.sol\":1817:1843  lotteryStorage[msg.sender] */\n      0x00\n        /* \"Lottery.sol\":1832:1842  msg.sender */\n      caller\n        /* \"Lottery.sol\":1817:1843  lotteryStorage[msg.sender] */\n      0xffffffffffffffffffffffffffffffffffffffff\n      and\n      0xffffffffffffffffffffffffffffffffffffffff\n      and\n      dup2\n      mstore\n      0x20\n      add\n      swap1\n      dup2\n      mstore\n      0x20\n      add\n      0x00\n      keccak256\n        /* \"Lottery.sol\":1817:1852  lotteryStorage[msg.sender].deadLine */\n      0x03\n      add\n        /* \"Lottery.sol\":1817:1864  lotteryStorage[msg.sender].deadLine = _deadLine */\n      dup2\n      swap1\n      sstore\n      pop\n        /* \"Lottery.sol\":1910:1915  false */\n      0x00\n        /* \"Lottery.sol\":1875:1889  lotteryStorage */\n      0x01\n        /* \"Lottery.sol\":1875:1901  lotteryStorage[msg.sender] */\n      0x00\n        /* \"Lottery.sol\":1890:1900  msg.sender */\n      caller\n        /* \"Lottery.sol\":1875:1901  lotteryStorage[msg.sender] */\n      0xffffffffffffffffffffffffffffffffffffffff\n      and\n      0xffffffffffffffffffffffffffffffffffffffff\n      and\n      dup2\n      mstore\n      0x20\n      add\n      swap1\n      dup2\n      mstore\n      0x20\n      add\n      0x00\n      keccak256\n        /* \"Lottery.sol\":1875:1907  lotteryStorage[msg.sender].ended */\n      0x04\n      add\n      0x00\n        /* \"Lottery.sol\":1875:1915  lotteryStorage[msg.sender].ended = false */\n      0x0100\n      exp\n      dup2\n      sload\n      dup2\n      0xff\n      mul\n      not\n      and\n      swap1\n      dup4\n      iszero\n      iszero\n      mul\n      or\n      swap1\n      sstore\n      pop\n        /* \"Lottery.sol\":1926:1940  lotteryStorage */\n      0x01\n        /* \"Lottery.sol\":1926:1952  lotteryStorage[msg.sender] */\n      0x00\n        /* \"Lottery.sol\":1941:1951  msg.sender */\n      caller\n        /* \"Lottery.sol\":1926:1952  lotteryStorage[msg.sender] */\n      0xffffffffffffffffffffffffffffffffffffffff\n      and\n      0xffffffffffffffffffffffffffffffffffffffff\n      and\n      dup2\n      mstore\n      0x20\n      add\n      swap1\n      dup2\n      mstore\n      0x20\n      add\n      0x00\n      keccak256\n        /* \"Lottery.sol\":1926:1960  lotteryStorage[msg.sender].players */\n      0x00\n      add\n        /* \"Lottery.sol\":1966:1976  msg.sender */\n      caller\n        /* \"Lottery.sol\":1926:1977  lotteryStorage[msg.sender].players.push(msg.sender) */\n      swap1\n      dup1\n      0x01\n      dup2\n      sload\n      add\n      dup1\n      dup3\n      sstore\n      dup1\n      swap2\n      pop\n      pop\n      0x01\n      swap1\n      sub\n      swap1\n      0x00\n      mstore\n      keccak256(0x00, 0x20)\n      add\n      0x00\n      swap1\n      swap2\n      swap1\n      swap2\n      swap1\n      swap2\n      0x0100\n      exp\n      dup2\n      sload\n      dup2\n      0xffffffffffffffffffffffffffffffffffffffff\n      mul\n      not\n      and\n      swap1\n      dup4\n      0xffffffffffffffffffffffffffffffffffffffff\n      and\n      mul\n      or\n      swap1\n      sstore\n      pop\n        /* \"Lottery.sol\":889:1985  function start(uint256 _prizePool, uint256 _deadLine) public payable {\r... */\n      pop\n      pop\n      jump\t// out\n        /* \"Lottery.sol\":2047:3303  function participate(address lotteryStarter)\r... */\n    tag_48:\n        /* \"Lottery.sol\":2142:2156  lotteryStarter */\n      dup1\n        /* \"Lottery.sol\":5948:5962  lotteryStorage */\n      0x01\n        /* \"Lottery.sol\":5948:5978  lotteryStorage[lotteryStarter] */\n      0x00\n        /* \"Lottery.sol\":5963:5977  lotteryStarter */\n      dup3\n        /* \"Lottery.sol\":5948:5978  lotteryStorage[lotteryStarter] */\n      0xffffffffffffffffffffffffffffffffffffffff\n      and\n      0xffffffffffffffffffffffffffffffffffffffff\n      and\n      dup2\n      mstore\n      0x20\n      add\n      swap1\n      dup2\n      mstore\n      0x20\n      add\n      0x00\n      keccak256\n        /* \"Lottery.sol\":5948:5984  lotteryStorage[lotteryStarter].ended */\n      0x04\n      add\n      0x00\n      swap1\n      sload\n      swap1\n      0x0100\n      exp\n      swap1\n      div\n      0xff\n      and\n        /* \"Lottery.sol\":5947:5984  !lotteryStorage[lotteryStarter].ended */\n      iszero\n        /* \"Lottery.sol\":5925:6042  require(\r... */\n      tag_114\n      jumpi\n      mload(0x40)\n      0x08c379a000000000000000000000000000000000000000000000000000000000\n      dup2\n      mstore\n      0x04\n      add\n      tag_115\n      swap1\n      tag_72\n      jump\t// in\n    tag_115:\n      mload(0x40)\n      dup1\n      swap2\n      sub\n      swap1\n      revert\n    tag_114:\n        /* \"Lottery.sol\":2265:2279  lotteryStorage */\n      0x01\n        /* \"Lottery.sol\":2265:2295  lotteryStorage[lotteryStarter] */\n      0x00\n        /* \"Lottery.sol\":2280:2294  lotteryStarter */\n      dup4\n        /* \"Lottery.sol\":2265:2295  lotteryStorage[lotteryStarter] */\n      0xffffffffffffffffffffffffffffffffffffffff\n      and\n      0xffffffffffffffffffffffffffffffffffffffff\n      and\n      dup2\n      mstore\n      0x20\n      add\n      swap1\n      dup2\n      mstore\n      0x20\n      add\n      0x00\n      keccak256\n        /* \"Lottery.sol\":2265:2304  lotteryStorage[lotteryStarter].deadLine */\n      0x03\n      add\n      sload\n        /* \"Lottery.sol\":2247:2262  block.timestamp */\n      timestamp\n        /* \"Lottery.sol\":2247:2304  block.timestamp < lotteryStorage[lotteryStarter].deadLine */\n      lt\n        /* \"Lottery.sol\":2225:2372  require(\r... */\n      tag_117\n      jumpi\n      mload(0x40)\n      0x08c379a000000000000000000000000000000000000000000000000000000000\n      dup2\n      mstore\n      0x04\n      add\n      tag_118\n      swap1\n      tag_119\n      jump\t// in\n    tag_118:\n      mload(0x40)\n      dup1\n      swap2\n      sub\n      swap1\n      revert\n    tag_117:\n        /* \"Lottery.sol\":2498:2499  5 */\n      0x05\n        /* \"Lottery.sol\":2449:2463  lotteryStorage */\n      0x01\n        /* \"Lottery.sol\":2449:2479  lotteryStorage[lotteryStarter] */\n      0x00\n        /* \"Lottery.sol\":2464:2478  lotteryStarter */\n      dup5\n        /* \"Lottery.sol\":2449:2479  lotteryStorage[lotteryStarter] */\n      0xffffffffffffffffffffffffffffffffffffffff\n      and\n      0xffffffffffffffffffffffffffffffffffffffff\n      and\n      dup2\n      mstore\n      0x20\n      add\n      swap1\n      dup2\n      mstore\n      0x20\n      add\n      0x00\n      keccak256\n        /* \"Lottery.sol\":2449:2487  lotteryStorage[lotteryStarter].players */\n      0x00\n      add\n        /* \"Lottery.sol\":2449:2494  lotteryStorage[lotteryStarter].players.length */\n      dup1\n      sload\n      swap1\n      pop\n        /* \"Lottery.sol\":2449:2499  lotteryStorage[lotteryStarter].players.length <= 5 */\n      gt\n      iszero\n        /* \"Lottery.sol\":2427:2544  require(\r... */\n      tag_120\n      jumpi\n      mload(0x40)\n      0x08c379a000000000000000000000000000000000000000000000000000000000\n      dup2\n      mstore\n      0x04\n      add\n      tag_121\n      swap1\n      tag_122\n      jump\t// in\n    tag_121:\n      mload(0x40)\n      dup1\n      swap2\n      sub\n      swap1\n      revert\n    tag_120:\n        /* \"Lottery.sol\":2647:2648  0 */\n      0x00\n        /* \"Lottery.sol\":2639:2643  1e18 */\n      0x0de0b6b3a7640000\n        /* \"Lottery.sol\":2627:2636  msg.value */\n      callvalue\n        /* \"Lottery.sol\":2627:2643  msg.value % 1e18 */\n      tag_123\n      swap2\n      swap1\n      tag_86\n      jump\t// in\n    tag_123:\n        /* \"Lottery.sol\":2627:2648  msg.value % 1e18 == 0 */\n      eq\n        /* \"Lottery.sol\":2605:2713  require(\r... */\n      tag_124\n      jumpi\n      mload(0x40)\n      0x08c379a000000000000000000000000000000000000000000000000000000000\n      dup2\n      mstore\n      0x04\n      add\n      tag_125\n      swap1\n      tag_126\n      jump\t// in\n    tag_125:\n      mload(0x40)\n      dup1\n      swap2\n      sub\n      swap1\n      revert\n    tag_124:\n        /* \"Lottery.sol\":2808:2820  participants */\n      0x02\n        /* \"Lottery.sol\":2808:2836  participants[lotteryStarter] */\n      0x00\n        /* \"Lottery.sol\":2821:2835  lotteryStarter */\n      dup4\n        /* \"Lottery.sol\":2808:2836  participants[lotteryStarter] */\n      0xffffffffffffffffffffffffffffffffffffffff\n      and\n      0xffffffffffffffffffffffffffffffffffffffff\n      and\n      dup2\n      mstore\n      0x20\n      add\n      swap1\n      dup2\n      mstore\n      0x20\n      add\n      0x00\n      keccak256\n        /* \"Lottery.sol\":2808:2848  participants[lotteryStarter][msg.sender] */\n      0x00\n        /* \"Lottery.sol\":2837:2847  msg.sender */\n      caller\n        /* \"Lottery.sol\":2808:2848  participants[lotteryStarter][msg.sender] */\n      0xffffffffffffffffffffffffffffffffffffffff\n      and\n      0xffffffffffffffffffffffffffffffffffffffff\n      and\n      dup2\n      mstore\n      0x20\n      add\n      swap1\n      dup2\n      mstore\n      0x20\n      add\n      0x00\n      keccak256\n      0x00\n      swap1\n      sload\n      swap1\n      0x0100\n      exp\n      swap1\n      div\n      0xff\n      and\n        /* \"Lottery.sol\":2807:2848  !participants[lotteryStarter][msg.sender] */\n      iszero\n        /* \"Lottery.sol\":2785:2922  require(\r... */\n      tag_127\n      jumpi\n      mload(0x40)\n      0x08c379a000000000000000000000000000000000000000000000000000000000\n      dup2\n      mstore\n      0x04\n      add\n      tag_128\n      swap1\n      tag_129\n      jump\t// in\n    tag_128:\n      mload(0x40)\n      dup1\n      swap2\n      sub\n      swap1\n      revert\n    tag_127:\n        /* \"Lottery.sol\":2979:2993  lotteryStorage */\n      0x01\n        /* \"Lottery.sol\":2979:3009  lotteryStorage[lotteryStarter] */\n      0x00\n        /* \"Lottery.sol\":2994:3008  lotteryStarter */\n      dup4\n        /* \"Lottery.sol\":2979:3009  lotteryStorage[lotteryStarter] */\n      0xffffffffffffffffffffffffffffffffffffffff\n      and\n      0xffffffffffffffffffffffffffffffffffffffff\n      and\n      dup2\n      mstore\n      0x20\n      add\n      swap1\n      dup2\n      mstore\n      0x20\n      add\n      0x00\n      keccak256\n        /* \"Lottery.sol\":2979:3017  lotteryStorage[lotteryStarter].players */\n      0x00\n      add\n        /* \"Lottery.sol\":3023:3033  msg.sender */\n      caller\n        /* \"Lottery.sol\":2979:3034  lotteryStorage[lotteryStarter].players.push(msg.sender) */\n      swap1\n      dup1\n      0x01\n      dup2\n      sload\n      add\n      dup1\n      dup3\n      sstore\n      dup1\n      swap2\n      pop\n      pop\n      0x01\n      swap1\n      sub\n      swap1\n      0x00\n      mstore\n      keccak256(0x00, 0x20)\n      add\n      0x00\n      swap1\n      swap2\n      swap1\n      swap2\n      swap1\n      swap2\n      0x0100\n      exp\n      dup2\n      sload\n      dup2\n      0xffffffffffffffffffffffffffffffffffffffff\n      mul\n      not\n      and\n      swap1\n      dup4\n      0xffffffffffffffffffffffffffffffffffffffff\n      and\n      mul\n      or\n      swap1\n      sstore\n      pop\n        /* \"Lottery.sol\":3150:3159  msg.value */\n      callvalue\n        /* \"Lottery.sol\":3106:3120  lotteryStorage */\n      0x01\n        /* \"Lottery.sol\":3106:3136  lotteryStorage[lotteryStarter] */\n      0x00\n        /* \"Lottery.sol\":3121:3135  lotteryStarter */\n      dup5\n        /* \"Lottery.sol\":3106:3136  lotteryStorage[lotteryStarter] */\n      0xffffffffffffffffffffffffffffffffffffffff\n      and\n      0xffffffffffffffffffffffffffffffffffffffff\n      and\n      dup2\n      mstore\n      0x20\n      add\n      swap1\n      dup2\n      mstore\n      0x20\n      add\n      0x00\n      keccak256\n        /* \"Lottery.sol\":3106:3146  lotteryStorage[lotteryStarter].prizePool */\n      0x01\n      add\n      0x00\n        /* \"Lottery.sol\":3106:3159  lotteryStorage[lotteryStarter].prizePool += msg.value */\n      dup3\n      dup3\n      sload\n      tag_131\n      swap2\n      swap1\n      tag_132\n      jump\t// in\n    tag_131:\n      swap3\n      pop\n      pop\n      dup2\n      swap1\n      sstore\n      pop\n        /* \"Lottery.sol\":3291:3295  true */\n      0x01\n        /* \"Lottery.sol\":3248:3260  participants */\n      0x02\n        /* \"Lottery.sol\":3248:3276  participants[lotteryStarter] */\n      0x00\n        /* \"Lottery.sol\":3261:3275  lotteryStarter */\n      dup5\n        /* \"Lottery.sol\":3248:3276  participants[lotteryStarter] */\n      0xffffffffffffffffffffffffffffffffffffffff\n      and\n      0xffffffffffffffffffffffffffffffffffffffff\n      and\n      dup2\n      mstore\n      0x20\n      add\n      swap1\n      dup2\n      mstore\n      0x20\n      add\n      0x00\n      keccak256\n        /* \"Lottery.sol\":3248:3288  participants[lotteryStarter][msg.sender] */\n      0x00\n        /* \"Lottery.sol\":3277:3287  msg.sender */\n      caller\n        /* \"Lottery.sol\":3248:3288  participants[lotteryStarter][msg.sender] */\n      0xffffffffffffffffffffffffffffffffffffffff\n      and\n      0xffffffffffffffffffffffffffffffffffffffff\n      and\n      dup2\n      mstore\n      0x20\n      add\n      swap1\n      dup2\n      mstore\n      0x20\n      add\n      0x00\n      keccak256\n      0x00\n        /* \"Lottery.sol\":3248:3295  participants[lotteryStarter][msg.sender] = true */\n      0x0100\n      exp\n      dup2\n      sload\n      dup2\n      0xff\n      mul\n      not\n      and\n      swap1\n      dup4\n      iszero\n      iszero\n      mul\n      or\n      swap1\n      sstore\n      pop\n        /* \"Lottery.sol\":2047:3303  function participate(address lotteryStarter)\r... */\n      pop\n      pop\n      jump\t// out\n    tag_111:\n      dup3\n      dup1\n      sload\n      dup3\n      dup3\n      sstore\n      swap1\n      0x00\n      mstore\n      keccak256(0x00, 0x20)\n      swap1\n      dup2\n      add\n      swap3\n      dup3\n      iszero\n      tag_133\n      jumpi\n      swap2\n      0x20\n      mul\n      dup3\n      add\n    tag_134:\n      dup3\n      dup2\n      gt\n      iszero\n      tag_135\n      jumpi\n      dup3\n      mload\n      dup3\n      exp(0x0100, 0x00)\n      dup2\n      sload\n      dup2\n      0xffffffffffffffffffffffffffffffffffffffff\n      mul\n      not\n      and\n      swap1\n      dup4\n      0xffffffffffffffffffffffffffffffffffffffff\n      and\n      mul\n      or\n      swap1\n      sstore\n      pop\n      swap2\n      0x20\n      add\n      swap2\n      swap1\n      0x01\n      add\n      swap1\n      jump(tag_134)\n    tag_135:\n    tag_133:\n      pop\n      swap1\n      pop\n      tag_136\n      swap2\n      swap1\n      tag_137\n      jump\t// in\n    tag_136:\n      pop\n      swap1\n      jump\t// out\n    tag_137:\n    tag_138:\n      dup1\n      dup3\n      gt\n      iszero\n      tag_139\n      jumpi\n      0x00\n      dup2\n      0x00\n      swap1\n      sstore\n      pop\n      0x01\n      add\n      jump(tag_138)\n    tag_139:\n      pop\n      swap1\n      jump\t// out\n        /* \"#utility.yul\":7:146   */\n    tag_141:\n        /* \"#utility.yul\":53:58   */\n      0x00\n        /* \"#utility.yul\":91:97   */\n      dup2\n        /* \"#utility.yul\":78:98   */\n      calldataload\n        /* \"#utility.yul\":69:98   */\n      swap1\n      pop\n        /* \"#utility.yul\":107:140   */\n      tag_143\n        /* \"#utility.yul\":134:139   */\n      dup2\n        /* \"#utility.yul\":107:140   */\n      tag_144\n      jump\t// in\n    tag_143:\n        /* \"#utility.yul\":7:146   */\n      swap3\n      swap2\n      pop\n      pop\n      jump\t// out\n        /* \"#utility.yul\":152:291   */\n    tag_145:\n        /* \"#utility.yul\":198:203   */\n      0x00\n        /* \"#utility.yul\":236:242   */\n      dup2\n        /* \"#utility.yul\":223:243   */\n      calldataload\n        /* \"#utility.yul\":214:243   */\n      swap1\n      pop\n        /* \"#utility.yul\":252:285   */\n      tag_147\n        /* \"#utility.yul\":279:284   */\n      dup2\n        /* \"#utility.yul\":252:285   */\n      tag_148\n      jump\t// in\n    tag_147:\n        /* \"#utility.yul\":152:291   */\n      swap3\n      swap2\n      pop\n      pop\n      jump\t// out\n        /* \"#utility.yul\":297:626   */\n    tag_17:\n        /* \"#utility.yul\":356:362   */\n      0x00\n        /* \"#utility.yul\":405:407   */\n      0x20\n        /* \"#utility.yul\":393:402   */\n      dup3\n        /* \"#utility.yul\":384:391   */\n      dup5\n        /* \"#utility.yul\":380:403   */\n      sub\n        /* \"#utility.yul\":376:408   */\n      slt\n        /* \"#utility.yul\":373:492   */\n      iszero\n      tag_150\n      jumpi\n        /* \"#utility.yul\":411:490   */\n      tag_151\n      tag_152\n      jump\t// in\n    tag_151:\n        /* \"#utility.yul\":373:492   */\n    tag_150:\n        /* \"#utility.yul\":531:532   */\n      0x00\n        /* \"#utility.yul\":556:609   */\n      tag_153\n        /* \"#utility.yul\":601:608   */\n      dup5\n        /* \"#utility.yul\":592:598   */\n      dup3\n        /* \"#utility.yul\":581:590   */\n      dup6\n        /* \"#utility.yul\":577:599   */\n      add\n        /* \"#utility.yul\":556:609   */\n      tag_141\n      jump\t// in\n    tag_153:\n        /* \"#utility.yul\":546:609   */\n      swap2\n      pop\n        /* \"#utility.yul\":502:619   */\n      pop\n        /* \"#utility.yul\":297:626   */\n      swap3\n      swap2\n      pop\n      pop\n      jump\t// out\n        /* \"#utility.yul\":632:1106   */\n    tag_34:\n        /* \"#utility.yul\":700:706   */\n      0x00\n        /* \"#utility.yul\":708:714   */\n      dup1\n        /* \"#utility.yul\":757:759   */\n      0x40\n        /* \"#utility.yul\":745:754   */\n      dup4\n        /* \"#utility.yul\":736:743   */\n      dup6\n        /* \"#utility.yul\":732:755   */\n      sub\n        /* \"#utility.yul\":728:760   */\n      slt\n        /* \"#utility.yul\":725:844   */\n      iszero\n      tag_155\n      jumpi\n        /* \"#utility.yul\":763:842   */\n      tag_156\n      tag_152\n      jump\t// in\n    tag_156:\n        /* \"#utility.yul\":725:844   */\n    tag_155:\n        /* \"#utility.yul\":883:884   */\n      0x00\n        /* \"#utility.yul\":908:961   */\n      tag_157\n        /* \"#utility.yul\":953:960   */\n      dup6\n        /* \"#utility.yul\":944:950   */\n      dup3\n        /* \"#utility.yul\":933:942   */\n      dup7\n        /* \"#utility.yul\":929:951   */\n      add\n        /* \"#utility.yul\":908:961   */\n      tag_141\n      jump\t// in\n    tag_157:\n        /* \"#utility.yul\":898:961   */\n      swap3\n      pop\n        /* \"#utility.yul\":854:971   */\n      pop\n        /* \"#utility.yul\":1010:1012   */\n      0x20\n        /* \"#utility.yul\":1036:1089   */\n      tag_158\n        /* \"#utility.yul\":1081:1088   */\n      dup6\n        /* \"#utility.yul\":1072:1078   */\n      dup3\n        /* \"#utility.yul\":1061:1070   */\n      dup7\n        /* \"#utility.yul\":1057:1079   */\n      add\n        /* \"#utility.yul\":1036:1089   */\n      tag_141\n      jump\t// in\n    tag_158:\n        /* \"#utility.yul\":1026:1089   */\n      swap2\n      pop\n        /* \"#utility.yul\":981:1099   */\n      pop\n        /* \"#utility.yul\":632:1106   */\n      swap3\n      pop\n      swap3\n      swap1\n      pop\n      jump\t// out\n        /* \"#utility.yul\":1112:1586   */\n    tag_44:\n        /* \"#utility.yul\":1180:1186   */\n      0x00\n        /* \"#utility.yul\":1188:1194   */\n      dup1\n        /* \"#utility.yul\":1237:1239   */\n      0x40\n        /* \"#utility.yul\":1225:1234   */\n      dup4\n        /* \"#utility.yul\":1216:1223   */\n      dup6\n        /* \"#utility.yul\":1212:1235   */\n      sub\n        /* \"#utility.yul\":1208:1240   */\n      slt\n        /* \"#utility.yul\":1205:1324   */\n      iszero\n      tag_160\n      jumpi\n        /* \"#utility.yul\":1243:1322   */\n      tag_161\n      tag_152\n      jump\t// in\n    tag_161:\n        /* \"#utility.yul\":1205:1324   */\n    tag_160:\n        /* \"#utility.yul\":1363:1364   */\n      0x00\n        /* \"#utility.yul\":1388:1441   */\n      tag_162\n        /* \"#utility.yul\":1433:1440   */\n      dup6\n        /* \"#utility.yul\":1424:1430   */\n      dup3\n        /* \"#utility.yul\":1413:1422   */\n      dup7\n        /* \"#utility.yul\":1409:1431   */\n      add\n        /* \"#utility.yul\":1388:1441   */\n      tag_145\n      jump\t// in\n    tag_162:\n        /* \"#utility.yul\":1378:1441   */\n      swap3\n      pop\n        /* \"#utility.yul\":1334:1451   */\n      pop\n        /* \"#utility.yul\":1490:1492   */\n      0x20\n        /* \"#utility.yul\":1516:1569   */\n      tag_163\n        /* \"#utility.yul\":1561:1568   */\n      dup6\n        /* \"#utility.yul\":1552:1558   */\n      dup3\n        /* \"#utility.yul\":1541:1550   */\n      dup7\n        /* \"#utility.yul\":1537:1559   */\n      add\n        /* \"#utility.yul\":1516:1569   */\n      tag_145\n      jump\t// in\n    tag_163:\n        /* \"#utility.yul\":1506:1569   */\n      swap2\n      pop\n        /* \"#utility.yul\":1461:1579   */\n      pop\n        /* \"#utility.yul\":1112:1586   */\n      swap3\n      pop\n      swap3\n      swap1\n      pop\n      jump\t// out\n        /* \"#utility.yul\":1592:1710   */\n    tag_164:\n        /* \"#utility.yul\":1679:1703   */\n      tag_166\n        /* \"#utility.yul\":1697:1702   */\n      dup2\n        /* \"#utility.yul\":1679:1703   */\n      tag_167\n      jump\t// in\n    tag_166:\n        /* \"#utility.yul\":1674:1677   */\n      dup3\n        /* \"#utility.yul\":1667:1704   */\n      mstore\n        /* \"#utility.yul\":1592:1710   */\n      pop\n      pop\n      jump\t// out\n        /* \"#utility.yul\":1716:1825   */\n    tag_168:\n        /* \"#utility.yul\":1797:1818   */\n      tag_170\n        /* \"#utility.yul\":1812:1817   */\n      dup2\n        /* \"#utility.yul\":1797:1818   */\n      tag_171\n      jump\t// in\n    tag_170:\n        /* \"#utility.yul\":1792:1795   */\n      dup3\n        /* \"#utility.yul\":1785:1819   */\n      mstore\n        /* \"#utility.yul\":1716:1825   */\n      pop\n      pop\n      jump\t// out\n        /* \"#utility.yul\":1831:2197   */\n    tag_172:\n        /* \"#utility.yul\":1973:1976   */\n      0x00\n        /* \"#utility.yul\":1994:2061   */\n      tag_174\n        /* \"#utility.yul\":2058:2060   */\n      0x20\n        /* \"#utility.yul\":2053:2056   */\n      dup4\n        /* \"#utility.yul\":1994:2061   */\n      tag_175\n      jump\t// in\n    tag_174:\n        /* \"#utility.yul\":1987:2061   */\n      swap2\n      pop\n        /* \"#utility.yul\":2070:2163   */\n      tag_176\n        /* \"#utility.yul\":2159:2162   */\n      dup3\n        /* \"#utility.yul\":2070:2163   */\n      tag_177\n      jump\t// in\n    tag_176:\n        /* \"#utility.yul\":2188:2190   */\n      0x20\n        /* \"#utility.yul\":2183:2186   */\n      dup3\n        /* \"#utility.yul\":2179:2191   */\n      add\n        /* \"#utility.yul\":2172:2191   */\n      swap1\n      pop\n        /* \"#utility.yul\":1831:2197   */\n      swap2\n      swap1\n      pop\n      jump\t// out\n        /* \"#utility.yul\":2203:2569   */\n    tag_178:\n        /* \"#utility.yul\":2345:2348   */\n      0x00\n        /* \"#utility.yul\":2366:2433   */\n      tag_180\n        /* \"#utility.yul\":2430:2432   */\n      0x11\n        /* \"#utility.yul\":2425:2428   */\n      dup4\n        /* \"#utility.yul\":2366:2433   */\n      tag_175\n      jump\t// in\n    tag_180:\n        /* \"#utility.yul\":2359:2433   */\n      swap2\n      pop\n        /* \"#utility.yul\":2442:2535   */\n      tag_181\n        /* \"#utility.yul\":2531:2534   */\n      dup3\n        /* \"#utility.yul\":2442:2535   */\n      tag_182\n      jump\t// in\n    tag_181:\n        /* \"#utility.yul\":2560:2562   */\n      0x20\n        /* \"#utility.yul\":2555:2558   */\n      dup3\n        /* \"#utility.yul\":2551:2563   */\n      add\n        /* \"#utility.yul\":2544:2563   */\n      swap1\n      pop\n        /* \"#utility.yul\":2203:2569   */\n      swap2\n      swap1\n      pop\n      jump\t// out\n        /* \"#utility.yul\":2575:2941   */\n    tag_183:\n        /* \"#utility.yul\":2717:2720   */\n      0x00\n        /* \"#utility.yul\":2738:2805   */\n      tag_185\n        /* \"#utility.yul\":2802:2804   */\n      0x2d\n        /* \"#utility.yul\":2797:2800   */\n      dup4\n        /* \"#utility.yul\":2738:2805   */\n      tag_175\n      jump\t// in\n    tag_185:\n        /* \"#utility.yul\":2731:2805   */\n      swap2\n      pop\n        /* \"#utility.yul\":2814:2907   */\n      tag_186\n        /* \"#utility.yul\":2903:2906   */\n      dup3\n        /* \"#utility.yul\":2814:2907   */\n      tag_187\n      jump\t// in\n    tag_186:\n        /* \"#utility.yul\":2932:2934   */\n      0x40\n        /* \"#utility.yul\":2927:2930   */\n      dup3\n        /* \"#utility.yul\":2923:2935   */\n      add\n        /* \"#utility.yul\":2916:2935   */\n      swap1\n      pop\n        /* \"#utility.yul\":2575:2941   */\n      swap2\n      swap1\n      pop\n      jump\t// out\n        /* \"#utility.yul\":2947:3313   */\n    tag_188:\n        /* \"#utility.yul\":3089:3092   */\n      0x00\n        /* \"#utility.yul\":3110:3177   */\n      tag_190\n        /* \"#utility.yul\":3174:3176   */\n      0x2e\n        /* \"#utility.yul\":3169:3172   */\n      dup4\n        /* \"#utility.yul\":3110:3177   */\n      tag_175\n      jump\t// in\n    tag_190:\n        /* \"#utility.yul\":3103:3177   */\n      swap2\n      pop\n        /* \"#utility.yul\":3186:3279   */\n      tag_191\n        /* \"#utility.yul\":3275:3278   */\n      dup3\n        /* \"#utility.yul\":3186:3279   */\n      tag_192\n      jump\t// in\n    tag_191:\n        /* \"#utility.yul\":3304:3306   */\n      0x40\n        /* \"#utility.yul\":3299:3302   */\n      dup3\n        /* \"#utility.yul\":3295:3307   */\n      add\n        /* \"#utility.yul\":3288:3307   */\n      swap1\n      pop\n        /* \"#utility.yul\":2947:3313   */\n      swap2\n      swap1\n      pop\n      jump\t// out\n        /* \"#utility.yul\":3319:3685   */\n    tag_193:\n        /* \"#utility.yul\":3461:3464   */\n      0x00\n        /* \"#utility.yul\":3482:3549   */\n      tag_195\n        /* \"#utility.yul\":3546:3548   */\n      0x22\n        /* \"#utility.yul\":3541:3544   */\n      dup4\n        /* \"#utility.yul\":3482:3549   */\n      tag_175\n      jump\t// in\n    tag_195:\n        /* \"#utility.yul\":3475:3549   */\n      swap2\n      pop\n        /* \"#utility.yul\":3558:3651   */\n      tag_196\n        /* \"#utility.yul\":3647:3650   */\n      dup3\n        /* \"#utility.yul\":3558:3651   */\n      tag_197\n      jump\t// in\n    tag_196:\n        /* \"#utility.yul\":3676:3678   */\n      0x40\n        /* \"#utility.yul\":3671:3674   */\n      dup3\n        /* \"#utility.yul\":3667:3679   */\n      add\n        /* \"#utility.yul\":3660:3679   */\n      swap1\n      pop\n        /* \"#utility.yul\":3319:3685   */\n      swap2\n      swap1\n      pop\n      jump\t// out\n        /* \"#utility.yul\":3691:4057   */\n    tag_198:\n        /* \"#utility.yul\":3833:3836   */\n      0x00\n        /* \"#utility.yul\":3854:3921   */\n      tag_200\n        /* \"#utility.yul\":3918:3920   */\n      0x2a\n        /* \"#utility.yul\":3913:3916   */\n      dup4\n        /* \"#utility.yul\":3854:3921   */\n      tag_175\n      jump\t// in\n    tag_200:\n        /* \"#utility.yul\":3847:3921   */\n      swap2\n      pop\n        /* \"#utility.yul\":3930:4023   */\n      tag_201\n        /* \"#utility.yul\":4019:4022   */\n      dup3\n        /* \"#utility.yul\":3930:4023   */\n      tag_202\n      jump\t// in\n    tag_201:\n        /* \"#utility.yul\":4048:4050   */\n      0x40\n        /* \"#utility.yul\":4043:4046   */\n      dup3\n        /* \"#utility.yul\":4039:4051   */\n      add\n        /* \"#utility.yul\":4032:4051   */\n      swap1\n      pop\n        /* \"#utility.yul\":3691:4057   */\n      swap2\n      swap1\n      pop\n      jump\t// out\n        /* \"#utility.yul\":4063:4429   */\n    tag_203:\n        /* \"#utility.yul\":4205:4208   */\n      0x00\n        /* \"#utility.yul\":4226:4293   */\n      tag_205\n        /* \"#utility.yul\":4290:4292   */\n      0x1e\n        /* \"#utility.yul\":4285:4288   */\n      dup4\n        /* \"#utility.yul\":4226:4293   */\n      tag_175\n      jump\t// in\n    tag_205:\n        /* \"#utility.yul\":4219:4293   */\n      swap2\n      pop\n        /* \"#utility.yul\":4302:4395   */\n      tag_206\n        /* \"#utility.yul\":4391:4394   */\n      dup3\n        /* \"#utility.yul\":4302:4395   */\n      tag_207\n      jump\t// in\n    tag_206:\n        /* \"#utility.yul\":4420:4422   */\n      0x20\n        /* \"#utility.yul\":4415:4418   */\n      dup3\n        /* \"#utility.yul\":4411:4423   */\n      add\n        /* \"#utility.yul\":4404:4423   */\n      swap1\n      pop\n        /* \"#utility.yul\":4063:4429   */\n      swap2\n      swap1\n      pop\n      jump\t// out\n        /* \"#utility.yul\":4435:4801   */\n    tag_208:\n        /* \"#utility.yul\":4577:4580   */\n      0x00\n        /* \"#utility.yul\":4598:4665   */\n      tag_210\n        /* \"#utility.yul\":4662:4664   */\n      0x2d\n        /* \"#utility.yul\":4657:4660   */\n      dup4\n        /* \"#utility.yul\":4598:4665   */\n      tag_175\n      jump\t// in\n    tag_210:\n        /* \"#utility.yul\":4591:4665   */\n      swap2\n      pop\n        /* \"#utility.yul\":4674:4767   */\n      tag_211\n        /* \"#utility.yul\":4763:4766   */\n      dup3\n        /* \"#utility.yul\":4674:4767   */\n      tag_212\n      jump\t// in\n    tag_211:\n        /* \"#utility.yul\":4792:4794   */\n      0x40\n        /* \"#utility.yul\":4787:4790   */\n      dup3\n        /* \"#utility.yul\":4783:4795   */\n      add\n        /* \"#utility.yul\":4776:4795   */\n      swap1\n      pop\n        /* \"#utility.yul\":4435:4801   */\n      swap2\n      swap1\n      pop\n      jump\t// out\n        /* \"#utility.yul\":4807:5173   */\n    tag_213:\n        /* \"#utility.yul\":4949:4952   */\n      0x00\n        /* \"#utility.yul\":4970:5037   */\n      tag_215\n        /* \"#utility.yul\":5034:5036   */\n      0x20\n        /* \"#utility.yul\":5029:5032   */\n      dup4\n        /* \"#utility.yul\":4970:5037   */\n      tag_175\n      jump\t// in\n    tag_215:\n        /* \"#utility.yul\":4963:5037   */\n      swap2\n      pop\n        /* \"#utility.yul\":5046:5139   */\n      tag_216\n        /* \"#utility.yul\":5135:5138   */\n      dup3\n        /* \"#utility.yul\":5046:5139   */\n      tag_217\n      jump\t// in\n    tag_216:\n        /* \"#utility.yul\":5164:5166   */\n      0x20\n        /* \"#utility.yul\":5159:5162   */\n      dup3\n        /* \"#utility.yul\":5155:5167   */\n      add\n        /* \"#utility.yul\":5148:5167   */\n      swap1\n      pop\n        /* \"#utility.yul\":4807:5173   */\n      swap2\n      swap1\n      pop\n      jump\t// out\n        /* \"#utility.yul\":5179:5545   */\n    tag_218:\n        /* \"#utility.yul\":5321:5324   */\n      0x00\n        /* \"#utility.yul\":5342:5409   */\n      tag_220\n        /* \"#utility.yul\":5406:5408   */\n      0x25\n        /* \"#utility.yul\":5401:5404   */\n      dup4\n        /* \"#utility.yul\":5342:5409   */\n      tag_175\n      jump\t// in\n    tag_220:\n        /* \"#utility.yul\":5335:5409   */\n      swap2\n      pop\n        /* \"#utility.yul\":5418:5511   */\n      tag_221\n        /* \"#utility.yul\":5507:5510   */\n      dup3\n        /* \"#utility.yul\":5418:5511   */\n      tag_222\n      jump\t// in\n    tag_221:\n        /* \"#utility.yul\":5536:5538   */\n      0x40\n        /* \"#utility.yul\":5531:5534   */\n      dup3\n        /* \"#utility.yul\":5527:5539   */\n      add\n        /* \"#utility.yul\":5520:5539   */\n      swap1\n      pop\n        /* \"#utility.yul\":5179:5545   */\n      swap2\n      swap1\n      pop\n      jump\t// out\n        /* \"#utility.yul\":5551:5917   */\n    tag_223:\n        /* \"#utility.yul\":5693:5696   */\n      0x00\n        /* \"#utility.yul\":5714:5781   */\n      tag_225\n        /* \"#utility.yul\":5778:5780   */\n      0x1f\n        /* \"#utility.yul\":5773:5776   */\n      dup4\n        /* \"#utility.yul\":5714:5781   */\n      tag_175\n      jump\t// in\n    tag_225:\n        /* \"#utility.yul\":5707:5781   */\n      swap2\n      pop\n        /* \"#utility.yul\":5790:5883   */\n      tag_226\n        /* \"#utility.yul\":5879:5882   */\n      dup3\n        /* \"#utility.yul\":5790:5883   */\n      tag_227\n      jump\t// in\n    tag_226:\n        /* \"#utility.yul\":5908:5910   */\n      0x20\n        /* \"#utility.yul\":5903:5906   */\n      dup3\n        /* \"#utility.yul\":5899:5911   */\n      add\n        /* \"#utility.yul\":5892:5911   */\n      swap1\n      pop\n        /* \"#utility.yul\":5551:5917   */\n      swap2\n      swap1\n      pop\n      jump\t// out\n        /* \"#utility.yul\":5923:6289   */\n    tag_228:\n        /* \"#utility.yul\":6065:6068   */\n      0x00\n        /* \"#utility.yul\":6086:6153   */\n      tag_230\n        /* \"#utility.yul\":6150:6152   */\n      0x32\n        /* \"#utility.yul\":6145:6148   */\n      dup4\n        /* \"#utility.yul\":6086:6153   */\n      tag_175\n      jump\t// in\n    tag_230:\n        /* \"#utility.yul\":6079:6153   */\n      swap2\n      pop\n        /* \"#utility.yul\":6162:6255   */\n      tag_231\n        /* \"#utility.yul\":6251:6254   */\n      dup3\n        /* \"#utility.yul\":6162:6255   */\n      tag_232\n      jump\t// in\n    tag_231:\n        /* \"#utility.yul\":6280:6282   */\n      0x40\n        /* \"#utility.yul\":6275:6278   */\n      dup3\n        /* \"#utility.yul\":6271:6283   */\n      add\n        /* \"#utility.yul\":6264:6283   */\n      swap1\n      pop\n        /* \"#utility.yul\":5923:6289   */\n      swap2\n      swap1\n      pop\n      jump\t// out\n        /* \"#utility.yul\":6295:6661   */\n    tag_233:\n        /* \"#utility.yul\":6437:6440   */\n      0x00\n        /* \"#utility.yul\":6458:6525   */\n      tag_235\n        /* \"#utility.yul\":6522:6524   */\n      0x22\n        /* \"#utility.yul\":6517:6520   */\n      dup4\n        /* \"#utility.yul\":6458:6525   */\n      tag_175\n      jump\t// in\n    tag_235:\n        /* \"#utility.yul\":6451:6525   */\n      swap2\n      pop\n        /* \"#utility.yul\":6534:6627   */\n      tag_236\n        /* \"#utility.yul\":6623:6626   */\n      dup3\n        /* \"#utility.yul\":6534:6627   */\n      tag_237\n      jump\t// in\n    tag_236:\n        /* \"#utility.yul\":6652:6654   */\n      0x40\n        /* \"#utility.yul\":6647:6650   */\n      dup3\n        /* \"#utility.yul\":6643:6655   */\n      add\n        /* \"#utility.yul\":6636:6655   */\n      swap1\n      pop\n        /* \"#utility.yul\":6295:6661   */\n      swap2\n      swap1\n      pop\n      jump\t// out\n        /* \"#utility.yul\":6667:7033   */\n    tag_238:\n        /* \"#utility.yul\":6809:6812   */\n      0x00\n        /* \"#utility.yul\":6830:6897   */\n      tag_240\n        /* \"#utility.yul\":6894:6896   */\n      0x28\n        /* \"#utility.yul\":6889:6892   */\n      dup4\n        /* \"#utility.yul\":6830:6897   */\n      tag_175\n      jump\t// in\n    tag_240:\n        /* \"#utility.yul\":6823:6897   */\n      swap2\n      pop\n        /* \"#utility.yul\":6906:6999   */\n      tag_241\n        /* \"#utility.yul\":6995:6998   */\n      dup3\n        /* \"#utility.yul\":6906:6999   */\n      tag_242\n      jump\t// in\n    tag_241:\n        /* \"#utility.yul\":7024:7026   */\n      0x40\n        /* \"#utility.yul\":7019:7022   */\n      dup3\n        /* \"#utility.yul\":7015:7027   */\n      add\n        /* \"#utility.yul\":7008:7027   */\n      swap1\n      pop\n        /* \"#utility.yul\":6667:7033   */\n      swap2\n      swap1\n      pop\n      jump\t// out\n        /* \"#utility.yul\":7039:7405   */\n    tag_243:\n        /* \"#utility.yul\":7181:7184   */\n      0x00\n        /* \"#utility.yul\":7202:7269   */\n      tag_245\n        /* \"#utility.yul\":7266:7268   */\n      0x1e\n        /* \"#utility.yul\":7261:7264   */\n      dup4\n        /* \"#utility.yul\":7202:7269   */\n      tag_175\n      jump\t// in\n    tag_245:\n        /* \"#utility.yul\":7195:7269   */\n      swap2\n      pop\n        /* \"#utility.yul\":7278:7371   */\n      tag_246\n        /* \"#utility.yul\":7367:7370   */\n      dup3\n        /* \"#utility.yul\":7278:7371   */\n      tag_247\n      jump\t// in\n    tag_246:\n        /* \"#utility.yul\":7396:7398   */\n      0x20\n        /* \"#utility.yul\":7391:7394   */\n      dup3\n        /* \"#utility.yul\":7387:7399   */\n      add\n        /* \"#utility.yul\":7380:7399   */\n      swap1\n      pop\n        /* \"#utility.yul\":7039:7405   */\n      swap2\n      swap1\n      pop\n      jump\t// out\n        /* \"#utility.yul\":7411:7529   */\n    tag_248:\n        /* \"#utility.yul\":7498:7522   */\n      tag_250\n        /* \"#utility.yul\":7516:7521   */\n      dup2\n        /* \"#utility.yul\":7498:7522   */\n      tag_251\n      jump\t// in\n    tag_250:\n        /* \"#utility.yul\":7493:7496   */\n      dup3\n        /* \"#utility.yul\":7486:7523   */\n      mstore\n        /* \"#utility.yul\":7411:7529   */\n      pop\n      pop\n      jump\t// out\n        /* \"#utility.yul\":7535:7692   */\n    tag_252:\n        /* \"#utility.yul\":7640:7685   */\n      tag_254\n        /* \"#utility.yul\":7660:7684   */\n      tag_255\n        /* \"#utility.yul\":7678:7683   */\n      dup3\n        /* \"#utility.yul\":7660:7684   */\n      tag_251\n      jump\t// in\n    tag_255:\n        /* \"#utility.yul\":7640:7685   */\n      tag_256\n      jump\t// in\n    tag_254:\n        /* \"#utility.yul\":7635:7638   */\n      dup3\n        /* \"#utility.yul\":7628:7686   */\n      mstore\n        /* \"#utility.yul\":7535:7692   */\n      pop\n      pop\n      jump\t// out\n        /* \"#utility.yul\":7698:8095   */\n    tag_84:\n        /* \"#utility.yul\":7838:7841   */\n      0x00\n        /* \"#utility.yul\":7853:7928   */\n      tag_258\n        /* \"#utility.yul\":7924:7927   */\n      dup3\n        /* \"#utility.yul\":7915:7921   */\n      dup6\n        /* \"#utility.yul\":7853:7928   */\n      tag_252\n      jump\t// in\n    tag_258:\n        /* \"#utility.yul\":7953:7955   */\n      0x20\n        /* \"#utility.yul\":7948:7951   */\n      dup3\n        /* \"#utility.yul\":7944:7956   */\n      add\n        /* \"#utility.yul\":7937:7956   */\n      swap2\n      pop\n        /* \"#utility.yul\":7966:8041   */\n      tag_259\n        /* \"#utility.yul\":8037:8040   */\n      dup3\n        /* \"#utility.yul\":8028:8034   */\n      dup5\n        /* \"#utility.yul\":7966:8041   */\n      tag_252\n      jump\t// in\n    tag_259:\n        /* \"#utility.yul\":8066:8068   */\n      0x20\n        /* \"#utility.yul\":8061:8064   */\n      dup3\n        /* \"#utility.yul\":8057:8069   */\n      add\n        /* \"#utility.yul\":8050:8069   */\n      swap2\n      pop\n        /* \"#utility.yul\":8086:8089   */\n      dup2\n        /* \"#utility.yul\":8079:8089   */\n      swap1\n      pop\n        /* \"#utility.yul\":7698:8095   */\n      swap4\n      swap3\n      pop\n      pop\n      pop\n      jump\t// out\n        /* \"#utility.yul\":8101:8323   */\n    tag_41:\n        /* \"#utility.yul\":8194:8198   */\n      0x00\n        /* \"#utility.yul\":8232:8234   */\n      0x20\n        /* \"#utility.yul\":8221:8230   */\n      dup3\n        /* \"#utility.yul\":8217:8235   */\n      add\n        /* \"#utility.yul\":8209:8235   */\n      swap1\n      pop\n        /* \"#utility.yul\":8245:8316   */\n      tag_261\n        /* \"#utility.yul\":8313:8314   */\n      0x00\n        /* \"#utility.yul\":8302:8311   */\n      dup4\n        /* \"#utility.yul\":8298:8315   */\n      add\n        /* \"#utility.yul\":8289:8295   */\n      dup5\n        /* \"#utility.yul\":8245:8316   */\n      tag_164\n      jump\t// in\n    tag_261:\n        /* \"#utility.yul\":8101:8323   */\n      swap3\n      swap2\n      pop\n      pop\n      jump\t// out\n        /* \"#utility.yul\":8329:8539   */\n    tag_20:\n        /* \"#utility.yul\":8416:8420   */\n      0x00\n        /* \"#utility.yul\":8454:8456   */\n      0x20\n        /* \"#utility.yul\":8443:8452   */\n      dup3\n        /* \"#utility.yul\":8439:8457   */\n      add\n        /* \"#utility.yul\":8431:8457   */\n      swap1\n      pop\n        /* \"#utility.yul\":8467:8532   */\n      tag_263\n        /* \"#utility.yul\":8529:8530   */\n      0x00\n        /* \"#utility.yul\":8518:8527   */\n      dup4\n        /* \"#utility.yul\":8514:8531   */\n      add\n        /* \"#utility.yul\":8505:8511   */\n      dup5\n        /* \"#utility.yul\":8467:8532   */\n      tag_168\n      jump\t// in\n    tag_263:\n        /* \"#utility.yul\":8329:8539   */\n      swap3\n      swap2\n      pop\n      pop\n      jump\t// out\n        /* \"#utility.yul\":8545:8964   */\n    tag_98:\n        /* \"#utility.yul\":8711:8715   */\n      0x00\n        /* \"#utility.yul\":8749:8751   */\n      0x20\n        /* \"#utility.yul\":8738:8747   */\n      dup3\n        /* \"#utility.yul\":8734:8752   */\n      add\n        /* \"#utility.yul\":8726:8752   */\n      swap1\n      pop\n        /* \"#utility.yul\":8798:8807   */\n      dup2\n        /* \"#utility.yul\":8792:8796   */\n      dup2\n        /* \"#utility.yul\":8788:8808   */\n      sub\n        /* \"#utility.yul\":8784:8785   */\n      0x00\n        /* \"#utility.yul\":8773:8782   */\n      dup4\n        /* \"#utility.yul\":8769:8786   */\n      add\n        /* \"#utility.yul\":8762:8809   */\n      mstore\n        /* \"#utility.yul\":8826:8957   */\n      tag_265\n        /* \"#utility.yul\":8952:8956   */\n      dup2\n        /* \"#utility.yul\":8826:8957   */\n      tag_172\n      jump\t// in\n    tag_265:\n        /* \"#utility.yul\":8818:8957   */\n      swap1\n      pop\n        /* \"#utility.yul\":8545:8964   */\n      swap2\n      swap1\n      pop\n      jump\t// out\n        /* \"#utility.yul\":8970:9389   */\n    tag_122:\n        /* \"#utility.yul\":9136:9140   */\n      0x00\n        /* \"#utility.yul\":9174:9176   */\n      0x20\n        /* \"#utility.yul\":9163:9172   */\n      dup3\n        /* \"#utility.yul\":9159:9177   */\n      add\n        /* \"#utility.yul\":9151:9177   */\n      swap1\n      pop\n        /* \"#utility.yul\":9223:9232   */\n      dup2\n        /* \"#utility.yul\":9217:9221   */\n      dup2\n        /* \"#utility.yul\":9213:9233   */\n      sub\n        /* \"#utility.yul\":9209:9210   */\n      0x00\n        /* \"#utility.yul\":9198:9207   */\n      dup4\n        /* \"#utility.yul\":9194:9211   */\n      add\n        /* \"#utility.yul\":9187:9234   */\n      mstore\n        /* \"#utility.yul\":9251:9382   */\n      tag_267\n        /* \"#utility.yul\":9377:9381   */\n      dup2\n        /* \"#utility.yul\":9251:9382   */\n      tag_178\n      jump\t// in\n    tag_267:\n        /* \"#utility.yul\":9243:9382   */\n      swap1\n      pop\n        /* \"#utility.yul\":8970:9389   */\n      swap2\n      swap1\n      pop\n      jump\t// out\n        /* \"#utility.yul\":9395:9814   */\n    tag_102:\n        /* \"#utility.yul\":9561:9565   */\n      0x00\n        /* \"#utility.yul\":9599:9601   */\n      0x20\n        /* \"#utility.yul\":9588:9597   */\n      dup3\n        /* \"#utility.yul\":9584:9602   */\n      add\n        /* \"#utility.yul\":9576:9602   */\n      swap1\n      pop\n        /* \"#utility.yul\":9648:9657   */\n      dup2\n        /* \"#utility.yul\":9642:9646   */\n      dup2\n        /* \"#utility.yul\":9638:9658   */\n      sub\n        /* \"#utility.yul\":9634:9635   */\n      0x00\n        /* \"#utility.yul\":9623:9632   */\n      dup4\n        /* \"#utility.yul\":9619:9636   */\n      add\n        /* \"#utility.yul\":9612:9659   */\n      mstore\n        /* \"#utility.yul\":9676:9807   */\n      tag_269\n        /* \"#utility.yul\":9802:9806   */\n      dup2\n        /* \"#utility.yul\":9676:9807   */\n      tag_183\n      jump\t// in\n    tag_269:\n        /* \"#utility.yul\":9668:9807   */\n      swap1\n      pop\n        /* \"#utility.yul\":9395:9814   */\n      swap2\n      swap1\n      pop\n      jump\t// out\n        /* \"#utility.yul\":9820:10239   */\n    tag_129:\n        /* \"#utility.yul\":9986:9990   */\n      0x00\n        /* \"#utility.yul\":10024:10026   */\n      0x20\n        /* \"#utility.yul\":10013:10022   */\n      dup3\n        /* \"#utility.yul\":10009:10027   */\n      add\n        /* \"#utility.yul\":10001:10027   */\n      swap1\n      pop\n        /* \"#utility.yul\":10073:10082   */\n      dup2\n        /* \"#utility.yul\":10067:10071   */\n      dup2\n        /* \"#utility.yul\":10063:10083   */\n      sub\n        /* \"#utility.yul\":10059:10060   */\n      0x00\n        /* \"#utility.yul\":10048:10057   */\n      dup4\n        /* \"#utility.yul\":10044:10061   */\n      add\n        /* \"#utility.yul\":10037:10084   */\n      mstore\n        /* \"#utility.yul\":10101:10232   */\n      tag_271\n        /* \"#utility.yul\":10227:10231   */\n      dup2\n        /* \"#utility.yul\":10101:10232   */\n      tag_188\n      jump\t// in\n    tag_271:\n        /* \"#utility.yul\":10093:10232   */\n      swap1\n      pop\n        /* \"#utility.yul\":9820:10239   */\n      swap2\n      swap1\n      pop\n      jump\t// out\n        /* \"#utility.yul\":10245:10664   */\n    tag_52:\n        /* \"#utility.yul\":10411:10415   */\n      0x00\n        /* \"#utility.yul\":10449:10451   */\n      0x20\n        /* \"#utility.yul\":10438:10447   */\n      dup3\n        /* \"#utility.yul\":10434:10452   */\n      add\n        /* \"#utility.yul\":10426:10452   */\n      swap1\n      pop\n        /* \"#utility.yul\":10498:10507   */\n      dup2\n        /* \"#utility.yul\":10492:10496   */\n      dup2\n        /* \"#utility.yul\":10488:10508   */\n      sub\n        /* \"#utility.yul\":10484:10485   */\n      0x00\n        /* \"#utility.yul\":10473:10482   */\n      dup4\n        /* \"#utility.yul\":10469:10486   */\n      add\n        /* \"#utility.yul\":10462:10509   */\n      mstore\n        /* \"#utility.yul\":10526:10657   */\n      tag_273\n        /* \"#utility.yul\":10652:10656   */\n      dup2\n        /* \"#utility.yul\":10526:10657   */\n      tag_193\n      jump\t// in\n    tag_273:\n        /* \"#utility.yul\":10518:10657   */\n      swap1\n      pop\n        /* \"#utility.yul\":10245:10664   */\n      swap2\n      swap1\n      pop\n      jump\t// out\n        /* \"#utility.yul\":10670:11089   */\n    tag_105:\n        /* \"#utility.yul\":10836:10840   */\n      0x00\n        /* \"#utility.yul\":10874:10876   */\n      0x20\n        /* \"#utility.yul\":10863:10872   */\n      dup3\n        /* \"#utility.yul\":10859:10877   */\n      add\n        /* \"#utility.yul\":10851:10877   */\n      swap1\n      pop\n        /* \"#utility.yul\":10923:10932   */\n      dup2\n        /* \"#utility.yul\":10917:10921   */\n      dup2\n        /* \"#utility.yul\":10913:10933   */\n      sub\n        /* \"#utility.yul\":10909:10910   */\n      0x00\n        /* \"#utility.yul\":10898:10907   */\n      dup4\n        /* \"#utility.yul\":10894:10911   */\n      add\n        /* \"#utility.yul\":10887:10934   */\n      mstore\n        /* \"#utility.yul\":10951:11082   */\n      tag_275\n        /* \"#utility.yul\":11077:11081   */\n      dup2\n        /* \"#utility.yul\":10951:11082   */\n      tag_198\n      jump\t// in\n    tag_275:\n        /* \"#utility.yul\":10943:11082   */\n      swap1\n      pop\n        /* \"#utility.yul\":10670:11089   */\n      swap2\n      swap1\n      pop\n      jump\t// out\n        /* \"#utility.yul\":11095:11514   */\n    tag_61:\n        /* \"#utility.yul\":11261:11265   */\n      0x00\n        /* \"#utility.yul\":11299:11301   */\n      0x20\n        /* \"#utility.yul\":11288:11297   */\n      dup3\n        /* \"#utility.yul\":11284:11302   */\n      add\n        /* \"#utility.yul\":11276:11302   */\n      swap1\n      pop\n        /* \"#utility.yul\":11348:11357   */\n      dup2\n        /* \"#utility.yul\":11342:11346   */\n      dup2\n        /* \"#utility.yul\":11338:11358   */\n      sub\n        /* \"#utility.yul\":11334:11335   */\n      0x00\n        /* \"#utility.yul\":11323:11332   */\n      dup4\n        /* \"#utility.yul\":11319:11336   */\n      add\n        /* \"#utility.yul\":11312:11359   */\n      mstore\n        /* \"#utility.yul\":11376:11507   */\n      tag_277\n        /* \"#utility.yul\":11502:11506   */\n      dup2\n        /* \"#utility.yul\":11376:11507   */\n      tag_203\n      jump\t// in\n    tag_277:\n        /* \"#utility.yul\":11368:11507   */\n      swap1\n      pop\n        /* \"#utility.yul\":11095:11514   */\n      swap2\n      swap1\n      pop\n      jump\t// out\n        /* \"#utility.yul\":11520:11939   */\n    tag_76:\n        /* \"#utility.yul\":11686:11690   */\n      0x00\n        /* \"#utility.yul\":11724:11726   */\n      0x20\n        /* \"#utility.yul\":11713:11722   */\n      dup3\n        /* \"#utility.yul\":11709:11727   */\n      add\n        /* \"#utility.yul\":11701:11727   */\n      swap1\n      pop\n        /* \"#utility.yul\":11773:11782   */\n      dup2\n        /* \"#utility.yul\":11767:11771   */\n      dup2\n        /* \"#utility.yul\":11763:11783   */\n      sub\n        /* \"#utility.yul\":11759:11760   */\n      0x00\n        /* \"#utility.yul\":11748:11757   */\n      dup4\n        /* \"#utility.yul\":11744:11761   */\n      add\n        /* \"#utility.yul\":11737:11784   */\n      mstore\n        /* \"#utility.yul\":11801:11932   */\n      tag_279\n        /* \"#utility.yul\":11927:11931   */\n      dup2\n        /* \"#utility.yul\":11801:11932   */\n      tag_208\n      jump\t// in\n    tag_279:\n        /* \"#utility.yul\":11793:11932   */\n      swap1\n      pop\n        /* \"#utility.yul\":11520:11939   */\n      swap2\n      swap1\n      pop\n      jump\t// out\n        /* \"#utility.yul\":11945:12364   */\n    tag_79:\n        /* \"#utility.yul\":12111:12115   */\n      0x00\n        /* \"#utility.yul\":12149:12151   */\n      0x20\n        /* \"#utility.yul\":12138:12147   */\n      dup3\n        /* \"#utility.yul\":12134:12152   */\n      add\n        /* \"#utility.yul\":12126:12152   */\n      swap1\n      pop\n        /* \"#utility.yul\":12198:12207   */\n      dup2\n        /* \"#utility.yul\":12192:12196   */\n      dup2\n        /* \"#utility.yul\":12188:12208   */\n      sub\n        /* \"#utility.yul\":12184:12185   */\n      0x00\n        /* \"#utility.yul\":12173:12182   */\n      dup4\n        /* \"#utility.yul\":12169:12186   */\n      add\n        /* \"#utility.yul\":12162:12209   */\n      mstore\n        /* \"#utility.yul\":12226:12357   */\n      tag_281\n        /* \"#utility.yul\":12352:12356   */\n      dup2\n        /* \"#utility.yul\":12226:12357   */\n      tag_213\n      jump\t// in\n    tag_281:\n        /* \"#utility.yul\":12218:12357   */\n      swap1\n      pop\n        /* \"#utility.yul\":11945:12364   */\n      swap2\n      swap1\n      pop\n      jump\t// out\n        /* \"#utility.yul\":12370:12789   */\n    tag_126:\n        /* \"#utility.yul\":12536:12540   */\n      0x00\n        /* \"#utility.yul\":12574:12576   */\n      0x20\n        /* \"#utility.yul\":12563:12572   */\n      dup3\n        /* \"#utility.yul\":12559:12577   */\n      add\n        /* \"#utility.yul\":12551:12577   */\n      swap1\n      pop\n        /* \"#utility.yul\":12623:12632   */\n      dup2\n        /* \"#utility.yul\":12617:12621   */\n      dup2\n        /* \"#utility.yul\":12613:12633   */\n      sub\n        /* \"#utility.yul\":12609:12610   */\n      0x00\n        /* \"#utility.yul\":12598:12607   */\n      dup4\n        /* \"#utility.yul\":12594:12611   */\n      add\n        /* \"#utility.yul\":12587:12634   */\n      mstore\n        /* \"#utility.yul\":12651:12782   */\n      tag_283\n        /* \"#utility.yul\":12777:12781   */\n      dup2\n        /* \"#utility.yul\":12651:12782   */\n      tag_218\n      jump\t// in\n    tag_283:\n        /* \"#utility.yul\":12643:12782   */\n      swap1\n      pop\n        /* \"#utility.yul\":12370:12789   */\n      swap2\n      swap1\n      pop\n      jump\t// out\n        /* \"#utility.yul\":12795:13214   */\n    tag_55:\n        /* \"#utility.yul\":12961:12965   */\n      0x00\n        /* \"#utility.yul\":12999:13001   */\n      0x20\n        /* \"#utility.yul\":12988:12997   */\n      dup3\n        /* \"#utility.yul\":12984:13002   */\n      add\n        /* \"#utility.yul\":12976:13002   */\n      swap1\n      pop\n        /* \"#utility.yul\":13048:13057   */\n      dup2\n        /* \"#utility.yul\":13042:13046   */\n      dup2\n        /* \"#utility.yul\":13038:13058   */\n      sub\n        /* \"#utility.yul\":13034:13035   */\n      0x00\n        /* \"#utility.yul\":13023:13032   */\n      dup4\n        /* \"#utility.yul\":13019:13036   */\n      add\n        /* \"#utility.yul\":13012:13059   */\n      mstore\n        /* \"#utility.yul\":13076:13207   */\n      tag_285\n        /* \"#utility.yul\":13202:13206   */\n      dup2\n        /* \"#utility.yul\":13076:13207   */\n      tag_223\n      jump\t// in\n    tag_285:\n        /* \"#utility.yul\":13068:13207   */\n      swap1\n      pop\n        /* \"#utility.yul\":12795:13214   */\n      swap2\n      swap1\n      pop\n      jump\t// out\n        /* \"#utility.yul\":13220:13639   */\n    tag_95:\n        /* \"#utility.yul\":13386:13390   */\n      0x00\n        /* \"#utility.yul\":13424:13426   */\n      0x20\n        /* \"#utility.yul\":13413:13422   */\n      dup3\n        /* \"#utility.yul\":13409:13427   */\n      add\n        /* \"#utility.yul\":13401:13427   */\n      swap1\n      pop\n        /* \"#utility.yul\":13473:13482   */\n      dup2\n        /* \"#utility.yul\":13467:13471   */\n      dup2\n        /* \"#utility.yul\":13463:13483   */\n      sub\n        /* \"#utility.yul\":13459:13460   */\n      0x00\n        /* \"#utility.yul\":13448:13457   */\n      dup4\n        /* \"#utility.yul\":13444:13461   */\n      add\n        /* \"#utility.yul\":13437:13484   */\n      mstore\n        /* \"#utility.yul\":13501:13632   */\n      tag_287\n        /* \"#utility.yul\":13627:13631   */\n      dup2\n        /* \"#utility.yul\":13501:13632   */\n      tag_228\n      jump\t// in\n    tag_287:\n        /* \"#utility.yul\":13493:13632   */\n      swap1\n      pop\n        /* \"#utility.yul\":13220:13639   */\n      swap2\n      swap1\n      pop\n      jump\t// out\n        /* \"#utility.yul\":13645:14064   */\n    tag_82:\n        /* \"#utility.yul\":13811:13815   */\n      0x00\n        /* \"#utility.yul\":13849:13851   */\n      0x20\n        /* \"#utility.yul\":13838:13847   */\n      dup3\n        /* \"#utility.yul\":13834:13852   */\n      add\n        /* \"#utility.yul\":13826:13852   */\n      swap1\n      pop\n        /* \"#utility.yul\":13898:13907   */\n      dup2\n        /* \"#utility.yul\":13892:13896   */\n      dup2\n        /* \"#utility.yul\":13888:13908   */\n      sub\n        /* \"#utility.yul\":13884:13885   */\n      0x00\n        /* \"#utility.yul\":13873:13882   */\n      dup4\n        /* \"#utility.yul\":13869:13886   */\n      add\n        /* \"#utility.yul\":13862:13909   */\n      mstore\n        /* \"#utility.yul\":13926:14057   */\n      tag_289\n        /* \"#utility.yul\":14052:14056   */\n      dup2\n        /* \"#utility.yul\":13926:14057   */\n      tag_233\n      jump\t// in\n    tag_289:\n        /* \"#utility.yul\":13918:14057   */\n      swap1\n      pop\n        /* \"#utility.yul\":13645:14064   */\n      swap2\n      swap1\n      pop\n      jump\t// out\n        /* \"#utility.yul\":14070:14489   */\n    tag_119:\n        /* \"#utility.yul\":14236:14240   */\n      0x00\n        /* \"#utility.yul\":14274:14276   */\n      0x20\n        /* \"#utility.yul\":14263:14272   */\n      dup3\n        /* \"#utility.yul\":14259:14277   */\n      add\n        /* \"#utility.yul\":14251:14277   */\n      swap1\n      pop\n        /* \"#utility.yul\":14323:14332   */\n      dup2\n        /* \"#utility.yul\":14317:14321   */\n      dup2\n        /* \"#utility.yul\":14313:14333   */\n      sub\n        /* \"#utility.yul\":14309:14310   */\n      0x00\n        /* \"#utility.yul\":14298:14307   */\n      dup4\n        /* \"#utility.yul\":14294:14311   */\n      add\n        /* \"#utility.yul\":14287:14334   */\n      mstore\n        /* \"#utility.yul\":14351:14482   */\n      tag_291\n        /* \"#utility.yul\":14477:14481   */\n      dup2\n        /* \"#utility.yul\":14351:14482   */\n      tag_238\n      jump\t// in\n    tag_291:\n        /* \"#utility.yul\":14343:14482   */\n      swap1\n      pop\n        /* \"#utility.yul\":14070:14489   */\n      swap2\n      swap1\n      pop\n      jump\t// out\n        /* \"#utility.yul\":14495:14914   */\n    tag_72:\n        /* \"#utility.yul\":14661:14665   */\n      0x00\n        /* \"#utility.yul\":14699:14701   */\n      0x20\n        /* \"#utility.yul\":14688:14697   */\n      dup3\n        /* \"#utility.yul\":14684:14702   */\n      add\n        /* \"#utility.yul\":14676:14702   */\n      swap1\n      pop\n        /* \"#utility.yul\":14748:14757   */\n      dup2\n        /* \"#utility.yul\":14742:14746   */\n      dup2\n        /* \"#utility.yul\":14738:14758   */\n      sub\n        /* \"#utility.yul\":14734:14735   */\n      0x00\n        /* \"#utility.yul\":14723:14732   */\n      dup4\n        /* \"#utility.yul\":14719:14736   */\n      add\n        /* \"#utility.yul\":14712:14759   */\n      mstore\n        /* \"#utility.yul\":14776:14907   */\n      tag_293\n        /* \"#utility.yul\":14902:14906   */\n      dup2\n        /* \"#utility.yul\":14776:14907   */\n      tag_243\n      jump\t// in\n    tag_293:\n        /* \"#utility.yul\":14768:14907   */\n      swap1\n      pop\n        /* \"#utility.yul\":14495:14914   */\n      swap2\n      swap1\n      pop\n      jump\t// out\n        /* \"#utility.yul\":14920:15461   */\n    tag_26:\n        /* \"#utility.yul\":15091:15095   */\n      0x00\n        /* \"#utility.yul\":15129:15132   */\n      0x80\n        /* \"#utility.yul\":15118:15127   */\n      dup3\n        /* \"#utility.yul\":15114:15133   */\n      add\n        /* \"#utility.yul\":15106:15133   */\n      swap1\n      pop\n        /* \"#utility.yul\":15143:15214   */\n      tag_295\n        /* \"#utility.yul\":15211:15212   */\n      0x00\n        /* \"#utility.yul\":15200:15209   */\n      dup4\n        /* \"#utility.yul\":15196:15213   */\n      add\n        /* \"#utility.yul\":15187:15193   */\n      dup8\n        /* \"#utility.yul\":15143:15214   */\n      tag_248\n      jump\t// in\n    tag_295:\n        /* \"#utility.yul\":15224:15296   */\n      tag_296\n        /* \"#utility.yul\":15292:15294   */\n      0x20\n        /* \"#utility.yul\":15281:15290   */\n      dup4\n        /* \"#utility.yul\":15277:15295   */\n      add\n        /* \"#utility.yul\":15268:15274   */\n      dup7\n        /* \"#utility.yul\":15224:15296   */\n      tag_248\n      jump\t// in\n    tag_296:\n        /* \"#utility.yul\":15306:15378   */\n      tag_297\n        /* \"#utility.yul\":15374:15376   */\n      0x40\n        /* \"#utility.yul\":15363:15372   */\n      dup4\n        /* \"#utility.yul\":15359:15377   */\n      add\n        /* \"#utility.yul\":15350:15356   */\n      dup6\n        /* \"#utility.yul\":15306:15378   */\n      tag_248\n      jump\t// in\n    tag_297:\n        /* \"#utility.yul\":15388:15454   */\n      tag_298\n        /* \"#utility.yul\":15450:15452   */\n      0x60\n        /* \"#utility.yul\":15439:15448   */\n      dup4\n        /* \"#utility.yul\":15435:15453   */\n      add\n        /* \"#utility.yul\":15426:15432   */\n      dup5\n        /* \"#utility.yul\":15388:15454   */\n      tag_168\n      jump\t// in\n    tag_298:\n        /* \"#utility.yul\":14920:15461   */\n      swap6\n      swap5\n      pop\n      pop\n      pop\n      pop\n      pop\n      jump\t// out\n        /* \"#utility.yul\":15548:15717   */\n    tag_175:\n        /* \"#utility.yul\":15632:15643   */\n      0x00\n        /* \"#utility.yul\":15666:15672   */\n      dup3\n        /* \"#utility.yul\":15661:15664   */\n      dup3\n        /* \"#utility.yul\":15654:15673   */\n      mstore\n        /* \"#utility.yul\":15706:15710   */\n      0x20\n        /* \"#utility.yul\":15701:15704   */\n      dup3\n        /* \"#utility.yul\":15697:15711   */\n      add\n        /* \"#utility.yul\":15682:15711   */\n      swap1\n      pop\n        /* \"#utility.yul\":15548:15717   */\n      swap3\n      swap2\n      pop\n      pop\n      jump\t// out\n        /* \"#utility.yul\":15723:16028   */\n    tag_132:\n        /* \"#utility.yul\":15763:15766   */\n      0x00\n        /* \"#utility.yul\":15782:15802   */\n      tag_303\n        /* \"#utility.yul\":15800:15801   */\n      dup3\n        /* \"#utility.yul\":15782:15802   */\n      tag_251\n      jump\t// in\n    tag_303:\n        /* \"#utility.yul\":15777:15802   */\n      swap2\n      pop\n        /* \"#utility.yul\":15816:15836   */\n      tag_304\n        /* \"#utility.yul\":15834:15835   */\n      dup4\n        /* \"#utility.yul\":15816:15836   */\n      tag_251\n      jump\t// in\n    tag_304:\n        /* \"#utility.yul\":15811:15836   */\n      swap3\n      pop\n        /* \"#utility.yul\":15970:15971   */\n      dup3\n        /* \"#utility.yul\":15902:15968   */\n      0xffffffffffffffffffffffffffffffffffffffffffffffffffffffffffffffff\n        /* \"#utility.yul\":15898:15972   */\n      sub\n        /* \"#utility.yul\":15895:15896   */\n      dup3\n        /* \"#utility.yul\":15892:15973   */\n      gt\n        /* \"#utility.yul\":15889:15996   */\n      iszero\n      tag_305\n      jumpi\n        /* \"#utility.yul\":15976:15994   */\n      tag_306\n      tag_307\n      jump\t// in\n    tag_306:\n        /* \"#utility.yul\":15889:15996   */\n    tag_305:\n        /* \"#utility.yul\":16020:16021   */\n      dup3\n        /* \"#utility.yul\":16017:16018   */\n      dup3\n        /* \"#utility.yul\":16013:16022   */\n      add\n        /* \"#utility.yul\":16006:16022   */\n      swap1\n      pop\n        /* \"#utility.yul\":15723:16028   */\n      swap3\n      swap2\n      pop\n      pop\n      jump\t// out\n        /* \"#utility.yul\":16034:16130   */\n    tag_167:\n        /* \"#utility.yul\":16071:16078   */\n      0x00\n        /* \"#utility.yul\":16100:16124   */\n      tag_309\n        /* \"#utility.yul\":16118:16123   */\n      dup3\n        /* \"#utility.yul\":16100:16124   */\n      tag_310\n      jump\t// in\n    tag_309:\n        /* \"#utility.yul\":16089:16124   */\n      swap1\n      pop\n        /* \"#utility.yul\":16034:16130   */\n      swap2\n      swap1\n      pop\n      jump\t// out\n        /* \"#utility.yul\":16136:16226   */\n    tag_171:\n        /* \"#utility.yul\":16170:16177   */\n      0x00\n        /* \"#utility.yul\":16213:16218   */\n      dup2\n        /* \"#utility.yul\":16206:16219   */\n      iszero\n        /* \"#utility.yul\":16199:16220   */\n      iszero\n        /* \"#utility.yul\":16188:16220   */\n      swap1\n      pop\n        /* \"#utility.yul\":16136:16226   */\n      swap2\n      swap1\n      pop\n      jump\t// out\n        /* \"#utility.yul\":16232:16358   */\n    tag_310:\n        /* \"#utility.yul\":16269:16276   */\n      0x00\n        /* \"#utility.yul\":16309:16351   */\n      0xffffffffffffffffffffffffffffffffffffffff\n        /* \"#utility.yul\":16302:16307   */\n      dup3\n        /* \"#utility.yul\":16298:16352   */\n      and\n        /* \"#utility.yul\":16287:16352   */\n      swap1\n      pop\n        /* \"#utility.yul\":16232:16358   */\n      swap2\n      swap1\n      pop\n      jump\t// out\n        /* \"#utility.yul\":16364:16441   */\n    tag_251:\n        /* \"#utility.yul\":16401:16408   */\n      0x00\n        /* \"#utility.yul\":16430:16435   */\n      dup2\n        /* \"#utility.yul\":16419:16435   */\n      swap1\n      pop\n        /* \"#utility.yul\":16364:16441   */\n      swap2\n      swap1\n      pop\n      jump\t// out\n        /* \"#utility.yul\":16447:16526   */\n    tag_256:\n        /* \"#utility.yul\":16486:16493   */\n      0x00\n        /* \"#utility.yul\":16515:16520   */\n      dup2\n        /* \"#utility.yul\":16504:16520   */\n      swap1\n      pop\n        /* \"#utility.yul\":16447:16526   */\n      swap2\n      swap1\n      pop\n      jump\t// out\n        /* \"#utility.yul\":16532:16708   */\n    tag_86:\n        /* \"#utility.yul\":16564:16565   */\n      0x00\n        /* \"#utility.yul\":16581:16601   */\n      tag_316\n        /* \"#utility.yul\":16599:16600   */\n      dup3\n        /* \"#utility.yul\":16581:16601   */\n      tag_251\n      jump\t// in\n    tag_316:\n        /* \"#utility.yul\":16576:16601   */\n      swap2\n      pop\n        /* \"#utility.yul\":16615:16635   */\n      tag_317\n        /* \"#utility.yul\":16633:16634   */\n      dup4\n        /* \"#utility.yul\":16615:16635   */\n      tag_251\n      jump\t// in\n    tag_317:\n        /* \"#utility.yul\":16610:16635   */\n      swap3\n      pop\n        /* \"#utility.yul\":16654:16655   */\n      dup3\n        /* \"#utility.yul\":16644:16679   */\n      tag_318\n      jumpi\n        /* \"#utility.yul\":16659:16677   */\n      tag_319\n      tag_320\n      jump\t// in\n    tag_319:\n        /* \"#utility.yul\":16644:16679   */\n    tag_318:\n        /* \"#utility.yul\":16700:16701   */\n      dup3\n        /* \"#utility.yul\":16697:16698   */\n      dup3\n        /* \"#utility.yul\":16693:16702   */\n      mod\n        /* \"#utility.yul\":16688:16702   */\n      swap1\n      pop\n        /* \"#utility.yul\":16532:16708   */\n      swap3\n      swap2\n      pop\n      pop\n      jump\t// out\n        /* \"#utility.yul\":16714:16894   */\n    tag_307:\n        /* \"#utility.yul\":16762:16839   */\n      0x4e487b7100000000000000000000000000000000000000000000000000000000\n        /* \"#utility.yul\":16759:16760   */\n      0x00\n        /* \"#utility.yul\":16752:16840   */\n      mstore\n        /* \"#utility.yul\":16859:16863   */\n      0x11\n        /* \"#utility.yul\":16856:16857   */\n      0x04\n        /* \"#utility.yul\":16849:16864   */\n      mstore\n        /* \"#utility.yul\":16883:16887   */\n      0x24\n        /* \"#utility.yul\":16880:16881   */\n      0x00\n        /* \"#utility.yul\":16873:16888   */\n      revert\n        /* \"#utility.yul\":16900:17080   */\n    tag_320:\n        /* \"#utility.yul\":16948:17025   */\n      0x4e487b7100000000000000000000000000000000000000000000000000000000\n        /* \"#utility.yul\":16945:16946   */\n      0x00\n        /* \"#utility.yul\":16938:17026   */\n      mstore\n        /* \"#utility.yul\":17045:17049   */\n      0x12\n        /* \"#utility.yul\":17042:17043   */\n      0x04\n        /* \"#utility.yul\":17035:17050   */\n      mstore\n        /* \"#utility.yul\":17069:17073   */\n      0x24\n        /* \"#utility.yul\":17066:17067   */\n      0x00\n        /* \"#utility.yul\":17059:17074   */\n      revert\n        /* \"#utility.yul\":17086:17266   */\n    tag_65:\n        /* \"#utility.yul\":17134:17211   */\n      0x4e487b7100000000000000000000000000000000000000000000000000000000\n        /* \"#utility.yul\":17131:17132   */\n      0x00\n        /* \"#utility.yul\":17124:17212   */\n      mstore\n        /* \"#utility.yul\":17231:17235   */\n      0x32\n        /* \"#utility.yul\":17228:17229   */\n      0x04\n        /* \"#utility.yul\":17221:17236   */\n      mstore\n        /* \"#utility.yul\":17255:17259   */\n      0x24\n        /* \"#utility.yul\":17252:17253   */\n      0x00\n        /* \"#utility.yul\":17245:17260   */\n      revert\n        /* \"#utility.yul\":17272:17452   */\n    tag_108:\n        /* \"#utility.yul\":17320:17397   */\n      0x4e487b7100000000000000000000000000000000000000000000000000000000\n        /* \"#utility.yul\":17317:17318   */\n      0x00\n        /* \"#utility.yul\":17310:17398   */\n      mstore\n        /* \"#utility.yul\":17417:17421   */\n      0x41\n        /* \"#utility.yul\":17414:17415   */\n      0x04\n        /* \"#utility.yul\":17407:17422   */\n      mstore\n        /* \"#utility.yul\":17441:17445   */\n      0x24\n        /* \"#utility.yul\":17438:17439   */\n      0x00\n        /* \"#utility.yul\":17431:17446   */\n      revert\n        /* \"#utility.yul\":17581:17698   */\n    tag_152:\n        /* \"#utility.yul\":17690:17691   */\n      0x00\n        /* \"#utility.yul\":17687:17688   */\n      dup1\n        /* \"#utility.yul\":17680:17692   */\n      revert\n        /* \"#utility.yul\":17704:17886   */\n    tag_177:\n        /* \"#utility.yul\":17844:17878   */\n      0x54686520646561646c696e652068617320616c7265616479207061737365642e\n        /* \"#utility.yul\":17840:17841   */\n      0x00\n        /* \"#utility.yul\":17832:17838   */\n      dup3\n        /* \"#utility.yul\":17828:17842   */\n      add\n        /* \"#utility.yul\":17821:17879   */\n      mstore\n        /* \"#utility.yul\":17704:17886   */\n      pop\n      jump\t// out\n        /* \"#utility.yul\":17892:18059   */\n    tag_182:\n        /* \"#utility.yul\":18032:18051   */\n      0x54686520706f6f6c2069732066756c6c2e000000000000000000000000000000\n        /* \"#utility.yul\":18028:18029   */\n      0x00\n        /* \"#utility.yul\":18020:18026   */\n      dup3\n        /* \"#utility.yul\":18016:18030   */\n      add\n        /* \"#utility.yul\":18009:18052   */\n      mstore\n        /* \"#utility.yul\":17892:18059   */\n      pop\n      jump\t// out\n        /* \"#utility.yul\":18065:18297   */\n    tag_187:\n        /* \"#utility.yul\":18205:18239   */\n      0x546865207072697a6520706f6f6c206d7573742062652061206d756c7469706c\n        /* \"#utility.yul\":18201:18202   */\n      0x00\n        /* \"#utility.yul\":18193:18199   */\n      dup3\n        /* \"#utility.yul\":18189:18203   */\n      add\n        /* \"#utility.yul\":18182:18240   */\n      mstore\n        /* \"#utility.yul\":18274:18289   */\n      0x65206f6620312065746865722e00000000000000000000000000000000000000\n        /* \"#utility.yul\":18269:18271   */\n      0x20\n        /* \"#utility.yul\":18261:18267   */\n      dup3\n        /* \"#utility.yul\":18257:18272   */\n      add\n        /* \"#utility.yul\":18250:18290   */\n      mstore\n        /* \"#utility.yul\":18065:18297   */\n      pop\n      jump\t// out\n        /* \"#utility.yul\":18303:18536   */\n    tag_192:\n        /* \"#utility.yul\":18443:18477   */\n      0x596f75206861766520616c72656164792070617274696369706174656420696e\n        /* \"#utility.yul\":18439:18440   */\n      0x00\n        /* \"#utility.yul\":18431:18437   */\n      dup3\n        /* \"#utility.yul\":18427:18441   */\n      add\n        /* \"#utility.yul\":18420:18478   */\n      mstore\n        /* \"#utility.yul\":18512:18528   */\n      0x2074686973206c6f74746572792e000000000000000000000000000000000000\n        /* \"#utility.yul\":18507:18509   */\n      0x20\n        /* \"#utility.yul\":18499:18505   */\n      dup3\n        /* \"#utility.yul\":18495:18510   */\n      add\n        /* \"#utility.yul\":18488:18529   */\n      mstore\n        /* \"#utility.yul\":18303:18536   */\n      pop\n      jump\t// out\n        /* \"#utility.yul\":18542:18763   */\n    tag_197:\n        /* \"#utility.yul\":18682:18716   */\n      0x4f6e6c7920746865206f776e65722063616e2077697468647261772066756e64\n        /* \"#utility.yul\":18678:18679   */\n      0x00\n        /* \"#utility.yul\":18670:18676   */\n      dup3\n        /* \"#utility.yul\":18666:18680   */\n      add\n        /* \"#utility.yul\":18659:18717   */\n      mstore\n        /* \"#utility.yul\":18751:18755   */\n      0x732e000000000000000000000000000000000000000000000000000000000000\n        /* \"#utility.yul\":18746:18748   */\n      0x20\n        /* \"#utility.yul\":18738:18744   */\n      dup3\n        /* \"#utility.yul\":18734:18749   */\n      add\n        /* \"#utility.yul\":18727:18756   */\n      mstore\n        /* \"#utility.yul\":18542:18763   */\n      pop\n      jump\t// out\n        /* \"#utility.yul\":18769:18998   */\n    tag_202:\n        /* \"#utility.yul\":18909:18943   */\n      0x546865207072697a6520706f6f6c206d757374206265206d6f7265207468616e\n        /* \"#utility.yul\":18905:18906   */\n      0x00\n        /* \"#utility.yul\":18897:18903   */\n      dup3\n        /* \"#utility.yul\":18893:18907   */\n      add\n        /* \"#utility.yul\":18886:18944   */\n      mstore\n        /* \"#utility.yul\":18978:18990   */\n      0x2031302065746865722e00000000000000000000000000000000000000000000\n        /* \"#utility.yul\":18973:18975   */\n      0x20\n        /* \"#utility.yul\":18965:18971   */\n      dup3\n        /* \"#utility.yul\":18961:18976   */\n      add\n        /* \"#utility.yul\":18954:18991   */\n      mstore\n        /* \"#utility.yul\":18769:18998   */\n      pop\n      jump\t// out\n        /* \"#utility.yul\":19004:19184   */\n    tag_207:\n        /* \"#utility.yul\":19144:19176   */\n      0x546865206c6f747465727920686173206e6f7420656e646564207965742e0000\n        /* \"#utility.yul\":19140:19141   */\n      0x00\n        /* \"#utility.yul\":19132:19138   */\n      dup3\n        /* \"#utility.yul\":19128:19142   */\n      add\n        /* \"#utility.yul\":19121:19177   */\n      mstore\n        /* \"#utility.yul\":19004:19184   */\n      pop\n      jump\t// out\n        /* \"#utility.yul\":19190:19422   */\n    tag_212:\n        /* \"#utility.yul\":19330:19364   */\n      0x4f6e6c7920746865206c6f747465727920737461727465722063616e20656e64\n        /* \"#utility.yul\":19326:19327   */\n      0x00\n        /* \"#utility.yul\":19318:19324   */\n      dup3\n        /* \"#utility.yul\":19314:19328   */\n      add\n        /* \"#utility.yul\":19307:19365   */\n      mstore\n        /* \"#utility.yul\":19399:19414   */\n      0x20746865206c6f74746572792e00000000000000000000000000000000000000\n        /* \"#utility.yul\":19394:19396   */\n      0x20\n        /* \"#utility.yul\":19386:19392   */\n      dup3\n        /* \"#utility.yul\":19382:19397   */\n      add\n        /* \"#utility.yul\":19375:19415   */\n      mstore\n        /* \"#utility.yul\":19190:19422   */\n      pop\n      jump\t// out\n        /* \"#utility.yul\":19428:19610   */\n    tag_217:\n        /* \"#utility.yul\":19568:19602   */\n      0x54686520646561646c696e6520686173206e6f7420706173736564207965742e\n        /* \"#utility.yul\":19564:19565   */\n      0x00\n        /* \"#utility.yul\":19556:19562   */\n      dup3\n        /* \"#utility.yul\":19552:19566   */\n      add\n        /* \"#utility.yul\":19545:19603   */\n      mstore\n        /* \"#utility.yul\":19428:19610   */\n      pop\n      jump\t// out\n        /* \"#utility.yul\":19616:19840   */\n    tag_222:\n        /* \"#utility.yul\":19756:19790   */\n      0x596f75206d7573742073656e64203120657468657220746f2070617274696369\n        /* \"#utility.yul\":19752:19753   */\n      0x00\n        /* \"#utility.yul\":19744:19750   */\n      dup3\n        /* \"#utility.yul\":19740:19754   */\n      add\n        /* \"#utility.yul\":19733:19791   */\n      mstore\n        /* \"#utility.yul\":19825:19832   */\n      0x706174652e000000000000000000000000000000000000000000000000000000\n        /* \"#utility.yul\":19820:19822   */\n      0x20\n        /* \"#utility.yul\":19812:19818   */\n      dup3\n        /* \"#utility.yul\":19808:19823   */\n      add\n        /* \"#utility.yul\":19801:19833   */\n      mstore\n        /* \"#utility.yul\":19616:19840   */\n      pop\n      jump\t// out\n        /* \"#utility.yul\":19846:20027   */\n    tag_227:\n        /* \"#utility.yul\":19986:20019   */\n      0x546865726520617265206e6f2066756e647320746f2077697468647261772e00\n        /* \"#utility.yul\":19982:19983   */\n      0x00\n        /* \"#utility.yul\":19974:19980   */\n      dup3\n        /* \"#utility.yul\":19970:19984   */\n      add\n        /* \"#utility.yul\":19963:20020   */\n      mstore\n        /* \"#utility.yul\":19846:20027   */\n      pop\n      jump\t// out\n        /* \"#utility.yul\":20033:20270   */\n    tag_232:\n        /* \"#utility.yul\":20173:20207   */\n      0x596f7520646f6e2774206861766520656e6f7567682066756e647320746f2069\n        /* \"#utility.yul\":20169:20170   */\n      0x00\n        /* \"#utility.yul\":20161:20167   */\n      dup3\n        /* \"#utility.yul\":20157:20171   */\n      add\n        /* \"#utility.yul\":20150:20208   */\n      mstore\n        /* \"#utility.yul\":20242:20262   */\n      0x6e6974696174652061206c6f74746572792e0000000000000000000000000000\n        /* \"#utility.yul\":20237:20239   */\n      0x20\n        /* \"#utility.yul\":20229:20235   */\n      dup3\n        /* \"#utility.yul\":20225:20240   */\n      add\n        /* \"#utility.yul\":20218:20263   */\n      mstore\n        /* \"#utility.yul\":20033:20270   */\n      pop\n      jump\t// out\n        /* \"#utility.yul\":20276:20497   */\n    tag_237:\n        /* \"#utility.yul\":20416:20450   */\n      0x4f6e6c79206f6e6520706c6179657220686173206a6f696e656420736f206661\n        /* \"#utility.yul\":20412:20413   */\n      0x00\n        /* \"#utility.yul\":20404:20410   */\n      dup3\n        /* \"#utility.yul\":20400:20414   */\n      add\n        /* \"#utility.yul\":20393:20451   */\n      mstore\n        /* \"#utility.yul\":20485:20489   */\n      0x722e000000000000000000000000000000000000000000000000000000000000\n        /* \"#utility.yul\":20480:20482   */\n      0x20\n        /* \"#utility.yul\":20472:20478   */\n      dup3\n        /* \"#utility.yul\":20468:20483   */\n      add\n        /* \"#utility.yul\":20461:20490   */\n      mstore\n        /* \"#utility.yul\":20276:20497   */\n      pop\n      jump\t// out\n        /* \"#utility.yul\":20503:20730   */\n    tag_242:\n        /* \"#utility.yul\":20643:20677   */\n      0x54686520646561646c696e6520666f7220746865206c6f747465727920686173\n        /* \"#utility.yul\":20639:20640   */\n      0x00\n        /* \"#utility.yul\":20631:20637   */\n      dup3\n        /* \"#utility.yul\":20627:20641   */\n      add\n        /* \"#utility.yul\":20620:20678   */\n      mstore\n        /* \"#utility.yul\":20712:20722   */\n      0x207061737365642e000000000000000000000000000000000000000000000000\n        /* \"#utility.yul\":20707:20709   */\n      0x20\n        /* \"#utility.yul\":20699:20705   */\n      dup3\n        /* \"#utility.yul\":20695:20710   */\n      add\n        /* \"#utility.yul\":20688:20723   */\n      mstore\n        /* \"#utility.yul\":20503:20730   */\n      pop\n      jump\t// out\n        /* \"#utility.yul\":20736:20916   */\n    tag_247:\n        /* \"#utility.yul\":20876:20908   */\n      0x546865206c6f74746572792068617320616c726561647920656e6465642e0000\n        /* \"#utility.yul\":20872:20873   */\n      0x00\n        /* \"#utility.yul\":20864:20870   */\n      dup3\n        /* \"#utility.yul\":20860:20874   */\n      add\n        /* \"#utility.yul\":20853:20909   */\n      mstore\n        /* \"#utility.yul\":20736:20916   */\n      pop\n      jump\t// out\n        /* \"#utility.yul\":20922:21044   */\n    tag_144:\n        /* \"#utility.yul\":20995:21019   */\n      tag_344\n        /* \"#utility.yul\":21013:21018   */\n      dup2\n        /* \"#utility.yul\":20995:21019   */\n      tag_167\n      jump\t// in\n    tag_344:\n        /* \"#utility.yul\":20988:20993   */\n      dup2\n        /* \"#utility.yul\":20985:21020   */\n      eq\n        /* \"#utility.yul\":20975:21038   */\n      tag_345\n      jumpi\n        /* \"#utility.yul\":21034:21035   */\n      0x00\n        /* \"#utility.yul\":21031:21032   */\n      dup1\n        /* \"#utility.yul\":21024:21036   */\n      revert\n        /* \"#utility.yul\":20975:21038   */\n    tag_345:\n        /* \"#utility.yul\":20922:21044   */\n      pop\n      jump\t// out\n        /* \"#utility.yul\":21050:21172   */\n    tag_148:\n        /* \"#utility.yul\":21123:21147   */\n      tag_347\n        /* \"#utility.yul\":21141:21146   */\n      dup2\n        /* \"#utility.yul\":21123:21147   */\n      tag_251\n      jump\t// in\n    tag_347:\n        /* \"#utility.yul\":21116:21121   */\n      dup2\n        /* \"#utility.yul\":21113:21148   */\n      eq\n        /* \"#utility.yul\":21103:21166   */\n      tag_348\n      jumpi\n        /* \"#utility.yul\":21162:21163   */\n      0x00\n        /* \"#utility.yul\":21159:21160   */\n      dup1\n        /* \"#utility.yul\":21152:21164   */\n      revert\n        /* \"#utility.yul\":21103:21166   */\n    tag_348:\n        /* \"#utility.yul\":21050:21172   */\n      pop\n      jump\t// out\n\n    auxdata: 0xa26469706673582212208cfaf78cfe417a43684644709ae86937c00713e6e9124f7ac0f9c06517736c8464736f6c63430008070033\n}\n",
				"bytecode": {
					"linkReferences": {},
					"object": "608060405234801561001057600080fd5b50336000806101000a81548173ffffffffffffffffffffffffffffffffffffffff021916908373ffffffffffffffffffffffffffffffffffffffff160217905550611d45806100606000396000f3fe60806040526004361061007b5760003560e01c80638d5464471161004e5780638d5464471461013d5780638da5cb5b1461017a5780638fb4b573146101a5578063b91038c7146101c15761007b565b80633ccfd60b146100805780634d722c4c14610097578063727da1bc146100d45780638c4dd39d14610114575b600080fd5b34801561008c57600080fd5b506100956101dd565b005b3480156100a357600080fd5b506100be60048036038101906100b991906111f4565b6102f7565b6040516100cb9190611539565b60405180910390f35b3480156100e057600080fd5b506100fb60048036038101906100f691906111f4565b610498565b60405161010b9493929190611734565b60405180910390f35b34801561012057600080fd5b5061013b600480360381019061013691906111f4565b6104d5565b005b34801561014957600080fd5b50610164600480360381019061015f9190611221565b610928565b6040516101719190611539565b60405180910390f35b34801561018657600080fd5b5061018f610957565b60405161019c919061151e565b60405180910390f35b6101bf60048036038101906101ba9190611261565b61097b565b005b6101db60048036038101906101d691906111f4565b610cd0565b005b60008054906101000a900473ffffffffffffffffffffffffffffffffffffffff1673ffffffffffffffffffffffffffffffffffffffff163373ffffffffffffffffffffffffffffffffffffffff161461026b576040517f08c379a0000000000000000000000000000000000000000000000000000000008152600401610262906115d4565b60405180910390fd5b600047116102ae576040517f08c379a00000000000000000000000000000000000000000000000000000000081526004016102a590611694565b60405180910390fd5b3373ffffffffffffffffffffffffffffffffffffffff166108fc479081150290604051600060405180830381858888f193505050501580156102f4573d6000803e3d6000fd5b50565b60008160011515600160008373ffffffffffffffffffffffffffffffffffffffff1673ffffffffffffffffffffffffffffffffffffffff16815260200190815260200160002060040160009054906101000a900460ff16151514610390576040517f08c379a000000000000000000000000000000000000000000000000000000000815260040161038790611614565b60405180910390fd5b600160008473ffffffffffffffffffffffffffffffffffffffff1673ffffffffffffffffffffffffffffffffffffffff168152602001908152602001600020600001600160008573ffffffffffffffffffffffffffffffffffffffff1673ffffffffffffffffffffffffffffffffffffffff1681526020019081526020016000206002015481548110610426576104256118c1565b5b9060005260206000200160009054906101000a900473ffffffffffffffffffffffffffffffffffffffff1673ffffffffffffffffffffffffffffffffffffffff163373ffffffffffffffffffffffffffffffffffffffff16141561048d5760019150610492565b600091505b50919050565b60016020528060005260406000206000915090508060010154908060020154908060030154908060040160009054906101000a900460ff16905084565b80600160008273ffffffffffffffffffffffffffffffffffffffff1673ffffffffffffffffffffffffffffffffffffffff16815260200190815260200160002060040160009054906101000a900460ff1615610566576040517f08c379a000000000000000000000000000000000000000000000000000000000815260040161055d90611714565b60405180910390fd5b3373ffffffffffffffffffffffffffffffffffffffff168273ffffffffffffffffffffffffffffffffffffffff16146105d4576040517f08c379a00000000000000000000000000000000000000000000000000000000081526004016105cb90611634565b60405180910390fd5b600160008373ffffffffffffffffffffffffffffffffffffffff1673ffffffffffffffffffffffffffffffffffffffff168152602001908152602001600020600301544211610658576040517f08c379a000000000000000000000000000000000000000000000000000000000815260040161064f90611654565b60405180910390fd5b60018060008473ffffffffffffffffffffffffffffffffffffffff1673ffffffffffffffffffffffffffffffffffffffff16815260200190815260200160002060000180549050116106df576040517f08c379a00000000000000000000000000000000000000000000000000000000081526004016106d6906116d4565b60405180910390fd5b60018060008473ffffffffffffffffffffffffffffffffffffffff1673ffffffffffffffffffffffffffffffffffffffff16815260200190815260200160002060040160006101000a81548160ff0219169083151502179055506000600642446040516020016107509291906114f2565b6040516020818303038152906040528051906020012060001c6107739190611832565b90506000600160008573ffffffffffffffffffffffffffffffffffffffff1673ffffffffffffffffffffffffffffffffffffffff16815260200190815260200160002060000182815481106107cb576107ca6118c1565b5b9060005260206000200160009054906101000a900473ffffffffffffffffffffffffffffffffffffffff1690508073ffffffffffffffffffffffffffffffffffffffff166108fc600160008773ffffffffffffffffffffffffffffffffffffffff1673ffffffffffffffffffffffffffffffffffffffff168152602001908152602001600020600101549081150290604051600060405180830381858888f19350505050158015610880573d6000803e3d6000fd5b5060018060008673ffffffffffffffffffffffffffffffffffffffff1673ffffffffffffffffffffffffffffffffffffffff16815260200190815260200160002060040160006101000a81548160ff02191690831515021790555081600160008673ffffffffffffffffffffffffffffffffffffffff1673ffffffffffffffffffffffffffffffffffffffff1681526020019081526020016000206002018190555050505050565b60026020528160005260406000206020528060005260406000206000915091509054906101000a900460ff1681565b60008054906101000a900473ffffffffffffffffffffffffffffffffffffffff1681565b8134116109bd576040517f08c379a00000000000000000000000000000000000000000000000000000000081526004016109b4906116b4565b60405180910390fd5b4281116109ff576040517f08c379a00000000000000000000000000000000000000000000000000000000081526004016109f690611554565b60405180910390fd5b6000670de0b6b3a764000083610a159190611832565b14610a55576040517f08c379a0000000000000000000000000000000000000000000000000000000008152600401610a4c90611594565b60405180910390fd5b678ac7230489e80000821015610aa0576040517f08c379a0000000000000000000000000000000000000000000000000000000008152600401610a97906115f4565b60405180910390fd5b600067ffffffffffffffff811115610abb57610aba6118f0565b5b604051908082528060200260200182016040528015610ae95781602001602082028036833780820191505090505b50600160003373ffffffffffffffffffffffffffffffffffffffff1673ffffffffffffffffffffffffffffffffffffffff1681526020019081526020016000206000019080519060200190610b3f929190611123565b5081600160003373ffffffffffffffffffffffffffffffffffffffff1673ffffffffffffffffffffffffffffffffffffffff1681526020019081526020016000206001018190555080600160003373ffffffffffffffffffffffffffffffffffffffff1673ffffffffffffffffffffffffffffffffffffffff168152602001908152602001600020600301819055506000600160003373ffffffffffffffffffffffffffffffffffffffff1673ffffffffffffffffffffffffffffffffffffffff16815260200190815260200160002060040160006101000a81548160ff021916908315150217905550600160003373ffffffffffffffffffffffffffffffffffffffff1673ffffffffffffffffffffffffffffffffffffffff168152602001908152602001600020600001339080600181540180825580915050600190039060005260206000200160009091909190916101000a81548173ffffffffffffffffffffffffffffffffffffffff021916908373ffffffffffffffffffffffffffffffffffffffff1602179055505050565b80600160008273ffffffffffffffffffffffffffffffffffffffff1673ffffffffffffffffffffffffffffffffffffffff16815260200190815260200160002060040160009054906101000a900460ff1615610d61576040517f08c379a0000000000000000000000000000000000000000000000000000000008152600401610d5890611714565b60405180910390fd5b600160008373ffffffffffffffffffffffffffffffffffffffff1673ffffffffffffffffffffffffffffffffffffffff168152602001908152602001600020600301544210610de5576040517f08c379a0000000000000000000000000000000000000000000000000000000008152600401610ddc906116f4565b60405180910390fd5b6005600160008473ffffffffffffffffffffffffffffffffffffffff1673ffffffffffffffffffffffffffffffffffffffff168152602001908152602001600020600001805490501115610e6e576040517f08c379a0000000000000000000000000000000000000000000000000000000008152600401610e6590611574565b60405180910390fd5b6000670de0b6b3a764000034610e849190611832565b14610ec4576040517f08c379a0000000000000000000000000000000000000000000000000000000008152600401610ebb90611674565b60405180910390fd5b600260008373ffffffffffffffffffffffffffffffffffffffff1673ffffffffffffffffffffffffffffffffffffffff16815260200190815260200160002060003373ffffffffffffffffffffffffffffffffffffffff1673ffffffffffffffffffffffffffffffffffffffff16815260200190815260200160002060009054906101000a900460ff1615610f8e576040517f08c379a0000000000000000000000000000000000000000000000000000000008152600401610f85906115b4565b60405180910390fd5b600160008373ffffffffffffffffffffffffffffffffffffffff1673ffffffffffffffffffffffffffffffffffffffff168152602001908152602001600020600001339080600181540180825580915050600190039060005260206000200160009091909190916101000a81548173ffffffffffffffffffffffffffffffffffffffff021916908373ffffffffffffffffffffffffffffffffffffffff16021790555034600160008473ffffffffffffffffffffffffffffffffffffffff1673ffffffffffffffffffffffffffffffffffffffff1681526020019081526020016000206001016000828254611083919061178a565b925050819055506001600260008473ffffffffffffffffffffffffffffffffffffffff1673ffffffffffffffffffffffffffffffffffffffff16815260200190815260200160002060003373ffffffffffffffffffffffffffffffffffffffff1673ffffffffffffffffffffffffffffffffffffffff16815260200190815260200160002060006101000a81548160ff0219169083151502179055505050565b82805482825590600052602060002090810192821561119c579160200282015b8281111561119b5782518260006101000a81548173ffffffffffffffffffffffffffffffffffffffff021916908373ffffffffffffffffffffffffffffffffffffffff16021790555091602001919060010190611143565b5b5090506111a991906111ad565b5090565b5b808211156111c65760008160009055506001016111ae565b5090565b6000813590506111d981611ce1565b92915050565b6000813590506111ee81611cf8565b92915050565b60006020828403121561120a5761120961191f565b5b6000611218848285016111ca565b91505092915050565b600080604083850312156112385761123761191f565b5b6000611246858286016111ca565b9250506020611257858286016111ca565b9150509250929050565b600080604083850312156112785761127761191f565b5b6000611286858286016111df565b9250506020611297858286016111df565b9150509250929050565b6112aa816117e0565b82525050565b6112b9816117f2565b82525050565b60006112cc602083611779565b91506112d782611924565b602082019050919050565b60006112ef601183611779565b91506112fa8261194d565b602082019050919050565b6000611312602d83611779565b915061131d82611976565b604082019050919050565b6000611335602e83611779565b9150611340826119c5565b604082019050919050565b6000611358602283611779565b915061136382611a14565b604082019050919050565b600061137b602a83611779565b915061138682611a63565b604082019050919050565b600061139e601e83611779565b91506113a982611ab2565b602082019050919050565b60006113c1602d83611779565b91506113cc82611adb565b604082019050919050565b60006113e4602083611779565b91506113ef82611b2a565b602082019050919050565b6000611407602583611779565b915061141282611b53565b604082019050919050565b600061142a601f83611779565b915061143582611ba2565b602082019050919050565b600061144d603283611779565b915061145882611bcb565b604082019050919050565b6000611470602283611779565b915061147b82611c1a565b604082019050919050565b6000611493602883611779565b915061149e82611c69565b604082019050919050565b60006114b6601e83611779565b91506114c182611cb8565b602082019050919050565b6114d58161181e565b82525050565b6114ec6114e78261181e565b611828565b82525050565b60006114fe82856114db565b60208201915061150e82846114db565b6020820191508190509392505050565b600060208201905061153360008301846112a1565b92915050565b600060208201905061154e60008301846112b0565b92915050565b6000602082019050818103600083015261156d816112bf565b9050919050565b6000602082019050818103600083015261158d816112e2565b9050919050565b600060208201905081810360008301526115ad81611305565b9050919050565b600060208201905081810360008301526115cd81611328565b9050919050565b600060208201905081810360008301526115ed8161134b565b9050919050565b6000602082019050818103600083015261160d8161136e565b9050919050565b6000602082019050818103600083015261162d81611391565b9050919050565b6000602082019050818103600083015261164d816113b4565b9050919050565b6000602082019050818103600083015261166d816113d7565b9050919050565b6000602082019050818103600083015261168d816113fa565b9050919050565b600060208201905081810360008301526116ad8161141d565b9050919050565b600060208201905081810360008301526116cd81611440565b9050919050565b600060208201905081810360008301526116ed81611463565b9050919050565b6000602082019050818103600083015261170d81611486565b9050919050565b6000602082019050818103600083015261172d816114a9565b9050919050565b600060808201905061174960008301876114cc565b61175660208301866114cc565b61176360408301856114cc565b61177060608301846112b0565b95945050505050565b600082825260208201905092915050565b60006117958261181e565b91506117a08361181e565b9250827fffffffffffffffffffffffffffffffffffffffffffffffffffffffffffffffff038211156117d5576117d4611863565b5b828201905092915050565b60006117eb826117fe565b9050919050565b60008115159050919050565b600073ffffffffffffffffffffffffffffffffffffffff82169050919050565b6000819050919050565b6000819050919050565b600061183d8261181e565b91506118488361181e565b92508261185857611857611892565b5b828206905092915050565b7f4e487b7100000000000000000000000000000000000000000000000000000000600052601160045260246000fd5b7f4e487b7100000000000000000000000000000000000000000000000000000000600052601260045260246000fd5b7f4e487b7100000000000000000000000000000000000000000000000000000000600052603260045260246000fd5b7f4e487b7100000000000000000000000000000000000000000000000000000000600052604160045260246000fd5b600080fd5b7f54686520646561646c696e652068617320616c7265616479207061737365642e600082015250565b7f54686520706f6f6c2069732066756c6c2e000000000000000000000000000000600082015250565b7f546865207072697a6520706f6f6c206d7573742062652061206d756c7469706c60008201527f65206f6620312065746865722e00000000000000000000000000000000000000602082015250565b7f596f75206861766520616c72656164792070617274696369706174656420696e60008201527f2074686973206c6f74746572792e000000000000000000000000000000000000602082015250565b7f4f6e6c7920746865206f776e65722063616e2077697468647261772066756e6460008201527f732e000000000000000000000000000000000000000000000000000000000000602082015250565b7f546865207072697a6520706f6f6c206d757374206265206d6f7265207468616e60008201527f2031302065746865722e00000000000000000000000000000000000000000000602082015250565b7f546865206c6f747465727920686173206e6f7420656e646564207965742e0000600082015250565b7f4f6e6c7920746865206c6f747465727920737461727465722063616e20656e6460008201527f20746865206c6f74746572792e00000000000000000000000000000000000000602082015250565b7f54686520646561646c696e6520686173206e6f7420706173736564207965742e600082015250565b7f596f75206d7573742073656e64203120657468657220746f207061727469636960008201527f706174652e000000000000000000000000000000000000000000000000000000602082015250565b7f546865726520617265206e6f2066756e647320746f2077697468647261772e00600082015250565b7f596f7520646f6e2774206861766520656e6f7567682066756e647320746f206960008201527f6e6974696174652061206c6f74746572792e0000000000000000000000000000602082015250565b7f4f6e6c79206f6e6520706c6179657220686173206a6f696e656420736f20666160008201527f722e000000000000000000000000000000000000000000000000000000000000602082015250565b7f54686520646561646c696e6520666f7220746865206c6f74746572792068617360008201527f207061737365642e000000000000000000000000000000000000000000000000602082015250565b7f546865206c6f74746572792068617320616c726561647920656e6465642e0000600082015250565b611cea816117e0565b8114611cf557600080fd5b50565b611d018161181e565b8114611d0c57600080fd5b5056fea26469706673582212208cfaf78cfe417a43684644709ae86937c00713e6e9124f7ac0f9c06517736c8464736f6c63430008070033",
					"opcodes": "PUSH1 0x80 PUSH1 0x40 MSTORE CALLVALUE DUP1 ISZERO PUSH2 0x10 JUMPI PUSH1 0x0 DUP1 REVERT JUMPDEST POP CALLER PUSH1 0x0 DUP1 PUSH2 0x100 EXP DUP2 SLOAD DUP2 PUSH20 0xFFFFFFFFFFFFFFFFFFFFFFFFFFFFFFFFFFFFFFFF MUL NOT AND SWAP1 DUP4 PUSH20 0xFFFFFFFFFFFFFFFFFFFFFFFFFFFFFFFFFFFFFFFF AND MUL OR SWAP1 SSTORE POP PUSH2 0x1D45 DUP1 PUSH2 0x60 PUSH1 0x0 CODECOPY PUSH1 0x0 RETURN INVALID PUSH1 0x80 PUSH1 0x40 MSTORE PUSH1 0x4 CALLDATASIZE LT PUSH2 0x7B JUMPI PUSH1 0x0 CALLDATALOAD PUSH1 0xE0 SHR DUP1 PUSH4 0x8D546447 GT PUSH2 0x4E JUMPI DUP1 PUSH4 0x8D546447 EQ PUSH2 0x13D JUMPI DUP1 PUSH4 0x8DA5CB5B EQ PUSH2 0x17A JUMPI DUP1 PUSH4 0x8FB4B573 EQ PUSH2 0x1A5 JUMPI DUP1 PUSH4 0xB91038C7 EQ PUSH2 0x1C1 JUMPI PUSH2 0x7B JUMP JUMPDEST DUP1 PUSH4 0x3CCFD60B EQ PUSH2 0x80 JUMPI DUP1 PUSH4 0x4D722C4C EQ PUSH2 0x97 JUMPI DUP1 PUSH4 0x727DA1BC EQ PUSH2 0xD4 JUMPI DUP1 PUSH4 0x8C4DD39D EQ PUSH2 0x114 JUMPI JUMPDEST PUSH1 0x0 DUP1 REVERT JUMPDEST CALLVALUE DUP1 ISZERO PUSH2 0x8C JUMPI PUSH1 0x0 DUP1 REVERT JUMPDEST POP PUSH2 0x95 PUSH2 0x1DD JUMP JUMPDEST STOP JUMPDEST CALLVALUE DUP1 ISZERO PUSH2 0xA3 JUMPI PUSH1 0x0 DUP1 REVERT JUMPDEST POP PUSH2 0xBE PUSH1 0x4 DUP1 CALLDATASIZE SUB DUP2 ADD SWAP1 PUSH2 0xB9 SWAP2 SWAP1 PUSH2 0x11F4 JUMP JUMPDEST PUSH2 0x2F7 JUMP JUMPDEST PUSH1 0x40 MLOAD PUSH2 0xCB SWAP2 SWAP1 PUSH2 0x1539 JUMP JUMPDEST PUSH1 0x40 MLOAD DUP1 SWAP2 SUB SWAP1 RETURN JUMPDEST CALLVALUE DUP1 ISZERO PUSH2 0xE0 JUMPI PUSH1 0x0 DUP1 REVERT JUMPDEST POP PUSH2 0xFB PUSH1 0x4 DUP1 CALLDATASIZE SUB DUP2 ADD SWAP1 PUSH2 0xF6 SWAP2 SWAP1 PUSH2 0x11F4 JUMP JUMPDEST PUSH2 0x498 JUMP JUMPDEST PUSH1 0x40 MLOAD PUSH2 0x10B SWAP5 SWAP4 SWAP3 SWAP2 SWAP1 PUSH2 0x1734 JUMP JUMPDEST PUSH1 0x40 MLOAD DUP1 SWAP2 SUB SWAP1 RETURN JUMPDEST CALLVALUE DUP1 ISZERO PUSH2 0x120 JUMPI PUSH1 0x0 DUP1 REVERT JUMPDEST POP PUSH2 0x13B PUSH1 0x4 DUP1 CALLDATASIZE SUB DUP2 ADD SWAP1 PUSH2 0x136 SWAP2 SWAP1 PUSH2 0x11F4 JUMP JUMPDEST PUSH2 0x4D5 JUMP JUMPDEST STOP JUMPDEST CALLVALUE DUP1 ISZERO PUSH2 0x149 JUMPI PUSH1 0x0 DUP1 REVERT JUMPDEST POP PUSH2 0x164 PUSH1 0x4 DUP1 CALLDATASIZE SUB DUP2 ADD SWAP1 PUSH2 0x15F SWAP2 SWAP1 PUSH2 0x1221 JUMP JUMPDEST PUSH2 0x928 JUMP JUMPDEST PUSH1 0x40 MLOAD PUSH2 0x171 SWAP2 SWAP1 PUSH2 0x1539 JUMP JUMPDEST PUSH1 0x40 MLOAD DUP1 SWAP2 SUB SWAP1 RETURN JUMPDEST CALLVALUE DUP1 ISZERO PUSH2 0x186 JUMPI PUSH1 0x0 DUP1 REVERT JUMPDEST POP PUSH2 0x18F PUSH2 0x957 JUMP JUMPDEST PUSH1 0x40 MLOAD PUSH2 0x19C SWAP2 SWAP1 PUSH2 0x151E JUMP JUMPDEST PUSH1 0x40 MLOAD DUP1 SWAP2 SUB SWAP1 RETURN JUMPDEST PUSH2 0x1BF PUSH1 0x4 DUP1 CALLDATASIZE SUB DUP2 ADD SWAP1 PUSH2 0x1BA SWAP2 SWAP1 PUSH2 0x1261 JUMP JUMPDEST PUSH2 0x97B JUMP JUMPDEST STOP JUMPDEST PUSH2 0x1DB PUSH1 0x4 DUP1 CALLDATASIZE SUB DUP2 ADD SWAP1 PUSH2 0x1D6 SWAP2 SWAP1 PUSH2 0x11F4 JUMP JUMPDEST PUSH2 0xCD0 JUMP JUMPDEST STOP JUMPDEST PUSH1 0x0 DUP1 SLOAD SWAP1 PUSH2 0x100 EXP SWAP1 DIV PUSH20 0xFFFFFFFFFFFFFFFFFFFFFFFFFFFFFFFFFFFFFFFF AND PUSH20 0xFFFFFFFFFFFFFFFFFFFFFFFFFFFFFFFFFFFFFFFF AND CALLER PUSH20 0xFFFFFFFFFFFFFFFFFFFFFFFFFFFFFFFFFFFFFFFF AND EQ PUSH2 0x26B JUMPI PUSH1 0x40 MLOAD PUSH32 0x8C379A000000000000000000000000000000000000000000000000000000000 DUP2 MSTORE PUSH1 0x4 ADD PUSH2 0x262 SWAP1 PUSH2 0x15D4 JUMP JUMPDEST PUSH1 0x40 MLOAD DUP1 SWAP2 SUB SWAP1 REVERT JUMPDEST PUSH1 0x0 SELFBALANCE GT PUSH2 0x2AE JUMPI PUSH1 0x40 MLOAD PUSH32 0x8C379A000000000000000000000000000000000000000000000000000000000 DUP2 MSTORE PUSH1 0x4 ADD PUSH2 0x2A5 SWAP1 PUSH2 0x1694 JUMP JUMPDEST PUSH1 0x40 MLOAD DUP1 SWAP2 SUB SWAP1 REVERT JUMPDEST CALLER PUSH20 0xFFFFFFFFFFFFFFFFFFFFFFFFFFFFFFFFFFFFFFFF AND PUSH2 0x8FC SELFBALANCE SWAP1 DUP2 ISZERO MUL SWAP1 PUSH1 0x40 MLOAD PUSH1 0x0 PUSH1 0x40 MLOAD DUP1 DUP4 SUB DUP2 DUP6 DUP9 DUP9 CALL SWAP4 POP POP POP POP ISZERO DUP1 ISZERO PUSH2 0x2F4 JUMPI RETURNDATASIZE PUSH1 0x0 DUP1 RETURNDATACOPY RETURNDATASIZE PUSH1 0x0 REVERT JUMPDEST POP JUMP JUMPDEST PUSH1 0x0 DUP2 PUSH1 0x1 ISZERO ISZERO PUSH1 0x1 PUSH1 0x0 DUP4 PUSH20 0xFFFFFFFFFFFFFFFFFFFFFFFFFFFFFFFFFFFFFFFF AND PUSH20 0xFFFFFFFFFFFFFFFFFFFFFFFFFFFFFFFFFFFFFFFF AND DUP2 MSTORE PUSH1 0x20 ADD SWAP1 DUP2 MSTORE PUSH1 0x20 ADD PUSH1 0x0 KECCAK256 PUSH1 0x4 ADD PUSH1 0x0 SWAP1 SLOAD SWAP1 PUSH2 0x100 EXP SWAP1 DIV PUSH1 0xFF AND ISZERO ISZERO EQ PUSH2 0x390 JUMPI PUSH1 0x40 MLOAD PUSH32 0x8C379A000000000000000000000000000000000000000000000000000000000 DUP2 MSTORE PUSH1 0x4 ADD PUSH2 0x387 SWAP1 PUSH2 0x1614 JUMP JUMPDEST PUSH1 0x40 MLOAD DUP1 SWAP2 SUB SWAP1 REVERT JUMPDEST PUSH1 0x1 PUSH1 0x0 DUP5 PUSH20 0xFFFFFFFFFFFFFFFFFFFFFFFFFFFFFFFFFFFFFFFF AND PUSH20 0xFFFFFFFFFFFFFFFFFFFFFFFFFFFFFFFFFFFFFFFF AND DUP2 MSTORE PUSH1 0x20 ADD SWAP1 DUP2 MSTORE PUSH1 0x20 ADD PUSH1 0x0 KECCAK256 PUSH1 0x0 ADD PUSH1 0x1 PUSH1 0x0 DUP6 PUSH20 0xFFFFFFFFFFFFFFFFFFFFFFFFFFFFFFFFFFFFFFFF AND PUSH20 0xFFFFFFFFFFFFFFFFFFFFFFFFFFFFFFFFFFFFFFFF AND DUP2 MSTORE PUSH1 0x20 ADD SWAP1 DUP2 MSTORE PUSH1 0x20 ADD PUSH1 0x0 KECCAK256 PUSH1 0x2 ADD SLOAD DUP2 SLOAD DUP2 LT PUSH2 0x426 JUMPI PUSH2 0x425 PUSH2 0x18C1 JUMP JUMPDEST JUMPDEST SWAP1 PUSH1 0x0 MSTORE PUSH1 0x20 PUSH1 0x0 KECCAK256 ADD PUSH1 0x0 SWAP1 SLOAD SWAP1 PUSH2 0x100 EXP SWAP1 DIV PUSH20 0xFFFFFFFFFFFFFFFFFFFFFFFFFFFFFFFFFFFFFFFF AND PUSH20 0xFFFFFFFFFFFFFFFFFFFFFFFFFFFFFFFFFFFFFFFF AND CALLER PUSH20 0xFFFFFFFFFFFFFFFFFFFFFFFFFFFFFFFFFFFFFFFF AND EQ ISZERO PUSH2 0x48D JUMPI PUSH1 0x1 SWAP2 POP PUSH2 0x492 JUMP JUMPDEST PUSH1 0x0 SWAP2 POP JUMPDEST POP SWAP2 SWAP1 POP JUMP JUMPDEST PUSH1 0x1 PUSH1 0x20 MSTORE DUP1 PUSH1 0x0 MSTORE PUSH1 0x40 PUSH1 0x0 KECCAK256 PUSH1 0x0 SWAP2 POP SWAP1 POP DUP1 PUSH1 0x1 ADD SLOAD SWAP1 DUP1 PUSH1 0x2 ADD SLOAD SWAP1 DUP1 PUSH1 0x3 ADD SLOAD SWAP1 DUP1 PUSH1 0x4 ADD PUSH1 0x0 SWAP1 SLOAD SWAP1 PUSH2 0x100 EXP SWAP1 DIV PUSH1 0xFF AND SWAP1 POP DUP5 JUMP JUMPDEST DUP1 PUSH1 0x1 PUSH1 0x0 DUP3 PUSH20 0xFFFFFFFFFFFFFFFFFFFFFFFFFFFFFFFFFFFFFFFF AND PUSH20 0xFFFFFFFFFFFFFFFFFFFFFFFFFFFFFFFFFFFFFFFF AND DUP2 MSTORE PUSH1 0x20 ADD SWAP1 DUP2 MSTORE PUSH1 0x20 ADD PUSH1 0x0 KECCAK256 PUSH1 0x4 ADD PUSH1 0x0 SWAP1 SLOAD SWAP1 PUSH2 0x100 EXP SWAP1 DIV PUSH1 0xFF AND ISZERO PUSH2 0x566 JUMPI PUSH1 0x40 MLOAD PUSH32 0x8C379A000000000000000000000000000000000000000000000000000000000 DUP2 MSTORE PUSH1 0x4 ADD PUSH2 0x55D SWAP1 PUSH2 0x1714 JUMP JUMPDEST PUSH1 0x40 MLOAD DUP1 SWAP2 SUB SWAP1 REVERT JUMPDEST CALLER PUSH20 0xFFFFFFFFFFFFFFFFFFFFFFFFFFFFFFFFFFFFFFFF AND DUP3 PUSH20 0xFFFFFFFFFFFFFFFFFFFFFFFFFFFFFFFFFFFFFFFF AND EQ PUSH2 0x5D4 JUMPI PUSH1 0x40 MLOAD PUSH32 0x8C379A000000000000000000000000000000000000000000000000000000000 DUP2 MSTORE PUSH1 0x4 ADD PUSH2 0x5CB SWAP1 PUSH2 0x1634 JUMP JUMPDEST PUSH1 0x40 MLOAD DUP1 SWAP2 SUB SWAP1 REVERT JUMPDEST PUSH1 0x1 PUSH1 0x0 DUP4 PUSH20 0xFFFFFFFFFFFFFFFFFFFFFFFFFFFFFFFFFFFFFFFF AND PUSH20 0xFFFFFFFFFFFFFFFFFFFFFFFFFFFFFFFFFFFFFFFF AND DUP2 MSTORE PUSH1 0x20 ADD SWAP1 DUP2 MSTORE PUSH1 0x20 ADD PUSH1 0x0 KECCAK256 PUSH1 0x3 ADD SLOAD TIMESTAMP GT PUSH2 0x658 JUMPI PUSH1 0x40 MLOAD PUSH32 0x8C379A000000000000000000000000000000000000000000000000000000000 DUP2 MSTORE PUSH1 0x4 ADD PUSH2 0x64F SWAP1 PUSH2 0x1654 JUMP JUMPDEST PUSH1 0x40 MLOAD DUP1 SWAP2 SUB SWAP1 REVERT JUMPDEST PUSH1 0x1 DUP1 PUSH1 0x0 DUP5 PUSH20 0xFFFFFFFFFFFFFFFFFFFFFFFFFFFFFFFFFFFFFFFF AND PUSH20 0xFFFFFFFFFFFFFFFFFFFFFFFFFFFFFFFFFFFFFFFF AND DUP2 MSTORE PUSH1 0x20 ADD SWAP1 DUP2 MSTORE PUSH1 0x20 ADD PUSH1 0x0 KECCAK256 PUSH1 0x0 ADD DUP1 SLOAD SWAP1 POP GT PUSH2 0x6DF JUMPI PUSH1 0x40 MLOAD PUSH32 0x8C379A000000000000000000000000000000000000000000000000000000000 DUP2 MSTORE PUSH1 0x4 ADD PUSH2 0x6D6 SWAP1 PUSH2 0x16D4 JUMP JUMPDEST PUSH1 0x40 MLOAD DUP1 SWAP2 SUB SWAP1 REVERT JUMPDEST PUSH1 0x1 DUP1 PUSH1 0x0 DUP5 PUSH20 0xFFFFFFFFFFFFFFFFFFFFFFFFFFFFFFFFFFFFFFFF AND PUSH20 0xFFFFFFFFFFFFFFFFFFFFFFFFFFFFFFFFFFFFFFFF AND DUP2 MSTORE PUSH1 0x20 ADD SWAP1 DUP2 MSTORE PUSH1 0x20 ADD PUSH1 0x0 KECCAK256 PUSH1 0x4 ADD PUSH1 0x0 PUSH2 0x100 EXP DUP2 SLOAD DUP2 PUSH1 0xFF MUL NOT AND SWAP1 DUP4 ISZERO ISZERO MUL OR SWAP1 SSTORE POP PUSH1 0x0 PUSH1 0x6 TIMESTAMP DIFFICULTY PUSH1 0x40 MLOAD PUSH1 0x20 ADD PUSH2 0x750 SWAP3 SWAP2 SWAP1 PUSH2 0x14F2 JUMP JUMPDEST PUSH1 0x40 MLOAD PUSH1 0x20 DUP2 DUP4 SUB SUB DUP2 MSTORE SWAP1 PUSH1 0x40 MSTORE DUP1 MLOAD SWAP1 PUSH1 0x20 ADD KECCAK256 PUSH1 0x0 SHR PUSH2 0x773 SWAP2 SWAP1 PUSH2 0x1832 JUMP JUMPDEST SWAP1 POP PUSH1 0x0 PUSH1 0x1 PUSH1 0x0 DUP6 PUSH20 0xFFFFFFFFFFFFFFFFFFFFFFFFFFFFFFFFFFFFFFFF AND PUSH20 0xFFFFFFFFFFFFFFFFFFFFFFFFFFFFFFFFFFFFFFFF AND DUP2 MSTORE PUSH1 0x20 ADD SWAP1 DUP2 MSTORE PUSH1 0x20 ADD PUSH1 0x0 KECCAK256 PUSH1 0x0 ADD DUP3 DUP2 SLOAD DUP2 LT PUSH2 0x7CB JUMPI PUSH2 0x7CA PUSH2 0x18C1 JUMP JUMPDEST JUMPDEST SWAP1 PUSH1 0x0 MSTORE PUSH1 0x20 PUSH1 0x0 KECCAK256 ADD PUSH1 0x0 SWAP1 SLOAD SWAP1 PUSH2 0x100 EXP SWAP1 DIV PUSH20 0xFFFFFFFFFFFFFFFFFFFFFFFFFFFFFFFFFFFFFFFF AND SWAP1 POP DUP1 PUSH20 0xFFFFFFFFFFFFFFFFFFFFFFFFFFFFFFFFFFFFFFFF AND PUSH2 0x8FC PUSH1 0x1 PUSH1 0x0 DUP8 PUSH20 0xFFFFFFFFFFFFFFFFFFFFFFFFFFFFFFFFFFFFFFFF AND PUSH20 0xFFFFFFFFFFFFFFFFFFFFFFFFFFFFFFFFFFFFFFFF AND DUP2 MSTORE PUSH1 0x20 ADD SWAP1 DUP2 MSTORE PUSH1 0x20 ADD PUSH1 0x0 KECCAK256 PUSH1 0x1 ADD SLOAD SWAP1 DUP2 ISZERO MUL SWAP1 PUSH1 0x40 MLOAD PUSH1 0x0 PUSH1 0x40 MLOAD DUP1 DUP4 SUB DUP2 DUP6 DUP9 DUP9 CALL SWAP4 POP POP POP POP ISZERO DUP1 ISZERO PUSH2 0x880 JUMPI RETURNDATASIZE PUSH1 0x0 DUP1 RETURNDATACOPY RETURNDATASIZE PUSH1 0x0 REVERT JUMPDEST POP PUSH1 0x1 DUP1 PUSH1 0x0 DUP7 PUSH20 0xFFFFFFFFFFFFFFFFFFFFFFFFFFFFFFFFFFFFFFFF AND PUSH20 0xFFFFFFFFFFFFFFFFFFFFFFFFFFFFFFFFFFFFFFFF AND DUP2 MSTORE PUSH1 0x20 ADD SWAP1 DUP2 MSTORE PUSH1 0x20 ADD PUSH1 0x0 KECCAK256 PUSH1 0x4 ADD PUSH1 0x0 PUSH2 0x100 EXP DUP2 SLOAD DUP2 PUSH1 0xFF MUL NOT AND SWAP1 DUP4 ISZERO ISZERO MUL OR SWAP1 SSTORE POP DUP2 PUSH1 0x1 PUSH1 0x0 DUP7 PUSH20 0xFFFFFFFFFFFFFFFFFFFFFFFFFFFFFFFFFFFFFFFF AND PUSH20 0xFFFFFFFFFFFFFFFFFFFFFFFFFFFFFFFFFFFFFFFF AND DUP2 MSTORE PUSH1 0x20 ADD SWAP1 DUP2 MSTORE PUSH1 0x20 ADD PUSH1 0x0 KECCAK256 PUSH1 0x2 ADD DUP2 SWAP1 SSTORE POP POP POP POP POP JUMP JUMPDEST PUSH1 0x2 PUSH1 0x20 MSTORE DUP2 PUSH1 0x0 MSTORE PUSH1 0x40 PUSH1 0x0 KECCAK256 PUSH1 0x20 MSTORE DUP1 PUSH1 0x0 MSTORE PUSH1 0x40 PUSH1 0x0 KECCAK256 PUSH1 0x0 SWAP2 POP SWAP2 POP SWAP1 SLOAD SWAP1 PUSH2 0x100 EXP SWAP1 DIV PUSH1 0xFF AND DUP2 JUMP JUMPDEST PUSH1 0x0 DUP1 SLOAD SWAP1 PUSH2 0x100 EXP SWAP1 DIV PUSH20 0xFFFFFFFFFFFFFFFFFFFFFFFFFFFFFFFFFFFFFFFF AND DUP2 JUMP JUMPDEST DUP2 CALLVALUE GT PUSH2 0x9BD JUMPI PUSH1 0x40 MLOAD PUSH32 0x8C379A000000000000000000000000000000000000000000000000000000000 DUP2 MSTORE PUSH1 0x4 ADD PUSH2 0x9B4 SWAP1 PUSH2 0x16B4 JUMP JUMPDEST PUSH1 0x40 MLOAD DUP1 SWAP2 SUB SWAP1 REVERT JUMPDEST TIMESTAMP DUP2 GT PUSH2 0x9FF JUMPI PUSH1 0x40 MLOAD PUSH32 0x8C379A000000000000000000000000000000000000000000000000000000000 DUP2 MSTORE PUSH1 0x4 ADD PUSH2 0x9F6 SWAP1 PUSH2 0x1554 JUMP JUMPDEST PUSH1 0x40 MLOAD DUP1 SWAP2 SUB SWAP1 REVERT JUMPDEST PUSH1 0x0 PUSH8 0xDE0B6B3A7640000 DUP4 PUSH2 0xA15 SWAP2 SWAP1 PUSH2 0x1832 JUMP JUMPDEST EQ PUSH2 0xA55 JUMPI PUSH1 0x40 MLOAD PUSH32 0x8C379A000000000000000000000000000000000000000000000000000000000 DUP2 MSTORE PUSH1 0x4 ADD PUSH2 0xA4C SWAP1 PUSH2 0x1594 JUMP JUMPDEST PUSH1 0x40 MLOAD DUP1 SWAP2 SUB SWAP1 REVERT JUMPDEST PUSH8 0x8AC7230489E80000 DUP3 LT ISZERO PUSH2 0xAA0 JUMPI PUSH1 0x40 MLOAD PUSH32 0x8C379A000000000000000000000000000000000000000000000000000000000 DUP2 MSTORE PUSH1 0x4 ADD PUSH2 0xA97 SWAP1 PUSH2 0x15F4 JUMP JUMPDEST PUSH1 0x40 MLOAD DUP1 SWAP2 SUB SWAP1 REVERT JUMPDEST PUSH1 0x0 PUSH8 0xFFFFFFFFFFFFFFFF DUP2 GT ISZERO PUSH2 0xABB JUMPI PUSH2 0xABA PUSH2 0x18F0 JUMP JUMPDEST JUMPDEST PUSH1 0x40 MLOAD SWAP1 DUP1 DUP3 MSTORE DUP1 PUSH1 0x20 MUL PUSH1 0x20 ADD DUP3 ADD PUSH1 0x40 MSTORE DUP1 ISZERO PUSH2 0xAE9 JUMPI DUP2 PUSH1 0x20 ADD PUSH1 0x20 DUP3 MUL DUP1 CALLDATASIZE DUP4 CALLDATACOPY DUP1 DUP3 ADD SWAP2 POP POP SWAP1 POP JUMPDEST POP PUSH1 0x1 PUSH1 0x0 CALLER PUSH20 0xFFFFFFFFFFFFFFFFFFFFFFFFFFFFFFFFFFFFFFFF AND PUSH20 0xFFFFFFFFFFFFFFFFFFFFFFFFFFFFFFFFFFFFFFFF AND DUP2 MSTORE PUSH1 0x20 ADD SWAP1 DUP2 MSTORE PUSH1 0x20 ADD PUSH1 0x0 KECCAK256 PUSH1 0x0 ADD SWAP1 DUP1 MLOAD SWAP1 PUSH1 0x20 ADD SWAP1 PUSH2 0xB3F SWAP3 SWAP2 SWAP1 PUSH2 0x1123 JUMP JUMPDEST POP DUP2 PUSH1 0x1 PUSH1 0x0 CALLER PUSH20 0xFFFFFFFFFFFFFFFFFFFFFFFFFFFFFFFFFFFFFFFF AND PUSH20 0xFFFFFFFFFFFFFFFFFFFFFFFFFFFFFFFFFFFFFFFF AND DUP2 MSTORE PUSH1 0x20 ADD SWAP1 DUP2 MSTORE PUSH1 0x20 ADD PUSH1 0x0 KECCAK256 PUSH1 0x1 ADD DUP2 SWAP1 SSTORE POP DUP1 PUSH1 0x1 PUSH1 0x0 CALLER PUSH20 0xFFFFFFFFFFFFFFFFFFFFFFFFFFFFFFFFFFFFFFFF AND PUSH20 0xFFFFFFFFFFFFFFFFFFFFFFFFFFFFFFFFFFFFFFFF AND DUP2 MSTORE PUSH1 0x20 ADD SWAP1 DUP2 MSTORE PUSH1 0x20 ADD PUSH1 0x0 KECCAK256 PUSH1 0x3 ADD DUP2 SWAP1 SSTORE POP PUSH1 0x0 PUSH1 0x1 PUSH1 0x0 CALLER PUSH20 0xFFFFFFFFFFFFFFFFFFFFFFFFFFFFFFFFFFFFFFFF AND PUSH20 0xFFFFFFFFFFFFFFFFFFFFFFFFFFFFFFFFFFFFFFFF AND DUP2 MSTORE PUSH1 0x20 ADD SWAP1 DUP2 MSTORE PUSH1 0x20 ADD PUSH1 0x0 KECCAK256 PUSH1 0x4 ADD PUSH1 0x0 PUSH2 0x100 EXP DUP2 SLOAD DUP2 PUSH1 0xFF MUL NOT AND SWAP1 DUP4 ISZERO ISZERO MUL OR SWAP1 SSTORE POP PUSH1 0x1 PUSH1 0x0 CALLER PUSH20 0xFFFFFFFFFFFFFFFFFFFFFFFFFFFFFFFFFFFFFFFF AND PUSH20 0xFFFFFFFFFFFFFFFFFFFFFFFFFFFFFFFFFFFFFFFF AND DUP2 MSTORE PUSH1 0x20 ADD SWAP1 DUP2 MSTORE PUSH1 0x20 ADD PUSH1 0x0 KECCAK256 PUSH1 0x0 ADD CALLER SWAP1 DUP1 PUSH1 0x1 DUP2 SLOAD ADD DUP1 DUP3 SSTORE DUP1 SWAP2 POP POP PUSH1 0x1 SWAP1 SUB SWAP1 PUSH1 0x0 MSTORE PUSH1 0x20 PUSH1 0x0 KECCAK256 ADD PUSH1 0x0 SWAP1 SWAP2 SWAP1 SWAP2 SWAP1 SWAP2 PUSH2 0x100 EXP DUP2 SLOAD DUP2 PUSH20 0xFFFFFFFFFFFFFFFFFFFFFFFFFFFFFFFFFFFFFFFF MUL NOT AND SWAP1 DUP4 PUSH20 0xFFFFFFFFFFFFFFFFFFFFFFFFFFFFFFFFFFFFFFFF AND MUL OR SWAP1 SSTORE POP POP POP JUMP JUMPDEST DUP1 PUSH1 0x1 PUSH1 0x0 DUP3 PUSH20 0xFFFFFFFFFFFFFFFFFFFFFFFFFFFFFFFFFFFFFFFF AND PUSH20 0xFFFFFFFFFFFFFFFFFFFFFFFFFFFFFFFFFFFFFFFF AND DUP2 MSTORE PUSH1 0x20 ADD SWAP1 DUP2 MSTORE PUSH1 0x20 ADD PUSH1 0x0 KECCAK256 PUSH1 0x4 ADD PUSH1 0x0 SWAP1 SLOAD SWAP1 PUSH2 0x100 EXP SWAP1 DIV PUSH1 0xFF AND ISZERO PUSH2 0xD61 JUMPI PUSH1 0x40 MLOAD PUSH32 0x8C379A000000000000000000000000000000000000000000000000000000000 DUP2 MSTORE PUSH1 0x4 ADD PUSH2 0xD58 SWAP1 PUSH2 0x1714 JUMP JUMPDEST PUSH1 0x40 MLOAD DUP1 SWAP2 SUB SWAP1 REVERT JUMPDEST PUSH1 0x1 PUSH1 0x0 DUP4 PUSH20 0xFFFFFFFFFFFFFFFFFFFFFFFFFFFFFFFFFFFFFFFF AND PUSH20 0xFFFFFFFFFFFFFFFFFFFFFFFFFFFFFFFFFFFFFFFF AND DUP2 MSTORE PUSH1 0x20 ADD SWAP1 DUP2 MSTORE PUSH1 0x20 ADD PUSH1 0x0 KECCAK256 PUSH1 0x3 ADD SLOAD TIMESTAMP LT PUSH2 0xDE5 JUMPI PUSH1 0x40 MLOAD PUSH32 0x8C379A000000000000000000000000000000000000000000000000000000000 DUP2 MSTORE PUSH1 0x4 ADD PUSH2 0xDDC SWAP1 PUSH2 0x16F4 JUMP JUMPDEST PUSH1 0x40 MLOAD DUP1 SWAP2 SUB SWAP1 REVERT JUMPDEST PUSH1 0x5 PUSH1 0x1 PUSH1 0x0 DUP5 PUSH20 0xFFFFFFFFFFFFFFFFFFFFFFFFFFFFFFFFFFFFFFFF AND PUSH20 0xFFFFFFFFFFFFFFFFFFFFFFFFFFFFFFFFFFFFFFFF AND DUP2 MSTORE PUSH1 0x20 ADD SWAP1 DUP2 MSTORE PUSH1 0x20 ADD PUSH1 0x0 KECCAK256 PUSH1 0x0 ADD DUP1 SLOAD SWAP1 POP GT ISZERO PUSH2 0xE6E JUMPI PUSH1 0x40 MLOAD PUSH32 0x8C379A000000000000000000000000000000000000000000000000000000000 DUP2 MSTORE PUSH1 0x4 ADD PUSH2 0xE65 SWAP1 PUSH2 0x1574 JUMP JUMPDEST PUSH1 0x40 MLOAD DUP1 SWAP2 SUB SWAP1 REVERT JUMPDEST PUSH1 0x0 PUSH8 0xDE0B6B3A7640000 CALLVALUE PUSH2 0xE84 SWAP2 SWAP1 PUSH2 0x1832 JUMP JUMPDEST EQ PUSH2 0xEC4 JUMPI PUSH1 0x40 MLOAD PUSH32 0x8C379A000000000000000000000000000000000000000000000000000000000 DUP2 MSTORE PUSH1 0x4 ADD PUSH2 0xEBB SWAP1 PUSH2 0x1674 JUMP JUMPDEST PUSH1 0x40 MLOAD DUP1 SWAP2 SUB SWAP1 REVERT JUMPDEST PUSH1 0x2 PUSH1 0x0 DUP4 PUSH20 0xFFFFFFFFFFFFFFFFFFFFFFFFFFFFFFFFFFFFFFFF AND PUSH20 0xFFFFFFFFFFFFFFFFFFFFFFFFFFFFFFFFFFFFFFFF AND DUP2 MSTORE PUSH1 0x20 ADD SWAP1 DUP2 MSTORE PUSH1 0x20 ADD PUSH1 0x0 KECCAK256 PUSH1 0x0 CALLER PUSH20 0xFFFFFFFFFFFFFFFFFFFFFFFFFFFFFFFFFFFFFFFF AND PUSH20 0xFFFFFFFFFFFFFFFFFFFFFFFFFFFFFFFFFFFFFFFF AND DUP2 MSTORE PUSH1 0x20 ADD SWAP1 DUP2 MSTORE PUSH1 0x20 ADD PUSH1 0x0 KECCAK256 PUSH1 0x0 SWAP1 SLOAD SWAP1 PUSH2 0x100 EXP SWAP1 DIV PUSH1 0xFF AND ISZERO PUSH2 0xF8E JUMPI PUSH1 0x40 MLOAD PUSH32 0x8C379A000000000000000000000000000000000000000000000000000000000 DUP2 MSTORE PUSH1 0x4 ADD PUSH2 0xF85 SWAP1 PUSH2 0x15B4 JUMP JUMPDEST PUSH1 0x40 MLOAD DUP1 SWAP2 SUB SWAP1 REVERT JUMPDEST PUSH1 0x1 PUSH1 0x0 DUP4 PUSH20 0xFFFFFFFFFFFFFFFFFFFFFFFFFFFFFFFFFFFFFFFF AND PUSH20 0xFFFFFFFFFFFFFFFFFFFFFFFFFFFFFFFFFFFFFFFF AND DUP2 MSTORE PUSH1 0x20 ADD SWAP1 DUP2 MSTORE PUSH1 0x20 ADD PUSH1 0x0 KECCAK256 PUSH1 0x0 ADD CALLER SWAP1 DUP1 PUSH1 0x1 DUP2 SLOAD ADD DUP1 DUP3 SSTORE DUP1 SWAP2 POP POP PUSH1 0x1 SWAP1 SUB SWAP1 PUSH1 0x0 MSTORE PUSH1 0x20 PUSH1 0x0 KECCAK256 ADD PUSH1 0x0 SWAP1 SWAP2 SWAP1 SWAP2 SWAP1 SWAP2 PUSH2 0x100 EXP DUP2 SLOAD DUP2 PUSH20 0xFFFFFFFFFFFFFFFFFFFFFFFFFFFFFFFFFFFFFFFF MUL NOT AND SWAP1 DUP4 PUSH20 0xFFFFFFFFFFFFFFFFFFFFFFFFFFFFFFFFFFFFFFFF AND MUL OR SWAP1 SSTORE POP CALLVALUE PUSH1 0x1 PUSH1 0x0 DUP5 PUSH20 0xFFFFFFFFFFFFFFFFFFFFFFFFFFFFFFFFFFFFFFFF AND PUSH20 0xFFFFFFFFFFFFFFFFFFFFFFFFFFFFFFFFFFFFFFFF AND DUP2 MSTORE PUSH1 0x20 ADD SWAP1 DUP2 MSTORE PUSH1 0x20 ADD PUSH1 0x0 KECCAK256 PUSH1 0x1 ADD PUSH1 0x0 DUP3 DUP3 SLOAD PUSH2 0x1083 SWAP2 SWAP1 PUSH2 0x178A JUMP JUMPDEST SWAP3 POP POP DUP2 SWAP1 SSTORE POP PUSH1 0x1 PUSH1 0x2 PUSH1 0x0 DUP5 PUSH20 0xFFFFFFFFFFFFFFFFFFFFFFFFFFFFFFFFFFFFFFFF AND PUSH20 0xFFFFFFFFFFFFFFFFFFFFFFFFFFFFFFFFFFFFFFFF AND DUP2 MSTORE PUSH1 0x20 ADD SWAP1 DUP2 MSTORE PUSH1 0x20 ADD PUSH1 0x0 KECCAK256 PUSH1 0x0 CALLER PUSH20 0xFFFFFFFFFFFFFFFFFFFFFFFFFFFFFFFFFFFFFFFF AND PUSH20 0xFFFFFFFFFFFFFFFFFFFFFFFFFFFFFFFFFFFFFFFF AND DUP2 MSTORE PUSH1 0x20 ADD SWAP1 DUP2 MSTORE PUSH1 0x20 ADD PUSH1 0x0 KECCAK256 PUSH1 0x0 PUSH2 0x100 EXP DUP2 SLOAD DUP2 PUSH1 0xFF MUL NOT AND SWAP1 DUP4 ISZERO ISZERO MUL OR SWAP1 SSTORE POP POP POP JUMP JUMPDEST DUP3 DUP1 SLOAD DUP3 DUP3 SSTORE SWAP1 PUSH1 0x0 MSTORE PUSH1 0x20 PUSH1 0x0 KECCAK256 SWAP1 DUP2 ADD SWAP3 DUP3 ISZERO PUSH2 0x119C JUMPI SWAP2 PUSH1 0x20 MUL DUP3 ADD JUMPDEST DUP3 DUP2 GT ISZERO PUSH2 0x119B JUMPI DUP3 MLOAD DUP3 PUSH1 0x0 PUSH2 0x100 EXP DUP2 SLOAD DUP2 PUSH20 0xFFFFFFFFFFFFFFFFFFFFFFFFFFFFFFFFFFFFFFFF MUL NOT AND SWAP1 DUP4 PUSH20 0xFFFFFFFFFFFFFFFFFFFFFFFFFFFFFFFFFFFFFFFF AND MUL OR SWAP1 SSTORE POP SWAP2 PUSH1 0x20 ADD SWAP2 SWAP1 PUSH1 0x1 ADD SWAP1 PUSH2 0x1143 JUMP JUMPDEST JUMPDEST POP SWAP1 POP PUSH2 0x11A9 SWAP2 SWAP1 PUSH2 0x11AD JUMP JUMPDEST POP SWAP1 JUMP JUMPDEST JUMPDEST DUP1 DUP3 GT ISZERO PUSH2 0x11C6 JUMPI PUSH1 0x0 DUP2 PUSH1 0x0 SWAP1 SSTORE POP PUSH1 0x1 ADD PUSH2 0x11AE JUMP JUMPDEST POP SWAP1 JUMP JUMPDEST PUSH1 0x0 DUP2 CALLDATALOAD SWAP1 POP PUSH2 0x11D9 DUP2 PUSH2 0x1CE1 JUMP JUMPDEST SWAP3 SWAP2 POP POP JUMP JUMPDEST PUSH1 0x0 DUP2 CALLDATALOAD SWAP1 POP PUSH2 0x11EE DUP2 PUSH2 0x1CF8 JUMP JUMPDEST SWAP3 SWAP2 POP POP JUMP JUMPDEST PUSH1 0x0 PUSH1 0x20 DUP3 DUP5 SUB SLT ISZERO PUSH2 0x120A JUMPI PUSH2 0x1209 PUSH2 0x191F JUMP JUMPDEST JUMPDEST PUSH1 0x0 PUSH2 0x1218 DUP5 DUP3 DUP6 ADD PUSH2 0x11CA JUMP JUMPDEST SWAP2 POP POP SWAP3 SWAP2 POP POP JUMP JUMPDEST PUSH1 0x0 DUP1 PUSH1 0x40 DUP4 DUP6 SUB SLT ISZERO PUSH2 0x1238 JUMPI PUSH2 0x1237 PUSH2 0x191F JUMP JUMPDEST JUMPDEST PUSH1 0x0 PUSH2 0x1246 DUP6 DUP3 DUP7 ADD PUSH2 0x11CA JUMP JUMPDEST SWAP3 POP POP PUSH1 0x20 PUSH2 0x1257 DUP6 DUP3 DUP7 ADD PUSH2 0x11CA JUMP JUMPDEST SWAP2 POP POP SWAP3 POP SWAP3 SWAP1 POP JUMP JUMPDEST PUSH1 0x0 DUP1 PUSH1 0x40 DUP4 DUP6 SUB SLT ISZERO PUSH2 0x1278 JUMPI PUSH2 0x1277 PUSH2 0x191F JUMP JUMPDEST JUMPDEST PUSH1 0x0 PUSH2 0x1286 DUP6 DUP3 DUP7 ADD PUSH2 0x11DF JUMP JUMPDEST SWAP3 POP POP PUSH1 0x20 PUSH2 0x1297 DUP6 DUP3 DUP7 ADD PUSH2 0x11DF JUMP JUMPDEST SWAP2 POP POP SWAP3 POP SWAP3 SWAP1 POP JUMP JUMPDEST PUSH2 0x12AA DUP2 PUSH2 0x17E0 JUMP JUMPDEST DUP3 MSTORE POP POP JUMP JUMPDEST PUSH2 0x12B9 DUP2 PUSH2 0x17F2 JUMP JUMPDEST DUP3 MSTORE POP POP JUMP JUMPDEST PUSH1 0x0 PUSH2 0x12CC PUSH1 0x20 DUP4 PUSH2 0x1779 JUMP JUMPDEST SWAP2 POP PUSH2 0x12D7 DUP3 PUSH2 0x1924 JUMP JUMPDEST PUSH1 0x20 DUP3 ADD SWAP1 POP SWAP2 SWAP1 POP JUMP JUMPDEST PUSH1 0x0 PUSH2 0x12EF PUSH1 0x11 DUP4 PUSH2 0x1779 JUMP JUMPDEST SWAP2 POP PUSH2 0x12FA DUP3 PUSH2 0x194D JUMP JUMPDEST PUSH1 0x20 DUP3 ADD SWAP1 POP SWAP2 SWAP1 POP JUMP JUMPDEST PUSH1 0x0 PUSH2 0x1312 PUSH1 0x2D DUP4 PUSH2 0x1779 JUMP JUMPDEST SWAP2 POP PUSH2 0x131D DUP3 PUSH2 0x1976 JUMP JUMPDEST PUSH1 0x40 DUP3 ADD SWAP1 POP SWAP2 SWAP1 POP JUMP JUMPDEST PUSH1 0x0 PUSH2 0x1335 PUSH1 0x2E DUP4 PUSH2 0x1779 JUMP JUMPDEST SWAP2 POP PUSH2 0x1340 DUP3 PUSH2 0x19C5 JUMP JUMPDEST PUSH1 0x40 DUP3 ADD SWAP1 POP SWAP2 SWAP1 POP JUMP JUMPDEST PUSH1 0x0 PUSH2 0x1358 PUSH1 0x22 DUP4 PUSH2 0x1779 JUMP JUMPDEST SWAP2 POP PUSH2 0x1363 DUP3 PUSH2 0x1A14 JUMP JUMPDEST PUSH1 0x40 DUP3 ADD SWAP1 POP SWAP2 SWAP1 POP JUMP JUMPDEST PUSH1 0x0 PUSH2 0x137B PUSH1 0x2A DUP4 PUSH2 0x1779 JUMP JUMPDEST SWAP2 POP PUSH2 0x1386 DUP3 PUSH2 0x1A63 JUMP JUMPDEST PUSH1 0x40 DUP3 ADD SWAP1 POP SWAP2 SWAP1 POP JUMP JUMPDEST PUSH1 0x0 PUSH2 0x139E PUSH1 0x1E DUP4 PUSH2 0x1779 JUMP JUMPDEST SWAP2 POP PUSH2 0x13A9 DUP3 PUSH2 0x1AB2 JUMP JUMPDEST PUSH1 0x20 DUP3 ADD SWAP1 POP SWAP2 SWAP1 POP JUMP JUMPDEST PUSH1 0x0 PUSH2 0x13C1 PUSH1 0x2D DUP4 PUSH2 0x1779 JUMP JUMPDEST SWAP2 POP PUSH2 0x13CC DUP3 PUSH2 0x1ADB JUMP JUMPDEST PUSH1 0x40 DUP3 ADD SWAP1 POP SWAP2 SWAP1 POP JUMP JUMPDEST PUSH1 0x0 PUSH2 0x13E4 PUSH1 0x20 DUP4 PUSH2 0x1779 JUMP JUMPDEST SWAP2 POP PUSH2 0x13EF DUP3 PUSH2 0x1B2A JUMP JUMPDEST PUSH1 0x20 DUP3 ADD SWAP1 POP SWAP2 SWAP1 POP JUMP JUMPDEST PUSH1 0x0 PUSH2 0x1407 PUSH1 0x25 DUP4 PUSH2 0x1779 JUMP JUMPDEST SWAP2 POP PUSH2 0x1412 DUP3 PUSH2 0x1B53 JUMP JUMPDEST PUSH1 0x40 DUP3 ADD SWAP1 POP SWAP2 SWAP1 POP JUMP JUMPDEST PUSH1 0x0 PUSH2 0x142A PUSH1 0x1F DUP4 PUSH2 0x1779 JUMP JUMPDEST SWAP2 POP PUSH2 0x1435 DUP3 PUSH2 0x1BA2 JUMP JUMPDEST PUSH1 0x20 DUP3 ADD SWAP1 POP SWAP2 SWAP1 POP JUMP JUMPDEST PUSH1 0x0 PUSH2 0x144D PUSH1 0x32 DUP4 PUSH2 0x1779 JUMP JUMPDEST SWAP2 POP PUSH2 0x1458 DUP3 PUSH2 0x1BCB JUMP JUMPDEST PUSH1 0x40 DUP3 ADD SWAP1 POP SWAP2 SWAP1 POP JUMP JUMPDEST PUSH1 0x0 PUSH2 0x1470 PUSH1 0x22 DUP4 PUSH2 0x1779 JUMP JUMPDEST SWAP2 POP PUSH2 0x147B DUP3 PUSH2 0x1C1A JUMP JUMPDEST PUSH1 0x40 DUP3 ADD SWAP1 POP SWAP2 SWAP1 POP JUMP JUMPDEST PUSH1 0x0 PUSH2 0x1493 PUSH1 0x28 DUP4 PUSH2 0x1779 JUMP JUMPDEST SWAP2 POP PUSH2 0x149E DUP3 PUSH2 0x1C69 JUMP JUMPDEST PUSH1 0x40 DUP3 ADD SWAP1 POP SWAP2 SWAP1 POP JUMP JUMPDEST PUSH1 0x0 PUSH2 0x14B6 PUSH1 0x1E DUP4 PUSH2 0x1779 JUMP JUMPDEST SWAP2 POP PUSH2 0x14C1 DUP3 PUSH2 0x1CB8 JUMP JUMPDEST PUSH1 0x20 DUP3 ADD SWAP1 POP SWAP2 SWAP1 POP JUMP JUMPDEST PUSH2 0x14D5 DUP2 PUSH2 0x181E JUMP JUMPDEST DUP3 MSTORE POP POP JUMP JUMPDEST PUSH2 0x14EC PUSH2 0x14E7 DUP3 PUSH2 0x181E JUMP JUMPDEST PUSH2 0x1828 JUMP JUMPDEST DUP3 MSTORE POP POP JUMP JUMPDEST PUSH1 0x0 PUSH2 0x14FE DUP3 DUP6 PUSH2 0x14DB JUMP JUMPDEST PUSH1 0x20 DUP3 ADD SWAP2 POP PUSH2 0x150E DUP3 DUP5 PUSH2 0x14DB JUMP JUMPDEST PUSH1 0x20 DUP3 ADD SWAP2 POP DUP2 SWAP1 POP SWAP4 SWAP3 POP POP POP JUMP JUMPDEST PUSH1 0x0 PUSH1 0x20 DUP3 ADD SWAP1 POP PUSH2 0x1533 PUSH1 0x0 DUP4 ADD DUP5 PUSH2 0x12A1 JUMP JUMPDEST SWAP3 SWAP2 POP POP JUMP JUMPDEST PUSH1 0x0 PUSH1 0x20 DUP3 ADD SWAP1 POP PUSH2 0x154E PUSH1 0x0 DUP4 ADD DUP5 PUSH2 0x12B0 JUMP JUMPDEST SWAP3 SWAP2 POP POP JUMP JUMPDEST PUSH1 0x0 PUSH1 0x20 DUP3 ADD SWAP1 POP DUP2 DUP2 SUB PUSH1 0x0 DUP4 ADD MSTORE PUSH2 0x156D DUP2 PUSH2 0x12BF JUMP JUMPDEST SWAP1 POP SWAP2 SWAP1 POP JUMP JUMPDEST PUSH1 0x0 PUSH1 0x20 DUP3 ADD SWAP1 POP DUP2 DUP2 SUB PUSH1 0x0 DUP4 ADD MSTORE PUSH2 0x158D DUP2 PUSH2 0x12E2 JUMP JUMPDEST SWAP1 POP SWAP2 SWAP1 POP JUMP JUMPDEST PUSH1 0x0 PUSH1 0x20 DUP3 ADD SWAP1 POP DUP2 DUP2 SUB PUSH1 0x0 DUP4 ADD MSTORE PUSH2 0x15AD DUP2 PUSH2 0x1305 JUMP JUMPDEST SWAP1 POP SWAP2 SWAP1 POP JUMP JUMPDEST PUSH1 0x0 PUSH1 0x20 DUP3 ADD SWAP1 POP DUP2 DUP2 SUB PUSH1 0x0 DUP4 ADD MSTORE PUSH2 0x15CD DUP2 PUSH2 0x1328 JUMP JUMPDEST SWAP1 POP SWAP2 SWAP1 POP JUMP JUMPDEST PUSH1 0x0 PUSH1 0x20 DUP3 ADD SWAP1 POP DUP2 DUP2 SUB PUSH1 0x0 DUP4 ADD MSTORE PUSH2 0x15ED DUP2 PUSH2 0x134B JUMP JUMPDEST SWAP1 POP SWAP2 SWAP1 POP JUMP JUMPDEST PUSH1 0x0 PUSH1 0x20 DUP3 ADD SWAP1 POP DUP2 DUP2 SUB PUSH1 0x0 DUP4 ADD MSTORE PUSH2 0x160D DUP2 PUSH2 0x136E JUMP JUMPDEST SWAP1 POP SWAP2 SWAP1 POP JUMP JUMPDEST PUSH1 0x0 PUSH1 0x20 DUP3 ADD SWAP1 POP DUP2 DUP2 SUB PUSH1 0x0 DUP4 ADD MSTORE PUSH2 0x162D DUP2 PUSH2 0x1391 JUMP JUMPDEST SWAP1 POP SWAP2 SWAP1 POP JUMP JUMPDEST PUSH1 0x0 PUSH1 0x20 DUP3 ADD SWAP1 POP DUP2 DUP2 SUB PUSH1 0x0 DUP4 ADD MSTORE PUSH2 0x164D DUP2 PUSH2 0x13B4 JUMP JUMPDEST SWAP1 POP SWAP2 SWAP1 POP JUMP JUMPDEST PUSH1 0x0 PUSH1 0x20 DUP3 ADD SWAP1 POP DUP2 DUP2 SUB PUSH1 0x0 DUP4 ADD MSTORE PUSH2 0x166D DUP2 PUSH2 0x13D7 JUMP JUMPDEST SWAP1 POP SWAP2 SWAP1 POP JUMP JUMPDEST PUSH1 0x0 PUSH1 0x20 DUP3 ADD SWAP1 POP DUP2 DUP2 SUB PUSH1 0x0 DUP4 ADD MSTORE PUSH2 0x168D DUP2 PUSH2 0x13FA JUMP JUMPDEST SWAP1 POP SWAP2 SWAP1 POP JUMP JUMPDEST PUSH1 0x0 PUSH1 0x20 DUP3 ADD SWAP1 POP DUP2 DUP2 SUB PUSH1 0x0 DUP4 ADD MSTORE PUSH2 0x16AD DUP2 PUSH2 0x141D JUMP JUMPDEST SWAP1 POP SWAP2 SWAP1 POP JUMP JUMPDEST PUSH1 0x0 PUSH1 0x20 DUP3 ADD SWAP1 POP DUP2 DUP2 SUB PUSH1 0x0 DUP4 ADD MSTORE PUSH2 0x16CD DUP2 PUSH2 0x1440 JUMP JUMPDEST SWAP1 POP SWAP2 SWAP1 POP JUMP JUMPDEST PUSH1 0x0 PUSH1 0x20 DUP3 ADD SWAP1 POP DUP2 DUP2 SUB PUSH1 0x0 DUP4 ADD MSTORE PUSH2 0x16ED DUP2 PUSH2 0x1463 JUMP JUMPDEST SWAP1 POP SWAP2 SWAP1 POP JUMP JUMPDEST PUSH1 0x0 PUSH1 0x20 DUP3 ADD SWAP1 POP DUP2 DUP2 SUB PUSH1 0x0 DUP4 ADD MSTORE PUSH2 0x170D DUP2 PUSH2 0x1486 JUMP JUMPDEST SWAP1 POP SWAP2 SWAP1 POP JUMP JUMPDEST PUSH1 0x0 PUSH1 0x20 DUP3 ADD SWAP1 POP DUP2 DUP2 SUB PUSH1 0x0 DUP4 ADD MSTORE PUSH2 0x172D DUP2 PUSH2 0x14A9 JUMP JUMPDEST SWAP1 POP SWAP2 SWAP1 POP JUMP JUMPDEST PUSH1 0x0 PUSH1 0x80 DUP3 ADD SWAP1 POP PUSH2 0x1749 PUSH1 0x0 DUP4 ADD DUP8 PUSH2 0x14CC JUMP JUMPDEST PUSH2 0x1756 PUSH1 0x20 DUP4 ADD DUP7 PUSH2 0x14CC JUMP JUMPDEST PUSH2 0x1763 PUSH1 0x40 DUP4 ADD DUP6 PUSH2 0x14CC JUMP JUMPDEST PUSH2 0x1770 PUSH1 0x60 DUP4 ADD DUP5 PUSH2 0x12B0 JUMP JUMPDEST SWAP6 SWAP5 POP POP POP POP POP JUMP JUMPDEST PUSH1 0x0 DUP3 DUP3 MSTORE PUSH1 0x20 DUP3 ADD SWAP1 POP SWAP3 SWAP2 POP POP JUMP JUMPDEST PUSH1 0x0 PUSH2 0x1795 DUP3 PUSH2 0x181E JUMP JUMPDEST SWAP2 POP PUSH2 0x17A0 DUP4 PUSH2 0x181E JUMP JUMPDEST SWAP3 POP DUP3 PUSH32 0xFFFFFFFFFFFFFFFFFFFFFFFFFFFFFFFFFFFFFFFFFFFFFFFFFFFFFFFFFFFFFFFF SUB DUP3 GT ISZERO PUSH2 0x17D5 JUMPI PUSH2 0x17D4 PUSH2 0x1863 JUMP JUMPDEST JUMPDEST DUP3 DUP3 ADD SWAP1 POP SWAP3 SWAP2 POP POP JUMP JUMPDEST PUSH1 0x0 PUSH2 0x17EB DUP3 PUSH2 0x17FE JUMP JUMPDEST SWAP1 POP SWAP2 SWAP1 POP JUMP JUMPDEST PUSH1 0x0 DUP2 ISZERO ISZERO SWAP1 POP SWAP2 SWAP1 POP JUMP JUMPDEST PUSH1 0x0 PUSH20 0xFFFFFFFFFFFFFFFFFFFFFFFFFFFFFFFFFFFFFFFF DUP3 AND SWAP1 POP SWAP2 SWAP1 POP JUMP JUMPDEST PUSH1 0x0 DUP2 SWAP1 POP SWAP2 SWAP1 POP JUMP JUMPDEST PUSH1 0x0 DUP2 SWAP1 POP SWAP2 SWAP1 POP JUMP JUMPDEST PUSH1 0x0 PUSH2 0x183D DUP3 PUSH2 0x181E JUMP JUMPDEST SWAP2 POP PUSH2 0x1848 DUP4 PUSH2 0x181E JUMP JUMPDEST SWAP3 POP DUP3 PUSH2 0x1858 JUMPI PUSH2 0x1857 PUSH2 0x1892 JUMP JUMPDEST JUMPDEST DUP3 DUP3 MOD SWAP1 POP SWAP3 SWAP2 POP POP JUMP JUMPDEST PUSH32 0x4E487B7100000000000000000000000000000000000000000000000000000000 PUSH1 0x0 MSTORE PUSH1 0x11 PUSH1 0x4 MSTORE PUSH1 0x24 PUSH1 0x0 REVERT JUMPDEST PUSH32 0x4E487B7100000000000000000000000000000000000000000000000000000000 PUSH1 0x0 MSTORE PUSH1 0x12 PUSH1 0x4 MSTORE PUSH1 0x24 PUSH1 0x0 REVERT JUMPDEST PUSH32 0x4E487B7100000000000000000000000000000000000000000000000000000000 PUSH1 0x0 MSTORE PUSH1 0x32 PUSH1 0x4 MSTORE PUSH1 0x24 PUSH1 0x0 REVERT JUMPDEST PUSH32 0x4E487B7100000000000000000000000000000000000000000000000000000000 PUSH1 0x0 MSTORE PUSH1 0x41 PUSH1 0x4 MSTORE PUSH1 0x24 PUSH1 0x0 REVERT JUMPDEST PUSH1 0x0 DUP1 REVERT JUMPDEST PUSH32 0x54686520646561646C696E652068617320616C7265616479207061737365642E PUSH1 0x0 DUP3 ADD MSTORE POP JUMP JUMPDEST PUSH32 0x54686520706F6F6C2069732066756C6C2E000000000000000000000000000000 PUSH1 0x0 DUP3 ADD MSTORE POP JUMP JUMPDEST PUSH32 0x546865207072697A6520706F6F6C206D7573742062652061206D756C7469706C PUSH1 0x0 DUP3 ADD MSTORE PUSH32 0x65206F6620312065746865722E00000000000000000000000000000000000000 PUSH1 0x20 DUP3 ADD MSTORE POP JUMP JUMPDEST PUSH32 0x596F75206861766520616C72656164792070617274696369706174656420696E PUSH1 0x0 DUP3 ADD MSTORE PUSH32 0x2074686973206C6F74746572792E000000000000000000000000000000000000 PUSH1 0x20 DUP3 ADD MSTORE POP JUMP JUMPDEST PUSH32 0x4F6E6C7920746865206F776E65722063616E2077697468647261772066756E64 PUSH1 0x0 DUP3 ADD MSTORE PUSH32 0x732E000000000000000000000000000000000000000000000000000000000000 PUSH1 0x20 DUP3 ADD MSTORE POP JUMP JUMPDEST PUSH32 0x546865207072697A6520706F6F6C206D757374206265206D6F7265207468616E PUSH1 0x0 DUP3 ADD MSTORE PUSH32 0x2031302065746865722E00000000000000000000000000000000000000000000 PUSH1 0x20 DUP3 ADD MSTORE POP JUMP JUMPDEST PUSH32 0x546865206C6F747465727920686173206E6F7420656E646564207965742E0000 PUSH1 0x0 DUP3 ADD MSTORE POP JUMP JUMPDEST PUSH32 0x4F6E6C7920746865206C6F747465727920737461727465722063616E20656E64 PUSH1 0x0 DUP3 ADD MSTORE PUSH32 0x20746865206C6F74746572792E00000000000000000000000000000000000000 PUSH1 0x20 DUP3 ADD MSTORE POP JUMP JUMPDEST PUSH32 0x54686520646561646C696E6520686173206E6F7420706173736564207965742E PUSH1 0x0 DUP3 ADD MSTORE POP JUMP JUMPDEST PUSH32 0x596F75206D7573742073656E64203120657468657220746F2070617274696369 PUSH1 0x0 DUP3 ADD MSTORE PUSH32 0x706174652E000000000000000000000000000000000000000000000000000000 PUSH1 0x20 DUP3 ADD MSTORE POP JUMP JUMPDEST PUSH32 0x546865726520617265206E6F2066756E647320746F2077697468647261772E00 PUSH1 0x0 DUP3 ADD MSTORE POP JUMP JUMPDEST PUSH32 0x596F7520646F6E2774206861766520656E6F7567682066756E647320746F2069 PUSH1 0x0 DUP3 ADD MSTORE PUSH32 0x6E6974696174652061206C6F74746572792E0000000000000000000000000000 PUSH1 0x20 DUP3 ADD MSTORE POP JUMP JUMPDEST PUSH32 0x4F6E6C79206F6E6520706C6179657220686173206A6F696E656420736F206661 PUSH1 0x0 DUP3 ADD MSTORE PUSH32 0x722E000000000000000000000000000000000000000000000000000000000000 PUSH1 0x20 DUP3 ADD MSTORE POP JUMP JUMPDEST PUSH32 0x54686520646561646C696E6520666F7220746865206C6F747465727920686173 PUSH1 0x0 DUP3 ADD MSTORE PUSH32 0x207061737365642E000000000000000000000000000000000000000000000000 PUSH1 0x20 DUP3 ADD MSTORE POP JUMP JUMPDEST PUSH32 0x546865206C6F74746572792068617320616C726561647920656E6465642E0000 PUSH1 0x0 DUP3 ADD MSTORE POP JUMP JUMPDEST PUSH2 0x1CEA DUP2 PUSH2 0x17E0 JUMP JUMPDEST DUP2 EQ PUSH2 0x1CF5 JUMPI PUSH1 0x0 DUP1 REVERT JUMPDEST POP JUMP JUMPDEST PUSH2 0x1D01 DUP2 PUSH2 0x181E JUMP JUMPDEST DUP2 EQ PUSH2 0x1D0C JUMPI PUSH1 0x0 DUP1 REVERT JUMPDEST POP JUMP INVALID LOG2 PUSH5 0x6970667358 0x22 SLT KECCAK256 DUP13 STATICCALL 0xF7 DUP13 INVALID COINBASE PUSH27 0x43684644709AE86937C00713E6E9124F7AC0F9C06517736C846473 PUSH16 0x6C634300080700330000000000000000 "
				},
				"gasEstimates": {
					"creation": {
						"codeDepositCost": "1498600",
						"executionCost": "25834",
						"totalCost": "1524434"
					},
					"external": {
						"checkWinner(address)": "9608",
						"end(address)": "infinite",
						"lotteryStorage(address)": "infinite",
						"owner()": "2533",
						"participants(address,address)": "infinite",
						"participate(address)": "infinite",
						"start(uint256,uint256)": "infinite",
						"withdraw()": "infinite"
					}
				},
				"methodIdentifiers": {
					"checkWinner(address)": "4d722c4c",
					"end(address)": "8c4dd39d",
					"lotteryStorage(address)": "727da1bc",
					"owner()": "8da5cb5b",
					"participants(address,address)": "8d546447",
					"participate(address)": "b91038c7",
					"start(uint256,uint256)": "8fb4b573",
					"withdraw()": "3ccfd60b"
				}
			},
			"storageLayout": {
				"storage": [
					{
						"astId": 15,
						"contract": "Lottery.sol:Lottery",
						"label": "owner",
						"offset": 0,
						"slot": "0",
						"type": "t_address"
					},
					{
						"astId": 29,
						"contract": "Lottery.sol:Lottery",
						"label": "lotteryStorage",
						"offset": 0,
						"slot": "1",
						"type": "t_mapping(t_address,t_struct(lottery)13_storage)"
					},
					{
						"astId": 35,
						"contract": "Lottery.sol:Lottery",
						"label": "participants",
						"offset": 0,
						"slot": "2",
						"type": "t_mapping(t_address,t_mapping(t_address,t_bool))"
					}
				],
				"types": {
					"t_address": {
						"encoding": "inplace",
						"label": "address",
						"numberOfBytes": "20"
					},
					"t_array(t_address)dyn_storage": {
						"base": "t_address",
						"encoding": "dynamic_array",
						"label": "address[]",
						"numberOfBytes": "32"
					},
					"t_bool": {
						"encoding": "inplace",
						"label": "bool",
						"numberOfBytes": "1"
					},
					"t_mapping(t_address,t_bool)": {
						"encoding": "mapping",
						"key": "t_address",
						"label": "mapping(address => bool)",
						"numberOfBytes": "32",
						"value": "t_bool"
					},
					"t_mapping(t_address,t_mapping(t_address,t_bool))": {
						"encoding": "mapping",
						"key": "t_address",
						"label": "mapping(address => mapping(address => bool))",
						"numberOfBytes": "32",
						"value": "t_mapping(t_address,t_bool)"
					},
					"t_mapping(t_address,t_struct(lottery)13_storage)": {
						"encoding": "mapping",
						"key": "t_address",
						"label": "mapping(address => struct Lottery.lottery)",
						"numberOfBytes": "32",
						"value": "t_struct(lottery)13_storage"
					},
					"t_struct(lottery)13_storage": {
						"encoding": "inplace",
						"label": "struct Lottery.lottery",
						"members": [
							{
								"astId": 4,
								"contract": "Lottery.sol:Lottery",
								"label": "players",
								"offset": 0,
								"slot": "0",
								"type": "t_array(t_address)dyn_storage"
							},
							{
								"astId": 6,
								"contract": "Lottery.sol:Lottery",
								"label": "prizePool",
								"offset": 0,
								"slot": "1",
								"type": "t_uint256"
							},
							{
								"astId": 8,
								"contract": "Lottery.sol:Lottery",
								"label": "winningNumber",
								"offset": 0,
								"slot": "2",
								"type": "t_uint256"
							},
							{
								"astId": 10,
								"contract": "Lottery.sol:Lottery",
								"label": "deadLine",
								"offset": 0,
								"slot": "3",
								"type": "t_uint256"
							},
							{
								"astId": 12,
								"contract": "Lottery.sol:Lottery",
								"label": "ended",
								"offset": 0,
								"slot": "4",
								"type": "t_bool"
							}
						],
						"numberOfBytes": "160"
					},
					"t_uint256": {
						"encoding": "inplace",
						"label": "uint256",
						"numberOfBytes": "32"
					}
				}
			},
			"userdoc": {
				"kind": "user",
				"methods": {},
				"version": 1
			}
		}
	}
}