{
	"tests/Lottery_test.sol": {
		"testSuite": {
			"abi": [
				{
					"inputs": [],
					"name": "beforeAll",
					"outputs": [],
					"stateMutability": "nonpayable",
					"type": "function"
				},
				{
					"inputs": [],
					"name": "checkFailure",
					"outputs": [],
					"stateMutability": "nonpayable",
					"type": "function"
				},
				{
					"inputs": [],
					"name": "checkSenderAndValue",
					"outputs": [],
					"stateMutability": "payable",
					"type": "function"
				},
				{
					"inputs": [],
					"name": "checkSuccess",
					"outputs": [],
					"stateMutability": "nonpayable",
					"type": "function"
				},
				{
					"inputs": [],
					"name": "checkSuccess2",
					"outputs": [
						{
							"internalType": "bool",
							"name": "",
							"type": "bool"
						}
					],
					"stateMutability": "pure",
					"type": "function"
				}
			],
			"devdoc": {
				"kind": "dev",
				"methods": {},
				"version": 1
			},
			"evm": {
				"assembly": "    /* \"tests/Lottery_test.sol\":496:1817  contract testSuite {... */\n  mstore(0x40, 0x80)\n  callvalue\n  dup1\n  iszero\n  tag_1\n  jumpi\n  0x00\n  dup1\n  revert\ntag_1:\n  pop\n  dataSize(sub_0)\n  dup1\n  dataOffset(sub_0)\n  0x00\n  codecopy\n  0x00\n  return\nstop\n\nsub_0: assembly {\n        /* \"tests/Lottery_test.sol\":496:1817  contract testSuite {... */\n      mstore(0x40, 0x80)\n      jumpi(tag_1, lt(calldatasize, 0x04))\n      shr(0xe0, calldataload(0x00))\n      dup1\n      0x011e6492\n      eq\n      tag_2\n      jumpi\n      dup1\n      0x12d487ea\n      eq\n      tag_3\n      jumpi\n      dup1\n      0x36c00656\n      eq\n      tag_4\n      jumpi\n      dup1\n      0x7fea0d4b\n      eq\n      tag_5\n      jumpi\n      dup1\n      0x9074416d\n      eq\n      tag_6\n      jumpi\n    tag_1:\n      0x00\n      dup1\n      revert\n        /* \"tests/Lottery_test.sol\":799:1134  function checkSuccess() public {... */\n    tag_2:\n      callvalue\n      dup1\n      iszero\n      tag_7\n      jumpi\n      0x00\n      dup1\n      revert\n    tag_7:\n      pop\n      tag_8\n      tag_9\n      jump\t// in\n    tag_8:\n      stop\n        /* \"tests/Lottery_test.sol\":1140:1289  function checkSuccess2() public pure returns (bool) {... */\n    tag_3:\n      callvalue\n      dup1\n      iszero\n      tag_10\n      jumpi\n      0x00\n      dup1\n      revert\n    tag_10:\n      pop\n      tag_11\n      tag_12\n      jump\t// in\n    tag_11:\n      mload(0x40)\n      tag_13\n      swap2\n      swap1\n      tag_14\n      jump\t// in\n    tag_13:\n      mload(0x40)\n      dup1\n      swap2\n      sub\n      swap1\n      return\n        /* \"tests/Lottery_test.sol\":1299:1410  function checkFailure() public {... */\n    tag_4:\n      callvalue\n      dup1\n      iszero\n      tag_15\n      jumpi\n      0x00\n      dup1\n      revert\n    tag_15:\n      pop\n      tag_16\n      tag_17\n      jump\t// in\n    tag_16:\n      stop\n        /* \"tests/Lottery_test.sol\":658:793  function beforeAll() public {... */\n    tag_5:\n      callvalue\n      dup1\n      iszero\n      tag_18\n      jumpi\n      0x00\n      dup1\n      revert\n    tag_18:\n      pop\n      tag_19\n      tag_20\n      jump\t// in\n    tag_19:\n      stop\n        /* \"tests/Lottery_test.sol\":1573:1815  function checkSenderAndValue() public payable {... */\n    tag_6:\n      tag_21\n      tag_22\n      jump\t// in\n    tag_21:\n      stop\n        /* \"tests/Lottery_test.sol\":799:1134  function checkSuccess() public {... */\n    tag_9:\n        /* \"tests/Lottery_test.sol\":936:942  Assert */\n      linkerSymbol(\"acbfb1c35000d78352310b16a054a6b1066124b9c6f054b10c085f549bff80c6\")\n        /* \"tests/Lottery_test.sol\":936:945  Assert.ok */\n      0x39df137f\n        /* \"tests/Lottery_test.sol\":951:952  2 */\n      0x02\n        /* \"tests/Lottery_test.sol\":946:947  2 */\n      dup1\n        /* \"tests/Lottery_test.sol\":946:952  2 == 2 */\n      eq\n        /* \"tests/Lottery_test.sol\":936:971  Assert.ok(2 == 2, 'should be true') */\n      mload(0x40)\n      dup3\n      0xffffffff\n      and\n      0xe0\n      shl\n      dup2\n      mstore\n      0x04\n      add\n      tag_24\n      swap2\n      swap1\n      tag_25\n      jump\t// in\n    tag_24:\n      0x20\n      mload(0x40)\n      dup1\n      dup4\n      sub\n      dup2\n      dup7\n      dup1\n      extcodesize\n      iszero\n      dup1\n      iszero\n      tag_26\n      jumpi\n      0x00\n      dup1\n      revert\n    tag_26:\n      pop\n      gas\n      delegatecall\n      iszero\n      dup1\n      iszero\n      tag_28\n      jumpi\n      returndatasize\n      0x00\n      dup1\n      returndatacopy\n      revert(0x00, returndatasize)\n    tag_28:\n      pop\n      pop\n      pop\n      pop\n      mload(0x40)\n      returndatasize\n      not(0x1f)\n      0x1f\n      dup3\n      add\n      and\n      dup3\n      add\n      dup1\n      0x40\n      mstore\n      pop\n      dup2\n      add\n      swap1\n      tag_29\n      swap2\n      swap1\n      tag_30\n      jump\t// in\n    tag_29:\n      pop\n        /* \"tests/Lottery_test.sol\":981:987  Assert */\n      linkerSymbol(\"acbfb1c35000d78352310b16a054a6b1066124b9c6f054b10c085f549bff80c6\")\n        /* \"tests/Lottery_test.sol\":981:999  Assert.greaterThan */\n      0xa079f1a3\n        /* \"tests/Lottery_test.sol\":1005:1006  2 */\n      0x02\n        /* \"tests/Lottery_test.sol\":1014:1015  1 */\n      0x01\n        /* \"tests/Lottery_test.sol\":981:1050  Assert.greaterThan(uint(2), uint(1), \"2 should be greater than to 1\") */\n      mload(0x40)\n      dup4\n      0xffffffff\n      and\n      0xe0\n      shl\n      dup2\n      mstore\n      0x04\n      add\n      tag_31\n      swap3\n      swap2\n      swap1\n      tag_32\n      jump\t// in\n    tag_31:\n      0x20\n      mload(0x40)\n      dup1\n      dup4\n      sub\n      dup2\n      dup7\n      dup1\n      extcodesize\n      iszero\n      dup1\n      iszero\n      tag_33\n      jumpi\n      0x00\n      dup1\n      revert\n    tag_33:\n      pop\n      gas\n      delegatecall\n      iszero\n      dup1\n      iszero\n      tag_35\n      jumpi\n      returndatasize\n      0x00\n      dup1\n      returndatacopy\n      revert(0x00, returndatasize)\n    tag_35:\n      pop\n      pop\n      pop\n      pop\n      mload(0x40)\n      returndatasize\n      not(0x1f)\n      0x1f\n      dup3\n      add\n      and\n      dup3\n      add\n      dup1\n      0x40\n      mstore\n      pop\n      dup2\n      add\n      swap1\n      tag_36\n      swap2\n      swap1\n      tag_30\n      jump\t// in\n    tag_36:\n      pop\n        /* \"tests/Lottery_test.sol\":1060:1066  Assert */\n      linkerSymbol(\"acbfb1c35000d78352310b16a054a6b1066124b9c6f054b10c085f549bff80c6\")\n        /* \"tests/Lottery_test.sol\":1060:1077  Assert.lesserThan */\n      0xaea88952\n        /* \"tests/Lottery_test.sol\":1083:1084  2 */\n      0x02\n        /* \"tests/Lottery_test.sol\":1092:1093  3 */\n      0x03\n        /* \"tests/Lottery_test.sol\":1060:1127  Assert.lesserThan(uint(2), uint(3), \"2 should be lesser than to 3\") */\n      mload(0x40)\n      dup4\n      0xffffffff\n      and\n      0xe0\n      shl\n      dup2\n      mstore\n      0x04\n      add\n      tag_37\n      swap3\n      swap2\n      swap1\n      tag_38\n      jump\t// in\n    tag_37:\n      0x20\n      mload(0x40)\n      dup1\n      dup4\n      sub\n      dup2\n      dup7\n      dup1\n      extcodesize\n      iszero\n      dup1\n      iszero\n      tag_39\n      jumpi\n      0x00\n      dup1\n      revert\n    tag_39:\n      pop\n      gas\n      delegatecall\n      iszero\n      dup1\n      iszero\n      tag_41\n      jumpi\n      returndatasize\n      0x00\n      dup1\n      returndatacopy\n      revert(0x00, returndatasize)\n    tag_41:\n      pop\n      pop\n      pop\n      pop\n      mload(0x40)\n      returndatasize\n      not(0x1f)\n      0x1f\n      dup3\n      add\n      and\n      dup3\n      add\n      dup1\n      0x40\n      mstore\n      pop\n      dup2\n      add\n      swap1\n      tag_42\n      swap2\n      swap1\n      tag_30\n      jump\t// in\n    tag_42:\n      pop\n        /* \"tests/Lottery_test.sol\":799:1134  function checkSuccess() public {... */\n      jump\t// out\n        /* \"tests/Lottery_test.sol\":1140:1289  function checkSuccess2() public pure returns (bool) {... */\n    tag_12:\n        /* \"tests/Lottery_test.sol\":1186:1190  bool */\n      0x00\n        /* \"tests/Lottery_test.sol\":1278:1282  true */\n      0x01\n        /* \"tests/Lottery_test.sol\":1271:1282  return true */\n      swap1\n      pop\n        /* \"tests/Lottery_test.sol\":1140:1289  function checkSuccess2() public pure returns (bool) {... */\n      swap1\n      jump\t// out\n        /* \"tests/Lottery_test.sol\":1299:1410  function checkFailure() public {... */\n    tag_17:\n        /* \"tests/Lottery_test.sol\":1340:1346  Assert */\n      linkerSymbol(\"acbfb1c35000d78352310b16a054a6b1066124b9c6f054b10c085f549bff80c6\")\n        /* \"tests/Lottery_test.sol\":1340:1355  Assert.notEqual */\n      0x561015e2\n        /* \"tests/Lottery_test.sol\":1361:1362  1 */\n      0x01\n        /* \"tests/Lottery_test.sol\":1370:1371  2 */\n      0x02\n        /* \"tests/Lottery_test.sol\":1340:1403  Assert.notEqual(uint(1), uint(2), \"1 should not be equal to 1\") */\n      mload(0x40)\n      dup4\n      0xffffffff\n      and\n      0xe0\n      shl\n      dup2\n      mstore\n      0x04\n      add\n      tag_45\n      swap3\n      swap2\n      swap1\n      tag_46\n      jump\t// in\n    tag_45:\n      0x20\n      mload(0x40)\n      dup1\n      dup4\n      sub\n      dup2\n      dup7\n      dup1\n      extcodesize\n      iszero\n      dup1\n      iszero\n      tag_47\n      jumpi\n      0x00\n      dup1\n      revert\n    tag_47:\n      pop\n      gas\n      delegatecall\n      iszero\n      dup1\n      iszero\n      tag_49\n      jumpi\n      returndatasize\n      0x00\n      dup1\n      returndatacopy\n      revert(0x00, returndatasize)\n    tag_49:\n      pop\n      pop\n      pop\n      pop\n      mload(0x40)\n      returndatasize\n      not(0x1f)\n      0x1f\n      dup3\n      add\n      and\n      dup3\n      add\n      dup1\n      0x40\n      mstore\n      pop\n      dup2\n      add\n      swap1\n      tag_50\n      swap2\n      swap1\n      tag_30\n      jump\t// in\n    tag_50:\n      pop\n        /* \"tests/Lottery_test.sol\":1299:1410  function checkFailure() public {... */\n      jump\t// out\n        /* \"tests/Lottery_test.sol\":658:793  function beforeAll() public {... */\n    tag_20:\n        /* \"tests/Lottery_test.sol\":730:736  Assert */\n      linkerSymbol(\"acbfb1c35000d78352310b16a054a6b1066124b9c6f054b10c085f549bff80c6\")\n        /* \"tests/Lottery_test.sol\":730:742  Assert.equal */\n      0xabcd7960\n        /* \"tests/Lottery_test.sol\":748:749  1 */\n      0x01\n        /* \"tests/Lottery_test.sol\":757:758  1 */\n      dup1\n        /* \"tests/Lottery_test.sol\":730:786  Assert.equal(uint(1), uint(1), \"1 should be equal to 1\") */\n      mload(0x40)\n      dup4\n      0xffffffff\n      and\n      0xe0\n      shl\n      dup2\n      mstore\n      0x04\n      add\n      tag_52\n      swap3\n      swap2\n      swap1\n      tag_53\n      jump\t// in\n    tag_52:\n      0x20\n      mload(0x40)\n      dup1\n      dup4\n      sub\n      dup2\n      dup7\n      dup1\n      extcodesize\n      iszero\n      dup1\n      iszero\n      tag_54\n      jumpi\n      0x00\n      dup1\n      revert\n    tag_54:\n      pop\n      gas\n      delegatecall\n      iszero\n      dup1\n      iszero\n      tag_56\n      jumpi\n      returndatasize\n      0x00\n      dup1\n      returndatacopy\n      revert(0x00, returndatasize)\n    tag_56:\n      pop\n      pop\n      pop\n      pop\n      mload(0x40)\n      returndatasize\n      not(0x1f)\n      0x1f\n      dup3\n      add\n      and\n      dup3\n      add\n      dup1\n      0x40\n      mstore\n      pop\n      dup2\n      add\n      swap1\n      tag_57\n      swap2\n      swap1\n      tag_30\n      jump\t// in\n    tag_57:\n      pop\n        /* \"tests/Lottery_test.sol\":658:793  function beforeAll() public {... */\n      jump\t// out\n        /* \"tests/Lottery_test.sol\":1573:1815  function checkSenderAndValue() public payable {... */\n    tag_22:\n        /* \"tests/Lottery_test.sol\":1682:1688  Assert */\n      linkerSymbol(\"acbfb1c35000d78352310b16a054a6b1066124b9c6f054b10c085f549bff80c6\")\n        /* \"tests/Lottery_test.sol\":1682:1694  Assert.equal */\n      0xbfba5dd6\n        /* \"tests/Lottery_test.sol\":1695:1705  msg.sender */\n      caller\n        /* \"tests/Lottery_test.sol\":1707:1720  TestsAccounts */\n      linkerSymbol(\"1068a87eb54ed04c4e435de35b2ebf536f41f3ff436b4a9bd78b8044f97a1889\")\n        /* \"tests/Lottery_test.sol\":1707:1731  TestsAccounts.getAccount */\n      0xce88b145\n        /* \"tests/Lottery_test.sol\":1732:1733  1 */\n      0x01\n        /* \"tests/Lottery_test.sol\":1707:1734  TestsAccounts.getAccount(1) */\n      mload(0x40)\n      dup3\n      0xffffffff\n      and\n      0xe0\n      shl\n      dup2\n      mstore\n      0x04\n      add\n      tag_59\n      swap2\n      swap1\n      tag_60\n      jump\t// in\n    tag_59:\n      0x20\n      mload(0x40)\n      dup1\n      dup4\n      sub\n      dup2\n      dup7\n      dup1\n      extcodesize\n      iszero\n      dup1\n      iszero\n      tag_61\n      jumpi\n      0x00\n      dup1\n      revert\n    tag_61:\n      pop\n      gas\n      delegatecall\n      iszero\n      dup1\n      iszero\n      tag_63\n      jumpi\n      returndatasize\n      0x00\n      dup1\n      returndatacopy\n      revert(0x00, returndatasize)\n    tag_63:\n      pop\n      pop\n      pop\n      pop\n      mload(0x40)\n      returndatasize\n      not(0x1f)\n      0x1f\n      dup3\n      add\n      and\n      dup3\n      add\n      dup1\n      0x40\n      mstore\n      pop\n      dup2\n      add\n      swap1\n      tag_64\n      swap2\n      swap1\n      tag_65\n      jump\t// in\n    tag_64:\n        /* \"tests/Lottery_test.sol\":1682:1753  Assert.equal(msg.sender, TestsAccounts.getAccount(1), \"Invalid sender\") */\n      mload(0x40)\n      dup4\n      0xffffffff\n      and\n      0xe0\n      shl\n      dup2\n      mstore\n      0x04\n      add\n      tag_66\n      swap3\n      swap2\n      swap1\n      tag_67\n      jump\t// in\n    tag_66:\n      0x20\n      mload(0x40)\n      dup1\n      dup4\n      sub\n      dup2\n      dup7\n      dup1\n      extcodesize\n      iszero\n      dup1\n      iszero\n      tag_68\n      jumpi\n      0x00\n      dup1\n      revert\n    tag_68:\n      pop\n      gas\n      delegatecall\n      iszero\n      dup1\n      iszero\n      tag_70\n      jumpi\n      returndatasize\n      0x00\n      dup1\n      returndatacopy\n      revert(0x00, returndatasize)\n    tag_70:\n      pop\n      pop\n      pop\n      pop\n      mload(0x40)\n      returndatasize\n      not(0x1f)\n      0x1f\n      dup3\n      add\n      and\n      dup3\n      add\n      dup1\n      0x40\n      mstore\n      pop\n      dup2\n      add\n      swap1\n      tag_71\n      swap2\n      swap1\n      tag_30\n      jump\t// in\n    tag_71:\n      pop\n        /* \"tests/Lottery_test.sol\":1763:1769  Assert */\n      linkerSymbol(\"acbfb1c35000d78352310b16a054a6b1066124b9c6f054b10c085f549bff80c6\")\n        /* \"tests/Lottery_test.sol\":1763:1775  Assert.equal */\n      0xabcd7960\n        /* \"tests/Lottery_test.sol\":1776:1785  msg.value */\n      callvalue\n        /* \"tests/Lottery_test.sol\":1787:1790  100 */\n      0x64\n        /* \"tests/Lottery_test.sol\":1763:1808  Assert.equal(msg.value, 100, \"Invalid value\") */\n      mload(0x40)\n      dup4\n      0xffffffff\n      and\n      0xe0\n      shl\n      dup2\n      mstore\n      0x04\n      add\n      tag_72\n      swap3\n      swap2\n      swap1\n      tag_73\n      jump\t// in\n    tag_72:\n      0x20\n      mload(0x40)\n      dup1\n      dup4\n      sub\n      dup2\n      dup7\n      dup1\n      extcodesize\n      iszero\n      dup1\n      iszero\n      tag_74\n      jumpi\n      0x00\n      dup1\n      revert\n    tag_74:\n      pop\n      gas\n      delegatecall\n      iszero\n      dup1\n      iszero\n      tag_76\n      jumpi\n      returndatasize\n      0x00\n      dup1\n      returndatacopy\n      revert(0x00, returndatasize)\n    tag_76:\n      pop\n      pop\n      pop\n      pop\n      mload(0x40)\n      returndatasize\n      not(0x1f)\n      0x1f\n      dup3\n      add\n      and\n      dup3\n      add\n      dup1\n      0x40\n      mstore\n      pop\n      dup2\n      add\n      swap1\n      tag_77\n      swap2\n      swap1\n      tag_30\n      jump\t// in\n    tag_77:\n      pop\n        /* \"tests/Lottery_test.sol\":1573:1815  function checkSenderAndValue() public payable {... */\n      jump\t// out\n        /* \"#utility.yul\":7:150   */\n    tag_79:\n        /* \"#utility.yul\":64:69   */\n      0x00\n        /* \"#utility.yul\":95:101   */\n      dup2\n        /* \"#utility.yul\":89:102   */\n      mload\n        /* \"#utility.yul\":80:102   */\n      swap1\n      pop\n        /* \"#utility.yul\":111:144   */\n      tag_81\n        /* \"#utility.yul\":138:143   */\n      dup2\n        /* \"#utility.yul\":111:144   */\n      tag_82\n      jump\t// in\n    tag_81:\n        /* \"#utility.yul\":7:150   */\n      swap3\n      swap2\n      pop\n      pop\n      jump\t// out\n        /* \"#utility.yul\":156:293   */\n    tag_83:\n        /* \"#utility.yul\":210:215   */\n      0x00\n        /* \"#utility.yul\":241:247   */\n      dup2\n        /* \"#utility.yul\":235:248   */\n      mload\n        /* \"#utility.yul\":226:248   */\n      swap1\n      pop\n        /* \"#utility.yul\":257:287   */\n      tag_85\n        /* \"#utility.yul\":281:286   */\n      dup2\n        /* \"#utility.yul\":257:287   */\n      tag_86\n      jump\t// in\n    tag_85:\n        /* \"#utility.yul\":156:293   */\n      swap3\n      swap2\n      pop\n      pop\n      jump\t// out\n        /* \"#utility.yul\":299:650   */\n    tag_65:\n        /* \"#utility.yul\":369:375   */\n      0x00\n        /* \"#utility.yul\":418:420   */\n      0x20\n        /* \"#utility.yul\":406:415   */\n      dup3\n        /* \"#utility.yul\":397:404   */\n      dup5\n        /* \"#utility.yul\":393:416   */\n      sub\n        /* \"#utility.yul\":389:421   */\n      slt\n        /* \"#utility.yul\":386:505   */\n      iszero\n      tag_88\n      jumpi\n        /* \"#utility.yul\":424:503   */\n      tag_89\n      tag_90\n      jump\t// in\n    tag_89:\n        /* \"#utility.yul\":386:505   */\n    tag_88:\n        /* \"#utility.yul\":544:545   */\n      0x00\n        /* \"#utility.yul\":569:633   */\n      tag_91\n        /* \"#utility.yul\":625:632   */\n      dup5\n        /* \"#utility.yul\":616:622   */\n      dup3\n        /* \"#utility.yul\":605:614   */\n      dup6\n        /* \"#utility.yul\":601:623   */\n      add\n        /* \"#utility.yul\":569:633   */\n      tag_79\n      jump\t// in\n    tag_91:\n        /* \"#utility.yul\":559:633   */\n      swap2\n      pop\n        /* \"#utility.yul\":515:643   */\n      pop\n        /* \"#utility.yul\":299:650   */\n      swap3\n      swap2\n      pop\n      pop\n      jump\t// out\n        /* \"#utility.yul\":656:1001   */\n    tag_30:\n        /* \"#utility.yul\":723:729   */\n      0x00\n        /* \"#utility.yul\":772:774   */\n      0x20\n        /* \"#utility.yul\":760:769   */\n      dup3\n        /* \"#utility.yul\":751:758   */\n      dup5\n        /* \"#utility.yul\":747:770   */\n      sub\n        /* \"#utility.yul\":743:775   */\n      slt\n        /* \"#utility.yul\":740:859   */\n      iszero\n      tag_93\n      jumpi\n        /* \"#utility.yul\":778:857   */\n      tag_94\n      tag_90\n      jump\t// in\n    tag_94:\n        /* \"#utility.yul\":740:859   */\n    tag_93:\n        /* \"#utility.yul\":898:899   */\n      0x00\n        /* \"#utility.yul\":923:984   */\n      tag_95\n        /* \"#utility.yul\":976:983   */\n      dup5\n        /* \"#utility.yul\":967:973   */\n      dup3\n        /* \"#utility.yul\":956:965   */\n      dup6\n        /* \"#utility.yul\":952:974   */\n      add\n        /* \"#utility.yul\":923:984   */\n      tag_83\n      jump\t// in\n    tag_95:\n        /* \"#utility.yul\":913:984   */\n      swap2\n      pop\n        /* \"#utility.yul\":869:994   */\n      pop\n        /* \"#utility.yul\":656:1001   */\n      swap3\n      swap2\n      pop\n      pop\n      jump\t// out\n        /* \"#utility.yul\":1007:1133   */\n    tag_96:\n        /* \"#utility.yul\":1102:1126   */\n      tag_98\n        /* \"#utility.yul\":1120:1125   */\n      dup2\n        /* \"#utility.yul\":1102:1126   */\n      tag_99\n      jump\t// in\n    tag_98:\n        /* \"#utility.yul\":1097:1100   */\n      dup3\n        /* \"#utility.yul\":1090:1127   */\n      mstore\n        /* \"#utility.yul\":1007:1133   */\n      pop\n      pop\n      jump\t// out\n        /* \"#utility.yul\":1139:1248   */\n    tag_100:\n        /* \"#utility.yul\":1220:1241   */\n      tag_102\n        /* \"#utility.yul\":1235:1240   */\n      dup2\n        /* \"#utility.yul\":1220:1241   */\n      tag_103\n      jump\t// in\n    tag_102:\n        /* \"#utility.yul\":1215:1218   */\n      dup3\n        /* \"#utility.yul\":1208:1242   */\n      mstore\n        /* \"#utility.yul\":1139:1248   */\n      pop\n      pop\n      jump\t// out\n        /* \"#utility.yul\":1254:1371   */\n    tag_104:\n        /* \"#utility.yul\":1343:1364   */\n      tag_106\n        /* \"#utility.yul\":1358:1363   */\n      dup2\n        /* \"#utility.yul\":1343:1364   */\n      tag_103\n      jump\t// in\n    tag_106:\n        /* \"#utility.yul\":1338:1341   */\n      dup3\n        /* \"#utility.yul\":1331:1365   */\n      mstore\n        /* \"#utility.yul\":1254:1371   */\n      pop\n      pop\n      jump\t// out\n        /* \"#utility.yul\":1377:1536   */\n    tag_107:\n        /* \"#utility.yul\":1482:1529   */\n      tag_109\n        /* \"#utility.yul\":1523:1528   */\n      dup2\n        /* \"#utility.yul\":1482:1529   */\n      tag_110\n      jump\t// in\n    tag_109:\n        /* \"#utility.yul\":1477:1480   */\n      dup3\n        /* \"#utility.yul\":1470:1530   */\n      mstore\n        /* \"#utility.yul\":1377:1536   */\n      pop\n      pop\n      jump\t// out\n        /* \"#utility.yul\":1542:1697   */\n    tag_111:\n        /* \"#utility.yul\":1645:1690   */\n      tag_113\n        /* \"#utility.yul\":1684:1689   */\n      dup2\n        /* \"#utility.yul\":1645:1690   */\n      tag_114\n      jump\t// in\n    tag_113:\n        /* \"#utility.yul\":1640:1643   */\n      dup3\n        /* \"#utility.yul\":1633:1691   */\n      mstore\n        /* \"#utility.yul\":1542:1697   */\n      pop\n      pop\n      jump\t// out\n        /* \"#utility.yul\":1703:2085   */\n    tag_115:\n        /* \"#utility.yul\":1853:1856   */\n      0x00\n        /* \"#utility.yul\":1874:1949   */\n      tag_117\n        /* \"#utility.yul\":1946:1948   */\n      0x1d\n        /* \"#utility.yul\":1941:1944   */\n      dup4\n        /* \"#utility.yul\":1874:1949   */\n      tag_118\n      jump\t// in\n    tag_117:\n        /* \"#utility.yul\":1867:1949   */\n      swap2\n      pop\n        /* \"#utility.yul\":1958:2051   */\n      tag_119\n        /* \"#utility.yul\":2047:2050   */\n      dup3\n        /* \"#utility.yul\":1958:2051   */\n      tag_120\n      jump\t// in\n    tag_119:\n        /* \"#utility.yul\":2076:2078   */\n      0x20\n        /* \"#utility.yul\":2071:2074   */\n      dup3\n        /* \"#utility.yul\":2067:2079   */\n      add\n        /* \"#utility.yul\":2060:2079   */\n      swap1\n      pop\n        /* \"#utility.yul\":1703:2085   */\n      swap2\n      swap1\n      pop\n      jump\t// out\n        /* \"#utility.yul\":2091:2473   */\n    tag_121:\n        /* \"#utility.yul\":2241:2244   */\n      0x00\n        /* \"#utility.yul\":2262:2337   */\n      tag_123\n        /* \"#utility.yul\":2334:2336   */\n      0x0e\n        /* \"#utility.yul\":2329:2332   */\n      dup4\n        /* \"#utility.yul\":2262:2337   */\n      tag_118\n      jump\t// in\n    tag_123:\n        /* \"#utility.yul\":2255:2337   */\n      swap2\n      pop\n        /* \"#utility.yul\":2346:2439   */\n      tag_124\n        /* \"#utility.yul\":2435:2438   */\n      dup3\n        /* \"#utility.yul\":2346:2439   */\n      tag_125\n      jump\t// in\n    tag_124:\n        /* \"#utility.yul\":2464:2466   */\n      0x20\n        /* \"#utility.yul\":2459:2462   */\n      dup3\n        /* \"#utility.yul\":2455:2467   */\n      add\n        /* \"#utility.yul\":2448:2467   */\n      swap1\n      pop\n        /* \"#utility.yul\":2091:2473   */\n      swap2\n      swap1\n      pop\n      jump\t// out\n        /* \"#utility.yul\":2479:2861   */\n    tag_126:\n        /* \"#utility.yul\":2629:2632   */\n      0x00\n        /* \"#utility.yul\":2650:2725   */\n      tag_128\n        /* \"#utility.yul\":2722:2724   */\n      0x0d\n        /* \"#utility.yul\":2717:2720   */\n      dup4\n        /* \"#utility.yul\":2650:2725   */\n      tag_118\n      jump\t// in\n    tag_128:\n        /* \"#utility.yul\":2643:2725   */\n      swap2\n      pop\n        /* \"#utility.yul\":2734:2827   */\n      tag_129\n        /* \"#utility.yul\":2823:2826   */\n      dup3\n        /* \"#utility.yul\":2734:2827   */\n      tag_130\n      jump\t// in\n    tag_129:\n        /* \"#utility.yul\":2852:2854   */\n      0x20\n        /* \"#utility.yul\":2847:2850   */\n      dup3\n        /* \"#utility.yul\":2843:2855   */\n      add\n        /* \"#utility.yul\":2836:2855   */\n      swap1\n      pop\n        /* \"#utility.yul\":2479:2861   */\n      swap2\n      swap1\n      pop\n      jump\t// out\n        /* \"#utility.yul\":2867:3249   */\n    tag_131:\n        /* \"#utility.yul\":3017:3020   */\n      0x00\n        /* \"#utility.yul\":3038:3113   */\n      tag_133\n        /* \"#utility.yul\":3110:3112   */\n      0x1c\n        /* \"#utility.yul\":3105:3108   */\n      dup4\n        /* \"#utility.yul\":3038:3113   */\n      tag_118\n      jump\t// in\n    tag_133:\n        /* \"#utility.yul\":3031:3113   */\n      swap2\n      pop\n        /* \"#utility.yul\":3122:3215   */\n      tag_134\n        /* \"#utility.yul\":3211:3214   */\n      dup3\n        /* \"#utility.yul\":3122:3215   */\n      tag_135\n      jump\t// in\n    tag_134:\n        /* \"#utility.yul\":3240:3242   */\n      0x20\n        /* \"#utility.yul\":3235:3238   */\n      dup3\n        /* \"#utility.yul\":3231:3243   */\n      add\n        /* \"#utility.yul\":3224:3243   */\n      swap1\n      pop\n        /* \"#utility.yul\":2867:3249   */\n      swap2\n      swap1\n      pop\n      jump\t// out\n        /* \"#utility.yul\":3255:3637   */\n    tag_136:\n        /* \"#utility.yul\":3405:3408   */\n      0x00\n        /* \"#utility.yul\":3426:3501   */\n      tag_138\n        /* \"#utility.yul\":3498:3500   */\n      0x0e\n        /* \"#utility.yul\":3493:3496   */\n      dup4\n        /* \"#utility.yul\":3426:3501   */\n      tag_118\n      jump\t// in\n    tag_138:\n        /* \"#utility.yul\":3419:3501   */\n      swap2\n      pop\n        /* \"#utility.yul\":3510:3603   */\n      tag_139\n        /* \"#utility.yul\":3599:3602   */\n      dup3\n        /* \"#utility.yul\":3510:3603   */\n      tag_140\n      jump\t// in\n    tag_139:\n        /* \"#utility.yul\":3628:3630   */\n      0x20\n        /* \"#utility.yul\":3623:3626   */\n      dup3\n        /* \"#utility.yul\":3619:3631   */\n      add\n        /* \"#utility.yul\":3612:3631   */\n      swap1\n      pop\n        /* \"#utility.yul\":3255:3637   */\n      swap2\n      swap1\n      pop\n      jump\t// out\n        /* \"#utility.yul\":3643:4025   */\n    tag_141:\n        /* \"#utility.yul\":3793:3796   */\n      0x00\n        /* \"#utility.yul\":3814:3889   */\n      tag_143\n        /* \"#utility.yul\":3886:3888   */\n      0x16\n        /* \"#utility.yul\":3881:3884   */\n      dup4\n        /* \"#utility.yul\":3814:3889   */\n      tag_118\n      jump\t// in\n    tag_143:\n        /* \"#utility.yul\":3807:3889   */\n      swap2\n      pop\n        /* \"#utility.yul\":3898:3991   */\n      tag_144\n        /* \"#utility.yul\":3987:3990   */\n      dup3\n        /* \"#utility.yul\":3898:3991   */\n      tag_145\n      jump\t// in\n    tag_144:\n        /* \"#utility.yul\":4016:4018   */\n      0x20\n        /* \"#utility.yul\":4011:4014   */\n      dup3\n        /* \"#utility.yul\":4007:4019   */\n      add\n        /* \"#utility.yul\":4000:4019   */\n      swap1\n      pop\n        /* \"#utility.yul\":3643:4025   */\n      swap2\n      swap1\n      pop\n      jump\t// out\n        /* \"#utility.yul\":4031:4413   */\n    tag_146:\n        /* \"#utility.yul\":4181:4184   */\n      0x00\n        /* \"#utility.yul\":4202:4277   */\n      tag_148\n        /* \"#utility.yul\":4274:4276   */\n      0x1a\n        /* \"#utility.yul\":4269:4272   */\n      dup4\n        /* \"#utility.yul\":4202:4277   */\n      tag_118\n      jump\t// in\n    tag_148:\n        /* \"#utility.yul\":4195:4277   */\n      swap2\n      pop\n        /* \"#utility.yul\":4286:4379   */\n      tag_149\n        /* \"#utility.yul\":4375:4378   */\n      dup3\n        /* \"#utility.yul\":4286:4379   */\n      tag_150\n      jump\t// in\n    tag_149:\n        /* \"#utility.yul\":4404:4406   */\n      0x20\n        /* \"#utility.yul\":4399:4402   */\n      dup3\n        /* \"#utility.yul\":4395:4407   */\n      add\n        /* \"#utility.yul\":4388:4407   */\n      swap1\n      pop\n        /* \"#utility.yul\":4031:4413   */\n      swap2\n      swap1\n      pop\n      jump\t// out\n        /* \"#utility.yul\":4419:4545   */\n    tag_151:\n        /* \"#utility.yul\":4514:4538   */\n      tag_153\n        /* \"#utility.yul\":4532:4537   */\n      dup2\n        /* \"#utility.yul\":4514:4538   */\n      tag_154\n      jump\t// in\n    tag_153:\n        /* \"#utility.yul\":4509:4512   */\n      dup3\n        /* \"#utility.yul\":4502:4539   */\n      mstore\n        /* \"#utility.yul\":4419:4545   */\n      pop\n      pop\n      jump\t// out\n        /* \"#utility.yul\":4551:5222   */\n    tag_67:\n        /* \"#utility.yul\":4781:4785   */\n      0x00\n        /* \"#utility.yul\":4819:4821   */\n      0x60\n        /* \"#utility.yul\":4808:4817   */\n      dup3\n        /* \"#utility.yul\":4804:4822   */\n      add\n        /* \"#utility.yul\":4796:4822   */\n      swap1\n      pop\n        /* \"#utility.yul\":4832:4911   */\n      tag_156\n        /* \"#utility.yul\":4908:4909   */\n      0x00\n        /* \"#utility.yul\":4897:4906   */\n      dup4\n        /* \"#utility.yul\":4893:4910   */\n      add\n        /* \"#utility.yul\":4884:4890   */\n      dup6\n        /* \"#utility.yul\":4832:4911   */\n      tag_96\n      jump\t// in\n    tag_156:\n        /* \"#utility.yul\":4921:5001   */\n      tag_157\n        /* \"#utility.yul\":4997:4999   */\n      0x20\n        /* \"#utility.yul\":4986:4995   */\n      dup4\n        /* \"#utility.yul\":4982:5000   */\n      add\n        /* \"#utility.yul\":4973:4979   */\n      dup5\n        /* \"#utility.yul\":4921:5001   */\n      tag_96\n      jump\t// in\n    tag_157:\n        /* \"#utility.yul\":5048:5057   */\n      dup2\n        /* \"#utility.yul\":5042:5046   */\n      dup2\n        /* \"#utility.yul\":5038:5058   */\n      sub\n        /* \"#utility.yul\":5033:5035   */\n      0x40\n        /* \"#utility.yul\":5022:5031   */\n      dup4\n        /* \"#utility.yul\":5018:5036   */\n      add\n        /* \"#utility.yul\":5011:5059   */\n      mstore\n        /* \"#utility.yul\":5076:5215   */\n      tag_158\n        /* \"#utility.yul\":5210:5214   */\n      dup2\n        /* \"#utility.yul\":5076:5215   */\n      tag_121\n      jump\t// in\n    tag_158:\n        /* \"#utility.yul\":5068:5215   */\n      swap1\n      pop\n        /* \"#utility.yul\":4551:5222   */\n      swap4\n      swap3\n      pop\n      pop\n      pop\n      jump\t// out\n        /* \"#utility.yul\":5228:5438   */\n    tag_14:\n        /* \"#utility.yul\":5315:5319   */\n      0x00\n        /* \"#utility.yul\":5353:5355   */\n      0x20\n        /* \"#utility.yul\":5342:5351   */\n      dup3\n        /* \"#utility.yul\":5338:5356   */\n      add\n        /* \"#utility.yul\":5330:5356   */\n      swap1\n      pop\n        /* \"#utility.yul\":5366:5431   */\n      tag_160\n        /* \"#utility.yul\":5428:5429   */\n      0x00\n        /* \"#utility.yul\":5417:5426   */\n      dup4\n        /* \"#utility.yul\":5413:5430   */\n      add\n        /* \"#utility.yul\":5404:5410   */\n      dup5\n        /* \"#utility.yul\":5366:5431   */\n      tag_100\n      jump\t// in\n    tag_160:\n        /* \"#utility.yul\":5228:5438   */\n      swap3\n      swap2\n      pop\n      pop\n      jump\t// out\n        /* \"#utility.yul\":5444:5985   */\n    tag_25:\n        /* \"#utility.yul\":5640:5644   */\n      0x00\n        /* \"#utility.yul\":5678:5680   */\n      0x40\n        /* \"#utility.yul\":5667:5676   */\n      dup3\n        /* \"#utility.yul\":5663:5681   */\n      add\n        /* \"#utility.yul\":5655:5681   */\n      swap1\n      pop\n        /* \"#utility.yul\":5691:5764   */\n      tag_162\n        /* \"#utility.yul\":5761:5762   */\n      0x00\n        /* \"#utility.yul\":5750:5759   */\n      dup4\n        /* \"#utility.yul\":5746:5763   */\n      add\n        /* \"#utility.yul\":5737:5743   */\n      dup5\n        /* \"#utility.yul\":5691:5764   */\n      tag_104\n      jump\t// in\n    tag_162:\n        /* \"#utility.yul\":5811:5820   */\n      dup2\n        /* \"#utility.yul\":5805:5809   */\n      dup2\n        /* \"#utility.yul\":5801:5821   */\n      sub\n        /* \"#utility.yul\":5796:5798   */\n      0x20\n        /* \"#utility.yul\":5785:5794   */\n      dup4\n        /* \"#utility.yul\":5781:5799   */\n      add\n        /* \"#utility.yul\":5774:5822   */\n      mstore\n        /* \"#utility.yul\":5839:5978   */\n      tag_163\n        /* \"#utility.yul\":5973:5977   */\n      dup2\n        /* \"#utility.yul\":5839:5978   */\n      tag_136\n      jump\t// in\n    tag_163:\n        /* \"#utility.yul\":5831:5978   */\n      swap1\n      pop\n        /* \"#utility.yul\":5444:5985   */\n      swap3\n      swap2\n      pop\n      pop\n      jump\t// out\n        /* \"#utility.yul\":5991:6245   */\n    tag_60:\n        /* \"#utility.yul\":6100:6104   */\n      0x00\n        /* \"#utility.yul\":6138:6140   */\n      0x20\n        /* \"#utility.yul\":6127:6136   */\n      dup3\n        /* \"#utility.yul\":6123:6141   */\n      add\n        /* \"#utility.yul\":6115:6141   */\n      swap1\n      pop\n        /* \"#utility.yul\":6151:6238   */\n      tag_165\n        /* \"#utility.yul\":6235:6236   */\n      0x00\n        /* \"#utility.yul\":6224:6233   */\n      dup4\n        /* \"#utility.yul\":6220:6237   */\n      add\n        /* \"#utility.yul\":6211:6217   */\n      dup5\n        /* \"#utility.yul\":6151:6238   */\n      tag_111\n      jump\t// in\n    tag_165:\n        /* \"#utility.yul\":5991:6245   */\n      swap3\n      swap2\n      pop\n      pop\n      jump\t// out\n        /* \"#utility.yul\":6251:6942   */\n    tag_73:\n        /* \"#utility.yul\":6491:6495   */\n      0x00\n        /* \"#utility.yul\":6529:6531   */\n      0x60\n        /* \"#utility.yul\":6518:6527   */\n      dup3\n        /* \"#utility.yul\":6514:6532   */\n      add\n        /* \"#utility.yul\":6506:6532   */\n      swap1\n      pop\n        /* \"#utility.yul\":6542:6621   */\n      tag_167\n        /* \"#utility.yul\":6618:6619   */\n      0x00\n        /* \"#utility.yul\":6607:6616   */\n      dup4\n        /* \"#utility.yul\":6603:6620   */\n      add\n        /* \"#utility.yul\":6594:6600   */\n      dup6\n        /* \"#utility.yul\":6542:6621   */\n      tag_151\n      jump\t// in\n    tag_167:\n        /* \"#utility.yul\":6631:6721   */\n      tag_168\n        /* \"#utility.yul\":6717:6719   */\n      0x20\n        /* \"#utility.yul\":6706:6715   */\n      dup4\n        /* \"#utility.yul\":6702:6720   */\n      add\n        /* \"#utility.yul\":6693:6699   */\n      dup5\n        /* \"#utility.yul\":6631:6721   */\n      tag_107\n      jump\t// in\n    tag_168:\n        /* \"#utility.yul\":6768:6777   */\n      dup2\n        /* \"#utility.yul\":6762:6766   */\n      dup2\n        /* \"#utility.yul\":6758:6778   */\n      sub\n        /* \"#utility.yul\":6753:6755   */\n      0x40\n        /* \"#utility.yul\":6742:6751   */\n      dup4\n        /* \"#utility.yul\":6738:6756   */\n      add\n        /* \"#utility.yul\":6731:6779   */\n      mstore\n        /* \"#utility.yul\":6796:6935   */\n      tag_169\n        /* \"#utility.yul\":6930:6934   */\n      dup2\n        /* \"#utility.yul\":6796:6935   */\n      tag_126\n      jump\t// in\n    tag_169:\n        /* \"#utility.yul\":6788:6935   */\n      swap1\n      pop\n        /* \"#utility.yul\":6251:6942   */\n      swap4\n      swap3\n      pop\n      pop\n      pop\n      jump\t// out\n        /* \"#utility.yul\":6948:7619   */\n    tag_32:\n        /* \"#utility.yul\":7178:7182   */\n      0x00\n        /* \"#utility.yul\":7216:7218   */\n      0x60\n        /* \"#utility.yul\":7205:7214   */\n      dup3\n        /* \"#utility.yul\":7201:7219   */\n      add\n        /* \"#utility.yul\":7193:7219   */\n      swap1\n      pop\n        /* \"#utility.yul\":7229:7308   */\n      tag_171\n        /* \"#utility.yul\":7305:7306   */\n      0x00\n        /* \"#utility.yul\":7294:7303   */\n      dup4\n        /* \"#utility.yul\":7290:7307   */\n      add\n        /* \"#utility.yul\":7281:7287   */\n      dup6\n        /* \"#utility.yul\":7229:7308   */\n      tag_151\n      jump\t// in\n    tag_171:\n        /* \"#utility.yul\":7318:7398   */\n      tag_172\n        /* \"#utility.yul\":7394:7396   */\n      0x20\n        /* \"#utility.yul\":7383:7392   */\n      dup4\n        /* \"#utility.yul\":7379:7397   */\n      add\n        /* \"#utility.yul\":7370:7376   */\n      dup5\n        /* \"#utility.yul\":7318:7398   */\n      tag_151\n      jump\t// in\n    tag_172:\n        /* \"#utility.yul\":7445:7454   */\n      dup2\n        /* \"#utility.yul\":7439:7443   */\n      dup2\n        /* \"#utility.yul\":7435:7455   */\n      sub\n        /* \"#utility.yul\":7430:7432   */\n      0x40\n        /* \"#utility.yul\":7419:7428   */\n      dup4\n        /* \"#utility.yul\":7415:7433   */\n      add\n        /* \"#utility.yul\":7408:7456   */\n      mstore\n        /* \"#utility.yul\":7473:7612   */\n      tag_173\n        /* \"#utility.yul\":7607:7611   */\n      dup2\n        /* \"#utility.yul\":7473:7612   */\n      tag_115\n      jump\t// in\n    tag_173:\n        /* \"#utility.yul\":7465:7612   */\n      swap1\n      pop\n        /* \"#utility.yul\":6948:7619   */\n      swap4\n      swap3\n      pop\n      pop\n      pop\n      jump\t// out\n        /* \"#utility.yul\":7625:8296   */\n    tag_38:\n        /* \"#utility.yul\":7855:7859   */\n      0x00\n        /* \"#utility.yul\":7893:7895   */\n      0x60\n        /* \"#utility.yul\":7882:7891   */\n      dup3\n        /* \"#utility.yul\":7878:7896   */\n      add\n        /* \"#utility.yul\":7870:7896   */\n      swap1\n      pop\n        /* \"#utility.yul\":7906:7985   */\n      tag_175\n        /* \"#utility.yul\":7982:7983   */\n      0x00\n        /* \"#utility.yul\":7971:7980   */\n      dup4\n        /* \"#utility.yul\":7967:7984   */\n      add\n        /* \"#utility.yul\":7958:7964   */\n      dup6\n        /* \"#utility.yul\":7906:7985   */\n      tag_151\n      jump\t// in\n    tag_175:\n        /* \"#utility.yul\":7995:8075   */\n      tag_176\n        /* \"#utility.yul\":8071:8073   */\n      0x20\n        /* \"#utility.yul\":8060:8069   */\n      dup4\n        /* \"#utility.yul\":8056:8074   */\n      add\n        /* \"#utility.yul\":8047:8053   */\n      dup5\n        /* \"#utility.yul\":7995:8075   */\n      tag_151\n      jump\t// in\n    tag_176:\n        /* \"#utility.yul\":8122:8131   */\n      dup2\n        /* \"#utility.yul\":8116:8120   */\n      dup2\n        /* \"#utility.yul\":8112:8132   */\n      sub\n        /* \"#utility.yul\":8107:8109   */\n      0x40\n        /* \"#utility.yul\":8096:8105   */\n      dup4\n        /* \"#utility.yul\":8092:8110   */\n      add\n        /* \"#utility.yul\":8085:8133   */\n      mstore\n        /* \"#utility.yul\":8150:8289   */\n      tag_177\n        /* \"#utility.yul\":8284:8288   */\n      dup2\n        /* \"#utility.yul\":8150:8289   */\n      tag_131\n      jump\t// in\n    tag_177:\n        /* \"#utility.yul\":8142:8289   */\n      swap1\n      pop\n        /* \"#utility.yul\":7625:8296   */\n      swap4\n      swap3\n      pop\n      pop\n      pop\n      jump\t// out\n        /* \"#utility.yul\":8302:8973   */\n    tag_53:\n        /* \"#utility.yul\":8532:8536   */\n      0x00\n        /* \"#utility.yul\":8570:8572   */\n      0x60\n        /* \"#utility.yul\":8559:8568   */\n      dup3\n        /* \"#utility.yul\":8555:8573   */\n      add\n        /* \"#utility.yul\":8547:8573   */\n      swap1\n      pop\n        /* \"#utility.yul\":8583:8662   */\n      tag_179\n        /* \"#utility.yul\":8659:8660   */\n      0x00\n        /* \"#utility.yul\":8648:8657   */\n      dup4\n        /* \"#utility.yul\":8644:8661   */\n      add\n        /* \"#utility.yul\":8635:8641   */\n      dup6\n        /* \"#utility.yul\":8583:8662   */\n      tag_151\n      jump\t// in\n    tag_179:\n        /* \"#utility.yul\":8672:8752   */\n      tag_180\n        /* \"#utility.yul\":8748:8750   */\n      0x20\n        /* \"#utility.yul\":8737:8746   */\n      dup4\n        /* \"#utility.yul\":8733:8751   */\n      add\n        /* \"#utility.yul\":8724:8730   */\n      dup5\n        /* \"#utility.yul\":8672:8752   */\n      tag_151\n      jump\t// in\n    tag_180:\n        /* \"#utility.yul\":8799:8808   */\n      dup2\n        /* \"#utility.yul\":8793:8797   */\n      dup2\n        /* \"#utility.yul\":8789:8809   */\n      sub\n        /* \"#utility.yul\":8784:8786   */\n      0x40\n        /* \"#utility.yul\":8773:8782   */\n      dup4\n        /* \"#utility.yul\":8769:8787   */\n      add\n        /* \"#utility.yul\":8762:8810   */\n      mstore\n        /* \"#utility.yul\":8827:8966   */\n      tag_181\n        /* \"#utility.yul\":8961:8965   */\n      dup2\n        /* \"#utility.yul\":8827:8966   */\n      tag_141\n      jump\t// in\n    tag_181:\n        /* \"#utility.yul\":8819:8966   */\n      swap1\n      pop\n        /* \"#utility.yul\":8302:8973   */\n      swap4\n      swap3\n      pop\n      pop\n      pop\n      jump\t// out\n        /* \"#utility.yul\":8979:9650   */\n    tag_46:\n        /* \"#utility.yul\":9209:9213   */\n      0x00\n        /* \"#utility.yul\":9247:9249   */\n      0x60\n        /* \"#utility.yul\":9236:9245   */\n      dup3\n        /* \"#utility.yul\":9232:9250   */\n      add\n        /* \"#utility.yul\":9224:9250   */\n      swap1\n      pop\n        /* \"#utility.yul\":9260:9339   */\n      tag_183\n        /* \"#utility.yul\":9336:9337   */\n      0x00\n        /* \"#utility.yul\":9325:9334   */\n      dup4\n        /* \"#utility.yul\":9321:9338   */\n      add\n        /* \"#utility.yul\":9312:9318   */\n      dup6\n        /* \"#utility.yul\":9260:9339   */\n      tag_151\n      jump\t// in\n    tag_183:\n        /* \"#utility.yul\":9349:9429   */\n      tag_184\n        /* \"#utility.yul\":9425:9427   */\n      0x20\n        /* \"#utility.yul\":9414:9423   */\n      dup4\n        /* \"#utility.yul\":9410:9428   */\n      add\n        /* \"#utility.yul\":9401:9407   */\n      dup5\n        /* \"#utility.yul\":9349:9429   */\n      tag_151\n      jump\t// in\n    tag_184:\n        /* \"#utility.yul\":9476:9485   */\n      dup2\n        /* \"#utility.yul\":9470:9474   */\n      dup2\n        /* \"#utility.yul\":9466:9486   */\n      sub\n        /* \"#utility.yul\":9461:9463   */\n      0x40\n        /* \"#utility.yul\":9450:9459   */\n      dup4\n        /* \"#utility.yul\":9446:9464   */\n      add\n        /* \"#utility.yul\":9439:9487   */\n      mstore\n        /* \"#utility.yul\":9504:9643   */\n      tag_185\n        /* \"#utility.yul\":9638:9642   */\n      dup2\n        /* \"#utility.yul\":9504:9643   */\n      tag_146\n      jump\t// in\n    tag_185:\n        /* \"#utility.yul\":9496:9643   */\n      swap1\n      pop\n        /* \"#utility.yul\":8979:9650   */\n      swap4\n      swap3\n      pop\n      pop\n      pop\n      jump\t// out\n        /* \"#utility.yul\":9737:9914   */\n    tag_118:\n        /* \"#utility.yul\":9829:9840   */\n      0x00\n        /* \"#utility.yul\":9863:9869   */\n      dup3\n        /* \"#utility.yul\":9858:9861   */\n      dup3\n        /* \"#utility.yul\":9851:9870   */\n      mstore\n        /* \"#utility.yul\":9903:9907   */\n      0x20\n        /* \"#utility.yul\":9898:9901   */\n      dup3\n        /* \"#utility.yul\":9894:9908   */\n      add\n        /* \"#utility.yul\":9879:9908   */\n      swap1\n      pop\n        /* \"#utility.yul\":9737:9914   */\n      swap3\n      swap2\n      pop\n      pop\n      jump\t// out\n        /* \"#utility.yul\":9920:10016   */\n    tag_99:\n        /* \"#utility.yul\":9957:9964   */\n      0x00\n        /* \"#utility.yul\":9986:10010   */\n      tag_190\n        /* \"#utility.yul\":10004:10009   */\n      dup3\n        /* \"#utility.yul\":9986:10010   */\n      tag_191\n      jump\t// in\n    tag_190:\n        /* \"#utility.yul\":9975:10010   */\n      swap1\n      pop\n        /* \"#utility.yul\":9920:10016   */\n      swap2\n      swap1\n      pop\n      jump\t// out\n        /* \"#utility.yul\":10022:10112   */\n    tag_103:\n        /* \"#utility.yul\":10056:10063   */\n      0x00\n        /* \"#utility.yul\":10099:10104   */\n      dup2\n        /* \"#utility.yul\":10092:10105   */\n      iszero\n        /* \"#utility.yul\":10085:10106   */\n      iszero\n        /* \"#utility.yul\":10074:10106   */\n      swap1\n      pop\n        /* \"#utility.yul\":10022:10112   */\n      swap2\n      swap1\n      pop\n      jump\t// out\n        /* \"#utility.yul\":10118:10244   */\n    tag_191:\n        /* \"#utility.yul\":10155:10162   */\n      0x00\n        /* \"#utility.yul\":10195:10237   */\n      0xffffffffffffffffffffffffffffffffffffffff\n        /* \"#utility.yul\":10188:10193   */\n      dup3\n        /* \"#utility.yul\":10184:10238   */\n      and\n        /* \"#utility.yul\":10173:10238   */\n      swap1\n      pop\n        /* \"#utility.yul\":10118:10244   */\n      swap2\n      swap1\n      pop\n      jump\t// out\n        /* \"#utility.yul\":10250:10327   */\n    tag_154:\n        /* \"#utility.yul\":10287:10294   */\n      0x00\n        /* \"#utility.yul\":10316:10321   */\n      dup2\n        /* \"#utility.yul\":10305:10321   */\n      swap1\n      pop\n        /* \"#utility.yul\":10250:10327   */\n      swap2\n      swap1\n      pop\n      jump\t// out\n        /* \"#utility.yul\":10333:10456   */\n    tag_110:\n        /* \"#utility.yul\":10393:10402   */\n      0x00\n        /* \"#utility.yul\":10426:10450   */\n      tag_196\n        /* \"#utility.yul\":10444:10449   */\n      dup3\n        /* \"#utility.yul\":10426:10450   */\n      tag_154\n      jump\t// in\n    tag_196:\n        /* \"#utility.yul\":10413:10450   */\n      swap1\n      pop\n        /* \"#utility.yul\":10333:10456   */\n      swap2\n      swap1\n      pop\n      jump\t// out\n        /* \"#utility.yul\":10462:10583   */\n    tag_114:\n        /* \"#utility.yul\":10520:10529   */\n      0x00\n        /* \"#utility.yul\":10553:10577   */\n      tag_198\n        /* \"#utility.yul\":10571:10576   */\n      dup3\n        /* \"#utility.yul\":10553:10577   */\n      tag_154\n      jump\t// in\n    tag_198:\n        /* \"#utility.yul\":10540:10577   */\n      swap1\n      pop\n        /* \"#utility.yul\":10462:10583   */\n      swap2\n      swap1\n      pop\n      jump\t// out\n        /* \"#utility.yul\":10712:10829   */\n    tag_90:\n        /* \"#utility.yul\":10821:10822   */\n      0x00\n        /* \"#utility.yul\":10818:10819   */\n      dup1\n        /* \"#utility.yul\":10811:10823   */\n      revert\n        /* \"#utility.yul\":10835:11014   */\n    tag_120:\n        /* \"#utility.yul\":10975:11006   */\n      0x322073686f756c642062652067726561746572207468616e20746f2031000000\n        /* \"#utility.yul\":10971:10972   */\n      0x00\n        /* \"#utility.yul\":10963:10969   */\n      dup3\n        /* \"#utility.yul\":10959:10973   */\n      add\n        /* \"#utility.yul\":10952:11007   */\n      mstore\n        /* \"#utility.yul\":10835:11014   */\n      pop\n      jump\t// out\n        /* \"#utility.yul\":11020:11184   */\n    tag_125:\n        /* \"#utility.yul\":11160:11176   */\n      0x496e76616c69642073656e646572000000000000000000000000000000000000\n        /* \"#utility.yul\":11156:11157   */\n      0x00\n        /* \"#utility.yul\":11148:11154   */\n      dup3\n        /* \"#utility.yul\":11144:11158   */\n      add\n        /* \"#utility.yul\":11137:11177   */\n      mstore\n        /* \"#utility.yul\":11020:11184   */\n      pop\n      jump\t// out\n        /* \"#utility.yul\":11190:11353   */\n    tag_130:\n        /* \"#utility.yul\":11330:11345   */\n      0x496e76616c69642076616c756500000000000000000000000000000000000000\n        /* \"#utility.yul\":11326:11327   */\n      0x00\n        /* \"#utility.yul\":11318:11324   */\n      dup3\n        /* \"#utility.yul\":11314:11328   */\n      add\n        /* \"#utility.yul\":11307:11346   */\n      mstore\n        /* \"#utility.yul\":11190:11353   */\n      pop\n      jump\t// out\n        /* \"#utility.yul\":11359:11537   */\n    tag_135:\n        /* \"#utility.yul\":11499:11529   */\n      0x322073686f756c64206265206c6573736572207468616e20746f203300000000\n        /* \"#utility.yul\":11495:11496   */\n      0x00\n        /* \"#utility.yul\":11487:11493   */\n      dup3\n        /* \"#utility.yul\":11483:11497   */\n      add\n        /* \"#utility.yul\":11476:11530   */\n      mstore\n        /* \"#utility.yul\":11359:11537   */\n      pop\n      jump\t// out\n        /* \"#utility.yul\":11543:11707   */\n    tag_140:\n        /* \"#utility.yul\":11683:11699   */\n      0x73686f756c642062652074727565000000000000000000000000000000000000\n        /* \"#utility.yul\":11679:11680   */\n      0x00\n        /* \"#utility.yul\":11671:11677   */\n      dup3\n        /* \"#utility.yul\":11667:11681   */\n      add\n        /* \"#utility.yul\":11660:11700   */\n      mstore\n        /* \"#utility.yul\":11543:11707   */\n      pop\n      jump\t// out\n        /* \"#utility.yul\":11713:11885   */\n    tag_145:\n        /* \"#utility.yul\":11853:11877   */\n      0x312073686f756c6420626520657175616c20746f203100000000000000000000\n        /* \"#utility.yul\":11849:11850   */\n      0x00\n        /* \"#utility.yul\":11841:11847   */\n      dup3\n        /* \"#utility.yul\":11837:11851   */\n      add\n        /* \"#utility.yul\":11830:11878   */\n      mstore\n        /* \"#utility.yul\":11713:11885   */\n      pop\n      jump\t// out\n        /* \"#utility.yul\":11891:12067   */\n    tag_150:\n        /* \"#utility.yul\":12031:12059   */\n      0x312073686f756c64206e6f7420626520657175616c20746f2031000000000000\n        /* \"#utility.yul\":12027:12028   */\n      0x00\n        /* \"#utility.yul\":12019:12025   */\n      dup3\n        /* \"#utility.yul\":12015:12029   */\n      add\n        /* \"#utility.yul\":12008:12060   */\n      mstore\n        /* \"#utility.yul\":11891:12067   */\n      pop\n      jump\t// out\n        /* \"#utility.yul\":12073:12195   */\n    tag_82:\n        /* \"#utility.yul\":12146:12170   */\n      tag_210\n        /* \"#utility.yul\":12164:12169   */\n      dup2\n        /* \"#utility.yul\":12146:12170   */\n      tag_99\n      jump\t// in\n    tag_210:\n        /* \"#utility.yul\":12139:12144   */\n      dup2\n        /* \"#utility.yul\":12136:12171   */\n      eq\n        /* \"#utility.yul\":12126:12189   */\n      tag_211\n      jumpi\n        /* \"#utility.yul\":12185:12186   */\n      0x00\n        /* \"#utility.yul\":12182:12183   */\n      dup1\n        /* \"#utility.yul\":12175:12187   */\n      revert\n        /* \"#utility.yul\":12126:12189   */\n    tag_211:\n        /* \"#utility.yul\":12073:12195   */\n      pop\n      jump\t// out\n        /* \"#utility.yul\":12201:12317   */\n    tag_86:\n        /* \"#utility.yul\":12271:12292   */\n      tag_213\n        /* \"#utility.yul\":12286:12291   */\n      dup2\n        /* \"#utility.yul\":12271:12292   */\n      tag_103\n      jump\t// in\n    tag_213:\n        /* \"#utility.yul\":12264:12269   */\n      dup2\n        /* \"#utility.yul\":12261:12293   */\n      eq\n        /* \"#utility.yul\":12251:12311   */\n      tag_214\n      jumpi\n        /* \"#utility.yul\":12307:12308   */\n      0x00\n        /* \"#utility.yul\":12304:12305   */\n      dup1\n        /* \"#utility.yul\":12297:12309   */\n      revert\n        /* \"#utility.yul\":12251:12311   */\n    tag_214:\n        /* \"#utility.yul\":12201:12317   */\n      pop\n      jump\t// out\n\n    auxdata: 0xa2646970667358221220c7f504decd8ba04179a837ef04f1fb9a88ec41e8e056e89e4400810070db754e64736f6c63430008070033\n}\n",
				"bytecode": {
					"linkReferences": {
						"remix_accounts.sol": {
							"TestsAccounts": [
								{
									"length": 20,
									"start": 975
								}
							]
						},
						"remix_tests.sol": {
							"Assert": [
								{
									"length": 20,
									"start": 235
								},
								{
									"length": 20,
									"start": 374
								},
								{
									"length": 20,
									"start": 514
								},
								{
									"length": 20,
									"start": 665
								},
								{
									"length": 20,
									"start": 807
								},
								{
									"length": 20,
									"start": 948
								},
								{
									"length": 20,
									"start": 1221
								}
							]
						}
					},
					"object": "608060405234801561001057600080fd5b50610ad4806100206000396000f3fe60806040526004361061004a5760003560e01c8063011e64921461004f57806312d487ea1461006657806336c00656146100915780637fea0d4b146100a85780639074416d146100bf575b600080fd5b34801561005b57600080fd5b506100646100c9565b005b34801561007257600080fd5b5061007b61026e565b604051610088919061073f565b60405180910390f35b34801561009d57600080fd5b506100a6610277565b005b3480156100b457600080fd5b506100bd610305565b005b6100c7610392565b005b73__$acbfb1c35000d78352310b16a054a6b106$__6339df137f600280146040518263ffffffff1660e01b8152600401610103919061075a565b60206040518083038186803b15801561011b57600080fd5b505af415801561012f573d6000803e3d6000fd5b505050506040513d601f19601f820116820180604052508101906101539190610587565b5073__$acbfb1c35000d78352310b16a054a6b106$__63a079f1a3600260016040518363ffffffff1660e01b815260040161018f9291906107df565b60206040518083038186803b1580156101a757600080fd5b505af41580156101bb573d6000803e3d6000fd5b505050506040513d601f19601f820116820180604052508101906101df9190610587565b5073__$acbfb1c35000d78352310b16a054a6b106$__63aea88952600260036040518363ffffffff1660e01b815260040161021b92919061081b565b60206040518083038186803b15801561023357600080fd5b505af4158015610247573d6000803e3d6000fd5b505050506040513d601f19601f8201168201806040525081019061026b9190610587565b50565b60006001905090565b73__$acbfb1c35000d78352310b16a054a6b106$__63561015e2600160026040518363ffffffff1660e01b81526004016102b2929190610893565b60206040518083038186803b1580156102ca57600080fd5b505af41580156102de573d6000803e3d6000fd5b505050506040513d601f19601f820116820180604052508101906103029190610587565b50565b73__$acbfb1c35000d78352310b16a054a6b106$__63abcd79606001806040518363ffffffff1660e01b815260040161033f929190610857565b60206040518083038186803b15801561035757600080fd5b505af415801561036b573d6000803e3d6000fd5b505050506040513d601f19601f8201168201806040525081019061038f9190610587565b50565b73__$acbfb1c35000d78352310b16a054a6b106$__63bfba5dd63373__$1068a87eb54ed04c4e435de35b2ebf536f$__63ce88b14560016040518263ffffffff1660e01b81526004016103e59190610788565b60206040518083038186803b1580156103fd57600080fd5b505af4158015610411573d6000803e3d6000fd5b505050506040513d601f19601f82011682018060405250810190610435919061055a565b6040518363ffffffff1660e01b8152600401610452929190610703565b60206040518083038186803b15801561046a57600080fd5b505af415801561047e573d6000803e3d6000fd5b505050506040513d601f19601f820116820180604052508101906104a29190610587565b5073__$acbfb1c35000d78352310b16a054a6b106$__63abcd79603460646040518363ffffffff1660e01b81526004016104dd9291906107a3565b60206040518083038186803b1580156104f557600080fd5b505af4158015610509573d6000803e3d6000fd5b505050506040513d601f19601f8201168201806040525081019061052d9190610587565b50565b60008151905061053f81610a70565b92915050565b60008151905061055481610a87565b92915050565b6000602082840312156105705761056f61094c565b5b600061057e84828501610530565b91505092915050565b60006020828403121561059d5761059c61094c565b5b60006105ab84828501610545565b91505092915050565b6105bd816108e0565b82525050565b6105cc816108f2565b82525050565b6105db816108f2565b82525050565b6105ea81610928565b82525050565b6105f98161093a565b82525050565b600061060c601d836108cf565b915061061782610951565b602082019050919050565b600061062f600e836108cf565b915061063a8261097a565b602082019050919050565b6000610652600d836108cf565b915061065d826109a3565b602082019050919050565b6000610675601c836108cf565b9150610680826109cc565b602082019050919050565b6000610698600e836108cf565b91506106a3826109f5565b602082019050919050565b60006106bb6016836108cf565b91506106c682610a1e565b602082019050919050565b60006106de601a836108cf565b91506106e982610a47565b602082019050919050565b6106fd8161091e565b82525050565b600060608201905061071860008301856105b4565b61072560208301846105b4565b818103604083015261073681610622565b90509392505050565b600060208201905061075460008301846105c3565b92915050565b600060408201905061076f60008301846105d2565b81810360208301526107808161068b565b905092915050565b600060208201905061079d60008301846105f0565b92915050565b60006060820190506107b860008301856106f4565b6107c560208301846105e1565b81810360408301526107d681610645565b90509392505050565b60006060820190506107f460008301856106f4565b61080160208301846106f4565b8181036040830152610812816105ff565b90509392505050565b600060608201905061083060008301856106f4565b61083d60208301846106f4565b818103604083015261084e81610668565b90509392505050565b600060608201905061086c60008301856106f4565b61087960208301846106f4565b818103604083015261088a816106ae565b90509392505050565b60006060820190506108a860008301856106f4565b6108b560208301846106f4565b81810360408301526108c6816106d1565b90509392505050565b600082825260208201905092915050565b60006108eb826108fe565b9050919050565b60008115159050919050565b600073ffffffffffffffffffffffffffffffffffffffff82169050919050565b6000819050919050565b60006109338261091e565b9050919050565b60006109458261091e565b9050919050565b600080fd5b7f322073686f756c642062652067726561746572207468616e20746f2031000000600082015250565b7f496e76616c69642073656e646572000000000000000000000000000000000000600082015250565b7f496e76616c69642076616c756500000000000000000000000000000000000000600082015250565b7f322073686f756c64206265206c6573736572207468616e20746f203300000000600082015250565b7f73686f756c642062652074727565000000000000000000000000000000000000600082015250565b7f312073686f756c6420626520657175616c20746f203100000000000000000000600082015250565b7f312073686f756c64206e6f7420626520657175616c20746f2031000000000000600082015250565b610a79816108e0565b8114610a8457600080fd5b50565b610a90816108f2565b8114610a9b57600080fd5b5056fea2646970667358221220c7f504decd8ba04179a837ef04f1fb9a88ec41e8e056e89e4400810070db754e64736f6c63430008070033",
					"opcodes": "PUSH1 0x80 PUSH1 0x40 MSTORE CALLVALUE DUP1 ISZERO PUSH2 0x10 JUMPI PUSH1 0x0 DUP1 REVERT JUMPDEST POP PUSH2 0xAD4 DUP1 PUSH2 0x20 PUSH1 0x0 CODECOPY PUSH1 0x0 RETURN INVALID PUSH1 0x80 PUSH1 0x40 MSTORE PUSH1 0x4 CALLDATASIZE LT PUSH2 0x4A JUMPI PUSH1 0x0 CALLDATALOAD PUSH1 0xE0 SHR DUP1 PUSH4 0x11E6492 EQ PUSH2 0x4F JUMPI DUP1 PUSH4 0x12D487EA EQ PUSH2 0x66 JUMPI DUP1 PUSH4 0x36C00656 EQ PUSH2 0x91 JUMPI DUP1 PUSH4 0x7FEA0D4B EQ PUSH2 0xA8 JUMPI DUP1 PUSH4 0x9074416D EQ PUSH2 0xBF JUMPI JUMPDEST PUSH1 0x0 DUP1 REVERT JUMPDEST CALLVALUE DUP1 ISZERO PUSH2 0x5B JUMPI PUSH1 0x0 DUP1 REVERT JUMPDEST POP PUSH2 0x64 PUSH2 0xC9 JUMP JUMPDEST STOP JUMPDEST CALLVALUE DUP1 ISZERO PUSH2 0x72 JUMPI PUSH1 0x0 DUP1 REVERT JUMPDEST POP PUSH2 0x7B PUSH2 0x26E JUMP JUMPDEST PUSH1 0x40 MLOAD PUSH2 0x88 SWAP2 SWAP1 PUSH2 0x73F JUMP JUMPDEST PUSH1 0x40 MLOAD DUP1 SWAP2 SUB SWAP1 RETURN JUMPDEST CALLVALUE DUP1 ISZERO PUSH2 0x9D JUMPI PUSH1 0x0 DUP1 REVERT JUMPDEST POP PUSH2 0xA6 PUSH2 0x277 JUMP JUMPDEST STOP JUMPDEST CALLVALUE DUP1 ISZERO PUSH2 0xB4 JUMPI PUSH1 0x0 DUP1 REVERT JUMPDEST POP PUSH2 0xBD PUSH2 0x305 JUMP JUMPDEST STOP JUMPDEST PUSH2 0xC7 PUSH2 0x392 JUMP JUMPDEST STOP JUMPDEST PUSH20 0x0 PUSH4 0x39DF137F PUSH1 0x2 DUP1 EQ PUSH1 0x40 MLOAD DUP3 PUSH4 0xFFFFFFFF AND PUSH1 0xE0 SHL DUP2 MSTORE PUSH1 0x4 ADD PUSH2 0x103 SWAP2 SWAP1 PUSH2 0x75A JUMP JUMPDEST PUSH1 0x20 PUSH1 0x40 MLOAD DUP1 DUP4 SUB DUP2 DUP7 DUP1 EXTCODESIZE ISZERO DUP1 ISZERO PUSH2 0x11B JUMPI PUSH1 0x0 DUP1 REVERT JUMPDEST POP GAS DELEGATECALL ISZERO DUP1 ISZERO PUSH2 0x12F JUMPI RETURNDATASIZE PUSH1 0x0 DUP1 RETURNDATACOPY RETURNDATASIZE PUSH1 0x0 REVERT JUMPDEST POP POP POP POP PUSH1 0x40 MLOAD RETURNDATASIZE PUSH1 0x1F NOT PUSH1 0x1F DUP3 ADD AND DUP3 ADD DUP1 PUSH1 0x40 MSTORE POP DUP2 ADD SWAP1 PUSH2 0x153 SWAP2 SWAP1 PUSH2 0x587 JUMP JUMPDEST POP PUSH20 0x0 PUSH4 0xA079F1A3 PUSH1 0x2 PUSH1 0x1 PUSH1 0x40 MLOAD DUP4 PUSH4 0xFFFFFFFF AND PUSH1 0xE0 SHL DUP2 MSTORE PUSH1 0x4 ADD PUSH2 0x18F SWAP3 SWAP2 SWAP1 PUSH2 0x7DF JUMP JUMPDEST PUSH1 0x20 PUSH1 0x40 MLOAD DUP1 DUP4 SUB DUP2 DUP7 DUP1 EXTCODESIZE ISZERO DUP1 ISZERO PUSH2 0x1A7 JUMPI PUSH1 0x0 DUP1 REVERT JUMPDEST POP GAS DELEGATECALL ISZERO DUP1 ISZERO PUSH2 0x1BB JUMPI RETURNDATASIZE PUSH1 0x0 DUP1 RETURNDATACOPY RETURNDATASIZE PUSH1 0x0 REVERT JUMPDEST POP POP POP POP PUSH1 0x40 MLOAD RETURNDATASIZE PUSH1 0x1F NOT PUSH1 0x1F DUP3 ADD AND DUP3 ADD DUP1 PUSH1 0x40 MSTORE POP DUP2 ADD SWAP1 PUSH2 0x1DF SWAP2 SWAP1 PUSH2 0x587 JUMP JUMPDEST POP PUSH20 0x0 PUSH4 0xAEA88952 PUSH1 0x2 PUSH1 0x3 PUSH1 0x40 MLOAD DUP4 PUSH4 0xFFFFFFFF AND PUSH1 0xE0 SHL DUP2 MSTORE PUSH1 0x4 ADD PUSH2 0x21B SWAP3 SWAP2 SWAP1 PUSH2 0x81B JUMP JUMPDEST PUSH1 0x20 PUSH1 0x40 MLOAD DUP1 DUP4 SUB DUP2 DUP7 DUP1 EXTCODESIZE ISZERO DUP1 ISZERO PUSH2 0x233 JUMPI PUSH1 0x0 DUP1 REVERT JUMPDEST POP GAS DELEGATECALL ISZERO DUP1 ISZERO PUSH2 0x247 JUMPI RETURNDATASIZE PUSH1 0x0 DUP1 RETURNDATACOPY RETURNDATASIZE PUSH1 0x0 REVERT JUMPDEST POP POP POP POP PUSH1 0x40 MLOAD RETURNDATASIZE PUSH1 0x1F NOT PUSH1 0x1F DUP3 ADD AND DUP3 ADD DUP1 PUSH1 0x40 MSTORE POP DUP2 ADD SWAP1 PUSH2 0x26B SWAP2 SWAP1 PUSH2 0x587 JUMP JUMPDEST POP JUMP JUMPDEST PUSH1 0x0 PUSH1 0x1 SWAP1 POP SWAP1 JUMP JUMPDEST PUSH20 0x0 PUSH4 0x561015E2 PUSH1 0x1 PUSH1 0x2 PUSH1 0x40 MLOAD DUP4 PUSH4 0xFFFFFFFF AND PUSH1 0xE0 SHL DUP2 MSTORE PUSH1 0x4 ADD PUSH2 0x2B2 SWAP3 SWAP2 SWAP1 PUSH2 0x893 JUMP JUMPDEST PUSH1 0x20 PUSH1 0x40 MLOAD DUP1 DUP4 SUB DUP2 DUP7 DUP1 EXTCODESIZE ISZERO DUP1 ISZERO PUSH2 0x2CA JUMPI PUSH1 0x0 DUP1 REVERT JUMPDEST POP GAS DELEGATECALL ISZERO DUP1 ISZERO PUSH2 0x2DE JUMPI RETURNDATASIZE PUSH1 0x0 DUP1 RETURNDATACOPY RETURNDATASIZE PUSH1 0x0 REVERT JUMPDEST POP POP POP POP PUSH1 0x40 MLOAD RETURNDATASIZE PUSH1 0x1F NOT PUSH1 0x1F DUP3 ADD AND DUP3 ADD DUP1 PUSH1 0x40 MSTORE POP DUP2 ADD SWAP1 PUSH2 0x302 SWAP2 SWAP1 PUSH2 0x587 JUMP JUMPDEST POP JUMP JUMPDEST PUSH20 0x0 PUSH4 0xABCD7960 PUSH1 0x1 DUP1 PUSH1 0x40 MLOAD DUP4 PUSH4 0xFFFFFFFF AND PUSH1 0xE0 SHL DUP2 MSTORE PUSH1 0x4 ADD PUSH2 0x33F SWAP3 SWAP2 SWAP1 PUSH2 0x857 JUMP JUMPDEST PUSH1 0x20 PUSH1 0x40 MLOAD DUP1 DUP4 SUB DUP2 DUP7 DUP1 EXTCODESIZE ISZERO DUP1 ISZERO PUSH2 0x357 JUMPI PUSH1 0x0 DUP1 REVERT JUMPDEST POP GAS DELEGATECALL ISZERO DUP1 ISZERO PUSH2 0x36B JUMPI RETURNDATASIZE PUSH1 0x0 DUP1 RETURNDATACOPY RETURNDATASIZE PUSH1 0x0 REVERT JUMPDEST POP POP POP POP PUSH1 0x40 MLOAD RETURNDATASIZE PUSH1 0x1F NOT PUSH1 0x1F DUP3 ADD AND DUP3 ADD DUP1 PUSH1 0x40 MSTORE POP DUP2 ADD SWAP1 PUSH2 0x38F SWAP2 SWAP1 PUSH2 0x587 JUMP JUMPDEST POP JUMP JUMPDEST PUSH20 0x0 PUSH4 0xBFBA5DD6 CALLER PUSH20 0x0 PUSH4 0xCE88B145 PUSH1 0x1 PUSH1 0x40 MLOAD DUP3 PUSH4 0xFFFFFFFF AND PUSH1 0xE0 SHL DUP2 MSTORE PUSH1 0x4 ADD PUSH2 0x3E5 SWAP2 SWAP1 PUSH2 0x788 JUMP JUMPDEST PUSH1 0x20 PUSH1 0x40 MLOAD DUP1 DUP4 SUB DUP2 DUP7 DUP1 EXTCODESIZE ISZERO DUP1 ISZERO PUSH2 0x3FD JUMPI PUSH1 0x0 DUP1 REVERT JUMPDEST POP GAS DELEGATECALL ISZERO DUP1 ISZERO PUSH2 0x411 JUMPI RETURNDATASIZE PUSH1 0x0 DUP1 RETURNDATACOPY RETURNDATASIZE PUSH1 0x0 REVERT JUMPDEST POP POP POP POP PUSH1 0x40 MLOAD RETURNDATASIZE PUSH1 0x1F NOT PUSH1 0x1F DUP3 ADD AND DUP3 ADD DUP1 PUSH1 0x40 MSTORE POP DUP2 ADD SWAP1 PUSH2 0x435 SWAP2 SWAP1 PUSH2 0x55A JUMP JUMPDEST PUSH1 0x40 MLOAD DUP4 PUSH4 0xFFFFFFFF AND PUSH1 0xE0 SHL DUP2 MSTORE PUSH1 0x4 ADD PUSH2 0x452 SWAP3 SWAP2 SWAP1 PUSH2 0x703 JUMP JUMPDEST PUSH1 0x20 PUSH1 0x40 MLOAD DUP1 DUP4 SUB DUP2 DUP7 DUP1 EXTCODESIZE ISZERO DUP1 ISZERO PUSH2 0x46A JUMPI PUSH1 0x0 DUP1 REVERT JUMPDEST POP GAS DELEGATECALL ISZERO DUP1 ISZERO PUSH2 0x47E JUMPI RETURNDATASIZE PUSH1 0x0 DUP1 RETURNDATACOPY RETURNDATASIZE PUSH1 0x0 REVERT JUMPDEST POP POP POP POP PUSH1 0x40 MLOAD RETURNDATASIZE PUSH1 0x1F NOT PUSH1 0x1F DUP3 ADD AND DUP3 ADD DUP1 PUSH1 0x40 MSTORE POP DUP2 ADD SWAP1 PUSH2 0x4A2 SWAP2 SWAP1 PUSH2 0x587 JUMP JUMPDEST POP PUSH20 0x0 PUSH4 0xABCD7960 CALLVALUE PUSH1 0x64 PUSH1 0x40 MLOAD DUP4 PUSH4 0xFFFFFFFF AND PUSH1 0xE0 SHL DUP2 MSTORE PUSH1 0x4 ADD PUSH2 0x4DD SWAP3 SWAP2 SWAP1 PUSH2 0x7A3 JUMP JUMPDEST PUSH1 0x20 PUSH1 0x40 MLOAD DUP1 DUP4 SUB DUP2 DUP7 DUP1 EXTCODESIZE ISZERO DUP1 ISZERO PUSH2 0x4F5 JUMPI PUSH1 0x0 DUP1 REVERT JUMPDEST POP GAS DELEGATECALL ISZERO DUP1 ISZERO PUSH2 0x509 JUMPI RETURNDATASIZE PUSH1 0x0 DUP1 RETURNDATACOPY RETURNDATASIZE PUSH1 0x0 REVERT JUMPDEST POP POP POP POP PUSH1 0x40 MLOAD RETURNDATASIZE PUSH1 0x1F NOT PUSH1 0x1F DUP3 ADD AND DUP3 ADD DUP1 PUSH1 0x40 MSTORE POP DUP2 ADD SWAP1 PUSH2 0x52D SWAP2 SWAP1 PUSH2 0x587 JUMP JUMPDEST POP JUMP JUMPDEST PUSH1 0x0 DUP2 MLOAD SWAP1 POP PUSH2 0x53F DUP2 PUSH2 0xA70 JUMP JUMPDEST SWAP3 SWAP2 POP POP JUMP JUMPDEST PUSH1 0x0 DUP2 MLOAD SWAP1 POP PUSH2 0x554 DUP2 PUSH2 0xA87 JUMP JUMPDEST SWAP3 SWAP2 POP POP JUMP JUMPDEST PUSH1 0x0 PUSH1 0x20 DUP3 DUP5 SUB SLT ISZERO PUSH2 0x570 JUMPI PUSH2 0x56F PUSH2 0x94C JUMP JUMPDEST JUMPDEST PUSH1 0x0 PUSH2 0x57E DUP5 DUP3 DUP6 ADD PUSH2 0x530 JUMP JUMPDEST SWAP2 POP POP SWAP3 SWAP2 POP POP JUMP JUMPDEST PUSH1 0x0 PUSH1 0x20 DUP3 DUP5 SUB SLT ISZERO PUSH2 0x59D JUMPI PUSH2 0x59C PUSH2 0x94C JUMP JUMPDEST JUMPDEST PUSH1 0x0 PUSH2 0x5AB DUP5 DUP3 DUP6 ADD PUSH2 0x545 JUMP JUMPDEST SWAP2 POP POP SWAP3 SWAP2 POP POP JUMP JUMPDEST PUSH2 0x5BD DUP2 PUSH2 0x8E0 JUMP JUMPDEST DUP3 MSTORE POP POP JUMP JUMPDEST PUSH2 0x5CC DUP2 PUSH2 0x8F2 JUMP JUMPDEST DUP3 MSTORE POP POP JUMP JUMPDEST PUSH2 0x5DB DUP2 PUSH2 0x8F2 JUMP JUMPDEST DUP3 MSTORE POP POP JUMP JUMPDEST PUSH2 0x5EA DUP2 PUSH2 0x928 JUMP JUMPDEST DUP3 MSTORE POP POP JUMP JUMPDEST PUSH2 0x5F9 DUP2 PUSH2 0x93A JUMP JUMPDEST DUP3 MSTORE POP POP JUMP JUMPDEST PUSH1 0x0 PUSH2 0x60C PUSH1 0x1D DUP4 PUSH2 0x8CF JUMP JUMPDEST SWAP2 POP PUSH2 0x617 DUP3 PUSH2 0x951 JUMP JUMPDEST PUSH1 0x20 DUP3 ADD SWAP1 POP SWAP2 SWAP1 POP JUMP JUMPDEST PUSH1 0x0 PUSH2 0x62F PUSH1 0xE DUP4 PUSH2 0x8CF JUMP JUMPDEST SWAP2 POP PUSH2 0x63A DUP3 PUSH2 0x97A JUMP JUMPDEST PUSH1 0x20 DUP3 ADD SWAP1 POP SWAP2 SWAP1 POP JUMP JUMPDEST PUSH1 0x0 PUSH2 0x652 PUSH1 0xD DUP4 PUSH2 0x8CF JUMP JUMPDEST SWAP2 POP PUSH2 0x65D DUP3 PUSH2 0x9A3 JUMP JUMPDEST PUSH1 0x20 DUP3 ADD SWAP1 POP SWAP2 SWAP1 POP JUMP JUMPDEST PUSH1 0x0 PUSH2 0x675 PUSH1 0x1C DUP4 PUSH2 0x8CF JUMP JUMPDEST SWAP2 POP PUSH2 0x680 DUP3 PUSH2 0x9CC JUMP JUMPDEST PUSH1 0x20 DUP3 ADD SWAP1 POP SWAP2 SWAP1 POP JUMP JUMPDEST PUSH1 0x0 PUSH2 0x698 PUSH1 0xE DUP4 PUSH2 0x8CF JUMP JUMPDEST SWAP2 POP PUSH2 0x6A3 DUP3 PUSH2 0x9F5 JUMP JUMPDEST PUSH1 0x20 DUP3 ADD SWAP1 POP SWAP2 SWAP1 POP JUMP JUMPDEST PUSH1 0x0 PUSH2 0x6BB PUSH1 0x16 DUP4 PUSH2 0x8CF JUMP JUMPDEST SWAP2 POP PUSH2 0x6C6 DUP3 PUSH2 0xA1E JUMP JUMPDEST PUSH1 0x20 DUP3 ADD SWAP1 POP SWAP2 SWAP1 POP JUMP JUMPDEST PUSH1 0x0 PUSH2 0x6DE PUSH1 0x1A DUP4 PUSH2 0x8CF JUMP JUMPDEST SWAP2 POP PUSH2 0x6E9 DUP3 PUSH2 0xA47 JUMP JUMPDEST PUSH1 0x20 DUP3 ADD SWAP1 POP SWAP2 SWAP1 POP JUMP JUMPDEST PUSH2 0x6FD DUP2 PUSH2 0x91E JUMP JUMPDEST DUP3 MSTORE POP POP JUMP JUMPDEST PUSH1 0x0 PUSH1 0x60 DUP3 ADD SWAP1 POP PUSH2 0x718 PUSH1 0x0 DUP4 ADD DUP6 PUSH2 0x5B4 JUMP JUMPDEST PUSH2 0x725 PUSH1 0x20 DUP4 ADD DUP5 PUSH2 0x5B4 JUMP JUMPDEST DUP2 DUP2 SUB PUSH1 0x40 DUP4 ADD MSTORE PUSH2 0x736 DUP2 PUSH2 0x622 JUMP JUMPDEST SWAP1 POP SWAP4 SWAP3 POP POP POP JUMP JUMPDEST PUSH1 0x0 PUSH1 0x20 DUP3 ADD SWAP1 POP PUSH2 0x754 PUSH1 0x0 DUP4 ADD DUP5 PUSH2 0x5C3 JUMP JUMPDEST SWAP3 SWAP2 POP POP JUMP JUMPDEST PUSH1 0x0 PUSH1 0x40 DUP3 ADD SWAP1 POP PUSH2 0x76F PUSH1 0x0 DUP4 ADD DUP5 PUSH2 0x5D2 JUMP JUMPDEST DUP2 DUP2 SUB PUSH1 0x20 DUP4 ADD MSTORE PUSH2 0x780 DUP2 PUSH2 0x68B JUMP JUMPDEST SWAP1 POP SWAP3 SWAP2 POP POP JUMP JUMPDEST PUSH1 0x0 PUSH1 0x20 DUP3 ADD SWAP1 POP PUSH2 0x79D PUSH1 0x0 DUP4 ADD DUP5 PUSH2 0x5F0 JUMP JUMPDEST SWAP3 SWAP2 POP POP JUMP JUMPDEST PUSH1 0x0 PUSH1 0x60 DUP3 ADD SWAP1 POP PUSH2 0x7B8 PUSH1 0x0 DUP4 ADD DUP6 PUSH2 0x6F4 JUMP JUMPDEST PUSH2 0x7C5 PUSH1 0x20 DUP4 ADD DUP5 PUSH2 0x5E1 JUMP JUMPDEST DUP2 DUP2 SUB PUSH1 0x40 DUP4 ADD MSTORE PUSH2 0x7D6 DUP2 PUSH2 0x645 JUMP JUMPDEST SWAP1 POP SWAP4 SWAP3 POP POP POP JUMP JUMPDEST PUSH1 0x0 PUSH1 0x60 DUP3 ADD SWAP1 POP PUSH2 0x7F4 PUSH1 0x0 DUP4 ADD DUP6 PUSH2 0x6F4 JUMP JUMPDEST PUSH2 0x801 PUSH1 0x20 DUP4 ADD DUP5 PUSH2 0x6F4 JUMP JUMPDEST DUP2 DUP2 SUB PUSH1 0x40 DUP4 ADD MSTORE PUSH2 0x812 DUP2 PUSH2 0x5FF JUMP JUMPDEST SWAP1 POP SWAP4 SWAP3 POP POP POP JUMP JUMPDEST PUSH1 0x0 PUSH1 0x60 DUP3 ADD SWAP1 POP PUSH2 0x830 PUSH1 0x0 DUP4 ADD DUP6 PUSH2 0x6F4 JUMP JUMPDEST PUSH2 0x83D PUSH1 0x20 DUP4 ADD DUP5 PUSH2 0x6F4 JUMP JUMPDEST DUP2 DUP2 SUB PUSH1 0x40 DUP4 ADD MSTORE PUSH2 0x84E DUP2 PUSH2 0x668 JUMP JUMPDEST SWAP1 POP SWAP4 SWAP3 POP POP POP JUMP JUMPDEST PUSH1 0x0 PUSH1 0x60 DUP3 ADD SWAP1 POP PUSH2 0x86C PUSH1 0x0 DUP4 ADD DUP6 PUSH2 0x6F4 JUMP JUMPDEST PUSH2 0x879 PUSH1 0x20 DUP4 ADD DUP5 PUSH2 0x6F4 JUMP JUMPDEST DUP2 DUP2 SUB PUSH1 0x40 DUP4 ADD MSTORE PUSH2 0x88A DUP2 PUSH2 0x6AE JUMP JUMPDEST SWAP1 POP SWAP4 SWAP3 POP POP POP JUMP JUMPDEST PUSH1 0x0 PUSH1 0x60 DUP3 ADD SWAP1 POP PUSH2 0x8A8 PUSH1 0x0 DUP4 ADD DUP6 PUSH2 0x6F4 JUMP JUMPDEST PUSH2 0x8B5 PUSH1 0x20 DUP4 ADD DUP5 PUSH2 0x6F4 JUMP JUMPDEST DUP2 DUP2 SUB PUSH1 0x40 DUP4 ADD MSTORE PUSH2 0x8C6 DUP2 PUSH2 0x6D1 JUMP JUMPDEST SWAP1 POP SWAP4 SWAP3 POP POP POP JUMP JUMPDEST PUSH1 0x0 DUP3 DUP3 MSTORE PUSH1 0x20 DUP3 ADD SWAP1 POP SWAP3 SWAP2 POP POP JUMP JUMPDEST PUSH1 0x0 PUSH2 0x8EB DUP3 PUSH2 0x8FE JUMP JUMPDEST SWAP1 POP SWAP2 SWAP1 POP JUMP JUMPDEST PUSH1 0x0 DUP2 ISZERO ISZERO SWAP1 POP SWAP2 SWAP1 POP JUMP JUMPDEST PUSH1 0x0 PUSH20 0xFFFFFFFFFFFFFFFFFFFFFFFFFFFFFFFFFFFFFFFF DUP3 AND SWAP1 POP SWAP2 SWAP1 POP JUMP JUMPDEST PUSH1 0x0 DUP2 SWAP1 POP SWAP2 SWAP1 POP JUMP JUMPDEST PUSH1 0x0 PUSH2 0x933 DUP3 PUSH2 0x91E JUMP JUMPDEST SWAP1 POP SWAP2 SWAP1 POP JUMP JUMPDEST PUSH1 0x0 PUSH2 0x945 DUP3 PUSH2 0x91E JUMP JUMPDEST SWAP1 POP SWAP2 SWAP1 POP JUMP JUMPDEST PUSH1 0x0 DUP1 REVERT JUMPDEST PUSH32 0x322073686F756C642062652067726561746572207468616E20746F2031000000 PUSH1 0x0 DUP3 ADD MSTORE POP JUMP JUMPDEST PUSH32 0x496E76616C69642073656E646572000000000000000000000000000000000000 PUSH1 0x0 DUP3 ADD MSTORE POP JUMP JUMPDEST PUSH32 0x496E76616C69642076616C756500000000000000000000000000000000000000 PUSH1 0x0 DUP3 ADD MSTORE POP JUMP JUMPDEST PUSH32 0x322073686F756C64206265206C6573736572207468616E20746F203300000000 PUSH1 0x0 DUP3 ADD MSTORE POP JUMP JUMPDEST PUSH32 0x73686F756C642062652074727565000000000000000000000000000000000000 PUSH1 0x0 DUP3 ADD MSTORE POP JUMP JUMPDEST PUSH32 0x312073686F756C6420626520657175616C20746F203100000000000000000000 PUSH1 0x0 DUP3 ADD MSTORE POP JUMP JUMPDEST PUSH32 0x312073686F756C64206E6F7420626520657175616C20746F2031000000000000 PUSH1 0x0 DUP3 ADD MSTORE POP JUMP JUMPDEST PUSH2 0xA79 DUP2 PUSH2 0x8E0 JUMP JUMPDEST DUP2 EQ PUSH2 0xA84 JUMPI PUSH1 0x0 DUP1 REVERT JUMPDEST POP JUMP JUMPDEST PUSH2 0xA90 DUP2 PUSH2 0x8F2 JUMP JUMPDEST DUP2 EQ PUSH2 0xA9B JUMPI PUSH1 0x0 DUP1 REVERT JUMPDEST POP JUMP INVALID LOG2 PUSH5 0x6970667358 0x22 SLT KECCAK256 0xC7 CREATE2 DIV 0xDE 0xCD DUP12 LOG0 COINBASE PUSH26 0xA837EF04F1FB9A88EC41E8E056E89E4400810070DB754E64736F PUSH13 0x63430008070033000000000000 "
				},
				"gasEstimates": {
					"creation": {
						"codeDepositCost": "554400",
						"executionCost": "587",
						"totalCost": "554987"
					},
					"external": {
						"beforeAll()": "infinite",
						"checkFailure()": "infinite",
						"checkSenderAndValue()": "infinite",
						"checkSuccess()": "infinite",
						"checkSuccess2()": "343"
					}
				},
				"methodIdentifiers": {
					"beforeAll()": "7fea0d4b",
					"checkFailure()": "36c00656",
					"checkSenderAndValue()": "9074416d",
					"checkSuccess()": "011e6492",
					"checkSuccess2()": "12d487ea"
				}
			},
			"storageLayout": {
				"storage": [],
				"types": null
			},
			"userdoc": {
				"kind": "user",
				"methods": {
					"beforeAll()": {
						"notice": "'beforeAll' runs before all other tests More special functions are: 'beforeEach', 'beforeAll', 'afterEach' & 'afterAll'"
					},
					"checkSenderAndValue()": {
						"notice": "Custom Transaction Context: https://remix-ide.readthedocs.io/en/latest/unittesting.html#customization #sender: account-1 #value: 100"
					}
				},
				"version": 1
			}
		}
	}
}